:0E6459001262601263781246DD1259A680FBB3
:10637800758920759850E4F587758DF4758BF4D27E
:046388008ED29C22F3
:076470003098FDC298AF99BE
:016477002202
:1060390012643A12586CE4FF126281E4FF12648C14
:1060490012637812644A126478123E1E12586CC2A6
:06605900A8C2AF0250E3F3
:10605F0012643A12586CE4FF126281E4FF12648CEE
:10606F0012637812644A12647812413012586CC26B
:06607F00A8C2AF0250E3CD
:1060850012643A12586CE4FF126281E4FF12648CC8
:1060950012637812644A12647812389912586CC2E5
:0660A500A8C2AF0250E3A7
:1060AB0012643A12586CE4FF126281E4FF12648CA2
:1060BB0012637812644A12647812285812586CC210
:0660CB00A8C2AF0250E381
:1060D10012643A12586CE4FF126281E4FF12648C7C
:1060E10012637812644A126478121C6512586CC2E9
:0660F100A8C2AF0250E35B
:1060F70012643A12586CE4FF126281E4FF12648C56
:1061070012637812644A12647812000E12586CC235
:06611700A8C2AF0250E334
:10443D000000E010103C5C5C3C141474C48000005F
:10444D000000071C3C1C040404041C3C1D07000058
:10445D00000000000000000000000000000000004F
:10446D00000000000000000000000000000000003F
:10447D000000E010103C5C5C3C141474C48000001F
:10448D000000071C3C1C040404041C3C1D07000018
:10449D00000000000000000000000000000000000F
:1044AD0000000000000000000000000000000000FF
:1044BD00000888B8EC4C7CCCCC7C4CECB88808005F
:1044CD0000020B0F3F3F390909393F3F0F0B020027
:1044DD0000000000000000000000000000000000CF
:1044ED0000000000000000000000000000000000BF
:1044FD00000888B8EC4C7CCCCC7C4CECB88808001F
:10450D0000020B0F3F3F390909393F3F0F0B0200E6
:10451D00000000000000000000000000000000008E
:10452D00000000000000000000000000000000007E
:10453D0080801C7C6C48F8CFCFF9496C7C1C808046
:10454D00000302CECE6E720303726ECECE02030056
:10455D00000000000000000000000000000000004E
:10456D00000000000000000000000000000000003E
:10457D0080801C7C6C48F8CFCFF9496C7C1C808006
:10458D00000302CECE6E720303726ECECE02030016
:10459D00000000000000000000000000000000000E
:1045AD0000000000000000000000000000000000FE
:1045BD0000000000000000000000000000000000EE
:1045CD0000000000000000000000000000000000DE
:1045DD00000008083870C0808040201808080000CE
:1045ED00002020303824020103062C383020200012
:1045FD0000000000000000000000000000000000AE
:10460D00000000000000000000000000000000009D
:10461D00808080E022301088882020180000000063
:10462D0001010107440C08111104041800000000D9
:10463D00000000003CFCF41010F4FC3C00000000F5
:10464D00000030303C3D050707053D3C3030000093
:10465D00000E0C1838F030F6F630F038180C0E004D
:10466D002020382E3E27393F3F39273E2E38202037
:10467D0000000C0CE030188B8B1830E00C0C000097
:10468D000000203C27382021212038273C20000025
:10469D0000000000808080F0F0808080000000002D
:1046AD00000000000101010F0F01010100000000D9
:1046BD0000000000000000000000000000000000ED
:1046CD0000000000000000000000000000000000DD
:105AAF000152020156060157020168070169000100
:105ABF006602015A07015C00015802015B07015D94
:105ACF0000015902015E00016500016002015F00E3
:105ADF000121000164010161000162000163000105
:0B5AEF00530201540401550601670337
:0F644A00125EDF1262BE126012126219025DE36F
:103E1E00E4F561F562755F02AF5F125EAE75530237
:103E2E00125C17AF681256FDEF4E6038AF6812562F
:103E3E00FDC3E5539FF553D3648094805026125DE5
:103E4E00380565AF651262A00560AF60125E4CE585
:103E5E0065D3957240368565727B007A0079721251
:103E6E0057B68028E5687011125D711567AF67123D
:103E7E005E7DE56770160240EE1568E568B40303D3
:103E8E007566017FD07E071261218094155FAF5F4A
:103E9E00125EAE1262BE755302755402E561707108
:103EAE00125C17AF681256FDEF4E6039AF681256AE
:103EBE00FDC3E5539FF553D3648094805027125D64
:103ECE00380565AF651262A00560AF60125E4CE505
:103EDE0065D39572400C8565727B007A00797212FB
:103EEE0057B6756101E568701EE561701A125D7155
:103EFE001567AF67125E7DD3E567648094805004CA
:103F0E00E40240EE7561011568E568B40303756659
:103F1E00017FD07E07126121E5626003023FBDE59D
:103F2E005A14FFE568C39F4009E56164016003020E
:103F3E003FBDAD5AAF58125C1BAF5A1256FDEF4E35
:103F4E00603DAF5A1256FDC3E5549FF554D36480BD
:103F5E009480502BAD5AAF58125D3C0565AF65127B
:103F6E0062A00560AF60125E4CE565D39572400CA1
:103F7E008565727B007A0079721257B6756201E51B
:103F8E005A7022E562701EAD5AAF58125D751567F4
:103F9E00AF67125E7DD3E567648094805004E402BF
:103FAE0040EE756201155AE55AB403037558017F48
:103FBE00D07E07126121E56164016003023EAAE52D
:103FCE006264016003023EAA155FAF5F125EAE121D
:103FDE0062BE755302755402E4F561F562E56170D7
:103FEE0071125C17AF681256FDEF4E6039AF681252
:103FFE0056FDC3E5539FF553D3648094805027122A
:10400E005D380565AF651262A00560AF60125E4C4B
:10401E00E565D39572400C8565727B007A007972E6
:10402E001257B6756101E568701EE561701A125D72
:10403E00711567AF67125E7DD3E56764809480501B
:10404E0004E40240EE7561011568E568B40303757A
:10405E0066017FE87E03126121E56260030241057D
:10406E00E55A14FFE568C39F4009E56164016003EA
:10407E00024105AD5AAF58125C1BAF5A1256FDEFF6
:10408E004E603DAF5A1256FDC3E5549FF554D364AE
:10409E00809480502BAD5AAF58125D3C0565AF65CC
:1040AE001262A00560AF60125E4CE565D39572405A
:1040BE000C8565727B007A0079721257B6756201B3
:1040CE00E55A7029E5627025AD5AAF58125D751527
:1040DE0067AF67125E7DD3E56764809480500BE412
:1040EE00F565AF651262A0025F3C756201155AE577
:1040FE005AB403037558017FE87E03126121E5610E
:10410E0064016003023FEBE56264016003023FEB72
:10411E00AF651262A0D3E567648094804003125F9E
:02412E000E225F
:10413000E4F561F562755F02AF5F125EAE75530222
:10414000755402E5617070125C17AF681256FDEF8E
:104150004E6039AF681256FDC3E5539FF553D364E3
:104160008094805027125D380565AF651262A00506
:1041700060AF60125E4CE565D39573400C85657346
:104180007B007A0079721257B6756101E568701D7F
:10419000E5617019125D711567AF67125E7DD3E539
:1041A0006764809480500302435C7561011568E583
:1041B00068B403037566017FDC7E05126121E56248
:1041C0006003024251E55A14FFE568C39F4006E5CB
:1041D000616401707CAD5AAF58125C1BAF5A125625
:1041E000FDEF4E603DAF5A1256FDC3E5549FF554A6
:1041F000D364809480502BAD5AAF58125D3C056556
:10420000AF651262A00560AF60125E4CE565D395A4
:1042100073400C8565737B007A0079721257B6750E
:104220006201E55A7021E562701DAD5AAF58125D0A
:10423000751567AF67125E7DD3E567648094805023
:104240000302435C756201155AE55AB403037558BD
:10425000017FDC7E05126121E5616401600302419A
:1042600043E56264016003024143155FAF5F125E84
:10427000AE1262BE755304125C62AF681256FDEF57
:104280004E6038AF681256FDC3E5539FF553D364B3
:104290008094805026125D380565AF651262A005D6
:1042A00060AF60125E4CE565D395734036856573EB
:1042B0007B007A0079721257B68028E56870111277
:1042C0005D711567AF67125E7DE56770160243FB8F
:1042D0001568E568B403037566017FD07E07126137
:1042E000218094155FAF5F125EAE1262BE755304FB
:1042F000755404E4F561F562E5617071125C62AFBA
:10430000681256FDEF4E6039AF681256FDC3E55393
:104310009FF553D3648094805027125D380565AFB4
:10432000651262A00560AF60125E4CE565D39573BF
:10433000400C8565737B007A0079721257B67561FF
:1043400001E568701EE561701A125D711567AF674F
:10435000125E7DD3E567648094805004E40243FBE1
:104360007561011568E568B403037566017FDC7E3D
:1043700005126121E5626003024412E55A14FFE56B
:1043800068C39F4009E56164016003024412AD5AAD
:10439000AF58125C66AF5A1256FDEF4E603DAF5AF1
:1043A0001256FDC3E5549FF554D364809480502B7E
:1043B000AD5AAF58125D3C0565AF651262A005604D
:1043C000AF60125E4CE565D39573400C8565737BD9
:1043D000007A0079721257B6756201E55A7029E5C4
:1043E000627025AD5AAF58125D751567AF67125EE2
:1043F0007DD3E56764809480500BE4F565AF65126A
:1044000062A0025F3C756201155AE55AB403037558
:1044100058017FDC7E05126121E5616401600302C1
:1044200042F8E562640160030242F8AF651262A0DF
:0D443000D3E567648094804003125F0E2284
:10389900E4F561F562755F03AF5F125EAE755302C1
:1038A900755402E5616003023970E569D3940450E7
:1038B90046AF69125F97125B78EF4E6034125B78FE
:1038C900C3E5539FF553D3648094805024125D3827
:1038D9000565AF651262A00560AF60125E4CE565D3
:1038E900D39574400C8565747B007A007972125700
:1038F900B6056905698070125C17AF681256FDEF4D
:103909004E6039AF681256FDC3E5539FF553D36432
:103919008094805027125D380565AF651262A00555
:1039290060AF60125E4CE565D39574400C85657493
:103939007B007A0079721257B6756101E568701DCE
:10394900E5617019125D711567AF67125E7DD3E588
:1039590067648094805003023DED7561011568E547
:1039690068B403037566017FDC7E05126121E56297
:103979006003023A0AE55A14FFE568C39F4006E569
:10398900616401707CAD5AAF58125C1BAF5A125674
:10399900FDEF4E603DAF5A1256FDC3E5549FF554F5
:1039A900D364809480502BAD5AAF58125D3C0565A5
:1039B900AF651262A00560AF60125E4CE565D395F4
:1039C90074400C8565747B007A0079721257B6755C
:1039D9006201E55A7021E562701DAD5AAF58125D5A
:1039E900751567AF67125E7DD3E567648094805073
:1039F90003023DED756201155AE55AB40303755882
:103A0900017FDC7E05126121E561640160030238F2
:103A1900ACE562640160030238AC155FAF5F125E0A
:103A2900AE1262BE755304755404E4F561F562E59E
:103A3900616003023AFCE569D394045046AF691208
:103A49005FC0125B78EF4E6034125B78C3E5539F19
:103A5900F553D3648094805024125D380565AF65B1
:103A69001262A00560AF60125E4CE565D3957440A3
:103A79000C8565747B007A0079721257B605690561
:103A8900698070125C62AF681256FDEF4E6039AF03
:103A9900681256FDC3E5539FF553D3648094805053
:103AA90027125D380565AF651262A00560AF601227
:103AB9005E4CE565D39574400C8565747B007A008E
:103AC90079721257B6756101E568701DE561701963
:103AD900125D711567AF67125E7DD3E567648094E7
:103AE900805003023DED7561011568E568B4030373
:103AF9007566017FDC7E05126121E5626003023B88
:103B090096E55A14FFE568C39F4006E561640170B4
:103B19007CAD5AAF58125C66AF5A1256FDEF4E6033
:103B29003DAF5A1256FDC3E5549FF554D3648094B2
:103B390080502BAD5AAF58125D3C0565AF651262D6
:103B4900A00560AF60125E4CE565D39574400C85A5
:103B590065747B007A0079721257B6756201E55A6D
:103B69007021E562701DAD5AAF58125D751567AFCA
:103B790067125E7DD3E567648094805003023DED52
:103B8900756201155AE55AB403037558017FDC7E45
:103B990005126121E56164016003023A38E5626456
:103BA900016003023A38155FAF5F125EAE1262BE62
:103BB900755304755404E4F561F562E56160030227
:103BC9003C88E569D394045046AF69125FC0125B23
:103BD90078EF4E6034125B78C3E5539FF553D36495
:103BE9008094805024125D380565AF651262A00586
:103BF90060AF60125E4CE565D39574400C856574C1
:103C09007B007A0079721257B605690569807012CE
:103C19005C62AF681256FDEF4E6039AF681256FD0F
:103C2900C3E5539FF553D3648094805027125D38C0
:103C39000565AF651262A00560AF60125E4CE5656F
:103C4900D39574400C8565747B007A00797212579C
:103C5900B6756101E568701DE5617019125D711530
:103C690067AF67125E7DD3E5676480948050030275
:103C79003DED7561011568E568B403037566017F5B
:103C8900E87E03126121E5626003023D22E55A14D0
:103C9900FFE568C39F4006E5616401707CAD5AAFDA
:103CA90058125C66AF5A1256FDEF4E603DAF5A127C
:103CB90056FDC3E5549FF554D364809480502BADD1
:103CC9005AAF58125D3C0565AF651262A00560AF39
:103CD90060125E4CE565D39574400C8565747B0074
:103CE9007A0079721257B6756201E55A7021E56258
:103CF900701DAD5AAF58125D751567AF67125E7DBD
:103D0900D3E567648094805003023DED7562011527
:103D19005AE55AB403037558017FE87E03126121FD
:103D2900E56164016003023BC4E56264016003026A
:103D39003BC4155FAF5F125EAE1262BE755306E5F6
:103D490069D394045044AF69125FE9125B78EF4E6E
:103D59006032125B78C3E5539FF553D36480948036
:103D69005022125D380565AF651262A00560AF602B
:103D7900125E4CAF651262A0E565D39574500302DB
:103D89003E0C803C05690569806F125CADAF681215
:103D990056FDEF4E6038AF681256FDC3E5539FF5E7
:103DA90053D3648094805026125D380565AF65123F
:103DB90062A00560AF60125E4CE565D3957440431F
:103DC9008565747B007A0079721257B68035E5688B
:103DD900701D15671567AF67125E7DD3E56764804F
:103DE9009480501FE4F565AF651262A0025F3C152F
:103DF90068E568B403037566017FD07E0712612107
:103E0900023D48AF651262A0D3E5676480948040A3
:053E190003125F0E2200
:10285800E4F561F562F563755F04AF5F125EAE750E
:102868005302755402E56160030228FDE569D394BB
:1028780004502CAF69125F97125B78EF4E601A1202
:102888005B78C3E5539FF553D364809480500A1254
:102898005D380560AF60125E4C05690569805612A7
:1028A8005C17AF681256FDEF4E601FAF681256FDF9
:1028B800C3E5539FF553D364809480500D125D385F
:1028C8000560AF60125E4C756102E568701DE561D8
:1028D8007019125D711567AF67125E7DD3E5676485
:1028E80080948050030230967561011568E568B4DC
:1028F80003037566017FE87E03126121E56270704B
:10290800E55A14FFE568C39F4004E5616062AD5A6B
:10291800AF58125C1BAF5A1256FDEF4E6023AF5AE8
:102928001256FDC3E5549FF554D36480948050112A
:10293800AD5AAF58125D3C0560AF60125E4C7562CF
:1029480002E55A7021E562701DAD5AAF58125D75E7
:102958001567AF67125E7DD3E56764809480500386
:10296800023096756201155AE55AB4030375580189
:102978007FE87E03126121E561B40221E562B402B9
:102988001C0565AF651262A0E565D39575401C8589
:1029980065757B007A0079721257B6800EE5617012
:1029A8000302286DE562700302286D155FAF5F12A0
:1029B8005EAE1262BE755304755404E4F561F562A7
:1029C800E5616003022A5BE569D39404502FAF697F
:1029D800125FC0125B78EF4E601D125B78C3E5533F
:1029E8009FF553D364809480500D125D380560AF15
:1029F80060125E4C756102056905698056125C6259
:102A0800AF681256FDEF4E601FAF681256FDC3E562
:102A1800539FF553D364809480500D125D38056040
:102A2800AF60125E4C756102E568701DE561701952
:102A3800125D711567AF67125E7DD3E56764809498
:102A48008050030230967561011568E568B4030388
:102A58007566017FDC7E05126121E5627070E55ABA
:102A680014FFE568C39F4004E5616062AD5AAF5842
:102A7800125C66AF5A1256FDEF4E6023AF5A1256DB
:102A8800FDC3E5549FF554D3648094805011AD5A2A
:102A9800AF58125D3C0560AF60125E4C756202E58E
:102AA8005A7021E562701DAD5AAF58125D751567F1
:102AB800AF67125E7DD3E56764809480500302306F
:102AC80096756201155AE55AB403037558017FDCFF
:102AD8007E05126121E561B40221E562B4021C059C
:102AE80065AF651262A0E565D39575401C8565756F
:102AF8007B007A0079721257B6800EE56170030286
:102B080029C8E56270030229C8155FAF5F125EAE7F
:102B18001262BE755304755404755504E4F561F5E5
:102B280062F563E5616003022BBEE569D394045046
:102B38002FAF69125FC0125B78EF4E601D125B7891
:102B4800C3E5539FF553D364809480500D125D38CC
:102B58000560AF60125E4C756102056905698056B3
:102B6800125C62AF681256FDEF4E601FAF681256D6
:102B7800FDC3E5539FF553D364809480500D125DD7
:102B8800380560AF60125E4C756102E568701DE53E
:102B9800617019125D711567AF67125E7DD3E567C5
:102BA8006480948050030230967561011568E56869
:102BB800B403037566017FDC7E05126121E562704E
:102BC80070E55A14FFE568C39F4004E5616062AD93
:102BD8005AAF58125C66AF5A1256FDEF4E6023AFDB
:102BE8005A1256FDC3E5549FF554D364809480501F
:102BF80011AD5AAF58125D3C0560AF60125E4C755E
:102C08006202E55A7021E562701DAD5AAF58125D37
:102C1800751567AF67125E7DD3E567648094805051
:102C280003023096756201155AE55AB403037558C4
:102C3800017FDC7E05126121E5637070E55B14FF9E
:102C4800E55AC39F4004E5626062AD5BAF59125C10
:102C580066AF5B1256FDEF4E6023AF5B1256FDC3A5
:102C6800E5559FF555D3648094805011AD5BAF59FD
:102C7800125D3C0560AF60125E4C756302E55B70E7
:102C880021E563701DAD5BAF59125D751567AF67C0
:102C9800125E7DD3E5676480948050030230967598
:102CA8006301155BE55BB403037559017FDC7E05A1
:102CB800126121E56164027026E562B40221E563D0
:102CC800B4021C0565AF651262A0E565D395754031
:102CD800238565757B007A0079721257B68015E5F1
:102CE800617003022B2BE5627003022B2BE56370E6
:102CF80003022B2B155FAF5F125EAE1262BE7553D7
:102D080004755404755504E4F561F562F563E561ED
:102D18006003022DDAE569D394045046AF69125F67
:102D2800C0125B78EF4E6034125B78C3E5539FF5B1
:102D380053D3648094805024125D380565AF6512C2
:102D480062A00560AF60125E4CE565D39575400CD6
:102D58008565757B007A0079721257B60569056931
:102D68008070125C62AF681256FDEF4E6039AF6832
:102D78001256FDC3E5539FF553D3648094805027C2
:102D8800125D380565AF651262A00560AF60125E1E
:102D98004CE565D39575400C8565757B007A00799F
:102DA800721257B6756101E568701DE561701912F8
:102DB8005D711567AF67125E7DD3E56764809480A7
:102DC80050030230967561011568E568B403037510
:102DD80066017FE87E03126121E5626003022E74BA
:102DE800E55A14FFE568C39F4006E5616401707CFD
:102DF800AD5AAF58125C66AF5A1256FDEF4E603DA1
:102E0800AF5A1256FDC3E5549FF554D3648094809D
:102E1800502BAD5AAF58125D3C0565AF651262A0E4
:102E28000560AF60125E4CE565D39575400C85650D
:102E3800757B007A0079721257B6756201E55A708F
:102E480021E562701DAD5AAF58125D751567AF6701
:102E5800125E7DD3E56764809480500302309675D6
:102E68006201155AE55AB403037558017FE87E03D9
:102E7800126121E5636003022F0EE55B14FFE55A3A
:102E8800C39F4006E5626401707CAD5BAF59125C7C
:102E980066AF5B1256FDEF4E603DAF5B1256FDC349
:102EA800E5559FF555D364809480502BAD5BAF59A1
:102EB800125D3C0565AF651262A00560AF60125EE9
:102EC8004CE565D39575400C8565757B007A00796E
:102ED800721257B6756301E55B7021E563701DAD2D
:102EE8005BAF59125D751567AF67125E7DD3E567F5
:102EF800648094805003023096756301155BE55B2E
:102F0800B403037559017FE87E03126121E561640A
:102F1800016003022D16E56264016003022D16E5C7
:102F28006364016003022D16155FAF5F125EAE1277
:102F380062BE755306755406E4F561F562E5616095
:102F480003023009E569D394045046AF69125FE97A
:102F5800125B78EF4E6034125B78C3E5539FF553EC
:102F6800D3648094805024125D380565AF65126281
:102F7800A00560AF60125E4CE565D39575400C8581
:102F880065757B007A0079721257B6056905698004
:102F980070125CADAF681256FDEF4E6039AF681223
:102FA80056FDC3E5539FF553D36480948050271290
:102FB8005D380565AF651262A00560AF60125E4CB2
:102FC800E565D39575400C8565757B007A00797247
:102FD8001257B6756101E568701DE5617019125DDB
:102FE800711567AF67125E7DD3E567648094805082
:102FF800030230967561011568E568B403037566C8
:10300800017FDC7E05126121E56260030230AEE5D6
:103018005A14FFE568C39F4009E561640160030233
:1030280030AEAD5AAF58125CB1AF5A1256FDEF4EE2
:10303800603DAF5A1256FDC3E5549FF554D36480E2
:103048009480502BAD5AAF58125D3C0565AF6512A0
:1030580062A00560AF60125E4CE565D39575400CC3
:103068008565757B007A0079721257B6756201E53D
:103078005A7029E5627025AD5AAF58125D7515670B
:10308800AF67125E7DD3E56764809480500BE4F5EA
:1030980065AF651262A0025F3C756201155AE55A78
:1030A800B403037558017FDC7E05126121E5616474
:1030B800016003022F45E56264016003022F45AFFA
:1030C800651262A0D3E567648094804003125F0EA6
:0130D80022D5
:101C6500755F05AF5F125EAE1262BEE4F561F562A7
:101C7500F563755302755402755502E561600302FB
:101C85001D13E569D39404502FAF69125F97125B5A
:101C950078EF4E601D125B78C3E5539FF553D3640F
:101CA500809480500D125D380560AF60125E4C75F2
:101CB5006102056905698056125C17AF681256FD09
:101CC500EF4E601FAF681256FDC3E5539FF553D322
:101CD50064809480500D125D380560AF60125E4CD3
:101CE500756102E568701DE5617019125D71156712
:101CF500AF67125E7DD3E567648094805003022749
:101D0500F27561011568E568B403037566017FE83E
:101D15007E03126121E5627070E55A14FFE568C320
:101D25009F4004E5616062AD5AAF58125C1BAF5A23
:101D35001256FDEF4E6023AF5A1256FDC3E5549F70
:101D4500F554D3648094805011AD5AAF58125D3C60
:101D55000560AF60125E4C756202E55A7021E5625E
:101D6500701DAD5AAF58125D751567AF67125E7D70
:101D7500D3E5676480948050030227F275620115EC
:101D85005AE55AB403037558017FE87E03126121B1
:101D9500E5637070E55B14FFE55AC39F4004E56297
:101DA5006062AD5BAF59125C1BAF5B1256FDEF4E27
:101DB5006023AF5B1256FDC3E5559FF555D364808F
:101DC50094805011AD5BAF59125D3C0560AF601258
:101DD5005E4C756302E55B7021E563701DAD5BAF1D
:101DE50059125D751567AF67125E7DD3E56764802F
:101DF500948050030227F2756301155BE55BB4031C
:101E0500037559017FE87E03126121E56164027063
:101E150026E562B40221E563B4021C0565AF6512CF
:101E250062A0E565D3957640238565767B007A00CB
:101E350079721257B68015E5617003021C80E56260
:101E45007003021C80E5637003021C80155FAF5FA1
:101E5500125EAE1262BEE4F561F562F5637553027A
:101E6500755402755502E5616003021EFEE569D3EE
:101E75009404502FAF69125F97125B78EF4E601D87
:101E8500125B78C3E5539FF553D364809480500D5E
:101E9500125D380560AF60125E4C7561020569051B
:101EA500698056125C17AF681256FDEF4E601FAF82
:101EB500681256FDC3E5539FF553D3648094805053
:101EC5000D125D380560AF60125E4C756102E56804
:101ED500701DE5617019125D711567AF67125E7D42
:101EE500D3E5676480948050030227F2756101157C
:101EF50068E568B403037566017FF47E011261210C
:101F0500E5627070E55A14FFE568C39F4004E5611A
:101F15006062AD5AAF58125C1BAF5A1256FDEF4EB8
:101F25006023AF5A1256FDC3E5549FF554D3648020
:101F350094805011AD5AAF58125D3C0560AF6012E8
:101F45005E4C756202E55A7021E562701DAD5AAFAF
:101F550058125D751567AF67125E7DD3E5676480BE
:101F6500948050030227F2756201155AE55AB403AD
:101F7500037558017FF47E01126121E5637070E5F8
:101F85005B14FFE55AC39F4004E5626062AD5BAF39
:101F950059125C1BAF5B1256FDEF4E6023AF5B120F
:101FA50056FDC3E5559FF555D3648094805011AD1A
:101FB5005BAF59125D3C0560AF60125E4C75630204
:101FC500E55B7021E563701DAD5BAF59125D75155D
:101FD50067AF67125E7DD3E5676480948050030226
:101FE50027F2756301155BE55BB403037559017F42
:101FF500F47E01126121E56164027026E562B40296
:1020050021E563B4021C0565AF651262A0E565D3E1
:10201500957640238565767B007A0079721257B6EE
:102025008015E5617003021E6BE5627003021E6B8D
:10203500E5637003021E6B155FAF5F125EAE126241
:10204500BEE4F561F562F563755304755404755581
:1020550004E56160030220E9E569D39404502FAFDC
:1020650069125FC0125B78EF4E601D125B78C3E5A5
:10207500539FF553D364809480500D125D380560ED
:10208500AF60125E4C756102056905698056125C88
:1020950062AF681256FDEF4E601FAF681256FDC362
:1020A500E5539FF553D364809480500D125D380538
:1020B50060AF60125E4C756102E568701DE5617088
:1020C50019125D711567AF67125E7DD3E567648090
:1020D500948050030227F27561011568E568B40321
:1020E500037566017FDC7E05126121E5627070E58E
:1020F5005A14FFE568C39F4004E5616062AD5AAFBD
:1021050058125C66AF5A1256FDEF4E6023AF5A1255
:1021150056FDC3E5549FF554D3648094805011ADAA
:102125005AAF58125D3C0560AF60125E4C75620295
:10213500E55A7021E562701DAD5AAF58125D7515EF
:1021450067AF67125E7DD3E56764809480500302B4
:1021550027F2756201155AE55AB403037558017FD4
:10216500DC7E05126121E5637070E55B14FFE55ABD
:10217500C39F4004E5626062AD5BAF59125C66AF18
:102185005B1256FDEF4E6023AF5B1256FDC3E5555E
:102195009FF555D3648094805011AD5BAF59125DA6
:1021A5003C0560AF60125E4C756302E55B7021E52E
:1021B50063601DAD5BAF59125D751567AF67125E44
:1021C5007DD3E5676480948050030227F27563012F
:1021D500155BE55BB403037559017FDC7E05126170
:1021E50021E56164027026E562B40221E563B4026B
:1021F5001C0565AF651262A0E565D395764023851C
:1022050065767B007A0079721257B68015E56170A4
:1022150003022056E5627003022056E5637003024F
:102225002056155FAF5F125EAE1262BEE4F561F532
:1022350062F563755304755404755504E5616003CF
:102245000222D4E569D39404502FAF69125FC012FE
:102255005B78EF4E601D125B78C3E5539FF553D352
:1022650064809480500D125D380560AF60125E4C3D
:10227500756102056905698056125C62AF68125680
:10228500FDEF4E601FAF681256FDC3E5539FF55332
:10229500D364809480500D125D380560AF60125E86
:1022A5004C756102E568701DE5617019125D711567
:1022B50067AF67125E7DD3E5676480948050030243
:1022C50027F27561011568E568B403037566017F3A
:1022D500E87E03126121E5627070E55A14FFE56836
:1022E500C39F4004E5616062AD5AAF58125C66AFAA
:1022F5005A1256FDEF4E6023AF5A1256FDC3E554F0
:102305009FF554D3648094805011AD5AAF58125D37
:102315003C0560AF60125E4C756202E55A7021E5BE
:1023250062701DAD5AAF58125D751567AF67125EC5
:102335007DD3E5676480948050030227F2756201BE
:10234500155AE55AB403037558017FE87E031261F7
:1023550021E5637070E55B14FFE55AC39F4004E512
:10236500626062AD5BAF59125C66AF5B1256FDEF02
:102375004E6023AF5B1256FDC3E5559FF555D364FB
:102385008094805011AD5BAF59125D3C0560AF6024
:10239500125E4C756302E55B7021E563701DAD5BF4
:1023A500AF59125D751567AF67125E7DD3E567643A
:1023B50080948050030227F2756301155BE55BB4D9
:1023C50003037559017FE87E03126121E56164020B
:1023D5007026E562B40221E563B4021C0565AF65AC
:1023E5001262A0E565D3957640238565767B007AF4
:1023F5000079721257B68015E5617003022241E536
:10240500627003022241E5637003022241155FAF4A
:102415005F125EAE1262BEE4F561F562F563755357
:1024250004755404755504E56160030224BFE5692C
:10243500D39404502FAF69125FC0125B78EF4E60E2
:102445001D125B78C3E5539FF553D3648094805088
:102455000D125D380560AF60125E4C75610205694D
:1024650005698056125C62AF681256FDEF4E601F1B
:10247500AF681256FDC3E5539FF553D3648094802E
:10248500500D125D380560AF60125E4C756102E556
:1024950068701DE5617019125D711567AF67125E91
:1024A5007DD3E5676480948050030227F27561014E
:1024B5001568E568B403037566017FF47E01126152
:1024C50021E5627070E55A14FFE568C39F4004E595
:1024D500616062AD5AAF58125C66AF5A1256FDEF95
:1024E5004E6023AF5A1256FDC3E5549FF554D3648D
:1024F5008094805011AD5AAF58125D3C0560AF60B5
:10250500125E4C756202E55A7021E562701DAD5A86
:10251500AF58125D751567AF67125E7DD3E56764C9
:1025250080948050030227F2756201155AE55AB46A
:1025350003037558017FF47E01126121E563707014
:10254500E55B14FFE55AC39F4004E5626062AD5B3D
:10255500AF59125C66AF5B1256FDEF4E6023AF5B61
:102565001256FDC3E5559FF555D3648094805011EF
:10257500AD5BAF59125D3C0560AF60125E4C756393
:1025850002E55B7021E563701DAD5BAF59125D75AA
:102595001567AF67125E7DD3E5676480948050034D
:1025A5000227F2756301155BE55BB40303755901F9
:1025B5007FF47E01126121E56164027026E562B453
:1025C5000221E563B4021C0565AF651262A0E565ED
:1025D500D3957640238565767B007A00797212570C
:1025E500B68015E561700302242CE56270030224B0
:1025F5002CE563700302242C155FAF5F125EAE12EB
:1026050062BEE4F561F562F56375530675540675AA
:102615005506E56160030226CBE569D3940450367F
:10262500AF69125FE9125B78EF4E6024125B78C3E5
:10263500E5539FF553D3648094805014125D38059B
:1026450065AF651262A00560AF60125E4C756102F0
:10265500056905698070125CADAF681256FDEF4ED5
:102665006039AF681256FDC3E5539FF553D36480B7
:1026750094805027125D380565AF651262A005602C
:10268500AF60125E4CE565D39576400C8565767B2B
:10269500007A0079721257B6756101E568701DE51B
:1026A500617019125D711567AF67125E7DD3E567BD
:1026B5006480948050030227F27561011568E5680E
:1026C500B403037566017FE87E03126121E562604C
:1026D50003022765E55A14FFE568C39F4006E561D7
:1026E5006401707CAD5AAF58125CB1AF5A1256FDF9
:1026F500EF4E603DAF5A1256FDC3E5549FF554D3D6
:1027050064809480502BAD5AAF58125D3C0565AF7F
:10271500651262A00560AF60125E4CE565D39576E3
:10272500400C8565767B007A0079721257B6756222
:1027350001E55A7021E562701DAD5AAF58125D75FD
:102745001567AF67125E7DD3E5676480948050039B
:102755000227F2756201155AE55AB403037558014B
:102765007FE87E03126121E563600302280AE55BC9
:1027750014FFE55AC39F4009E5626401600302281E
:102785000AAD5BAF59125CB1AF5B1256FDEF4E60FF
:102795003DAF5B1256FDC3E5559FF555D364809457
:1027A50080502BAD5BAF59125D3C0565AF6512627C
:1027B500A00560AF60125E4CE565D39576400C854B
:1027C50065767B007A0079721257B6756301E55B11
:1027D5007029E5637025AD5BAF59125D751567AF5F
:1027E50067125E7DD3E56764809480500BE4F565E0
:1027F500AF651262A0025F3C756301155BE55BB4D2
:1028050003037559017FE87E03126121E5616401C7
:102815006003022617E56264016003022617E5637B
:1028250064016003022617155FAF5F125EAE126288
:10283500BEE4F561F562F563755306755406755585
:1028450006AF651262A0D3E56764809480400312E9
:032855005F0E22F1
:10000E00755F07AF5F125EAE1262BEE4F561F56218
:10001E00F563755302755402755502E5616003026E
:10002E0000BCE569D39404502FAF69125F97125B41
:10003E0078EF4E601D125B78C3E5539FF553D36482
:10004E00809480500D125D380560AF60125E4C7565
:10005E006102056905698056125C17AF681256FD7C
:10006E00EF4E601FAF681256FDC3E5539FF553D395
:10007E0064809480500D125D380560AF60125E4C46
:10008E00756102E568701DE5617019125D71156785
:10009E00AF67125E7DD3E567648094805003020FD4
:1000AE00117561011568E568B403037566017FE893
:1000BE007E03126121E5627070E55A14FFE568C394
:1000CE009F4004E5616062AD5AAF58125C1BAF5A97
:1000DE001256FDEF4E6023AF5A1256FDC3E5549FE4
:1000EE00F554D3648094805011AD5AAF58125D3CD4
:1000FE000560AF60125E4C756202E55A7021E562D2
:10010E00701DAD5AAF58125D751567AF67125E7DE3
:10011E00D3E567648094805003020F117562011558
:10012E005AE55AB403037558017FE87E0312612124
:10013E00E5637070E55B14FFE55AC39F4004E5620A
:10014E006062AD5BAF59125C1BAF5B1256FDEF4E9A
:10015E006023AF5B1256FDC3E5559FF555D3648002
:10016E0094805011AD5BAF59125D3C0560AF6012CB
:10017E005E4C756302E55B7021E563701DAD5BAF90
:10018E0059125D751567AF67125E7DD3E5676480A2
:10019E0094805003020F11756301155BE55BB40388
:1001AE00037559017FE87E03126121E561640270D7
:1001BE0026E562B40221E563B4021C0565AF651243
:1001CE0062A0E565D3957740238565777B007A003D
:1001DE0079721257B68015E5617003020029E56247
:1001EE007003020029E5637003020029155FAF5FFB
:1001FE00125EAE1262BEE4F561F562F563755302EE
:10020E00755402755502E56160030202A7E569D3D4
:10021E009404502FAF69125F97125B78EF4E601DFA
:10022E00125B78C3E5539FF553D364809480500DD1
:10023E00125D380560AF60125E4C7561020569058E
:10024E00698056125C17AF681256FDEF4E601FAFF5
:10025E00681256FDC3E5539FF553D36480948050C6
:10026E000D125D380560AF60125E4C756102E56877
:10027E00701DE5617019125D711567AF67125E7DB5
:10028E00D3E567648094805003020F1175610115E8
:10029E0068E568B403037566017FF47E011261217F
:1002AE00E5627070E55A14FFE568C39F4004E5618E
:1002BE006062AD5AAF58125C1BAF5A1256FDEF4E2C
:1002CE006023AF5A1256FDC3E5549FF554D3648094
:1002DE0094805011AD5AAF58125D3C0560AF60125C
:1002EE005E4C756202E55A7021E562701DAD5AAF23
:1002FE0058125D751567AF67125E7DD3E567648032
:10030E0094805003020F11756201155AE55AB40319
:10031E00037558017FF47E01126121E5637070E56B
:10032E005B14FFE55AC39F4004E5626062AD5BAFAC
:10033E0059125C1BAF5B1256FDEF4E6023AF5B1282
:10034E0056FDC3E5559FF555D3648094805011AD8D
:10035E005BAF59125D3C0560AF60125E4C75630277
:10036E00E55B7021E563701DAD5BAF59125D7515D0
:10037E0067AF67125E7DD3E5676480948050030299
:10038E000F11756301155BE55BB403037559017FAE
:10039E00F47E01126121E56164027026E562B40209
:1003AE0021E563B4021C0565AF651262A0E565D355
:1003BE00957740238565777B007A0079721257B660
:1003CE008015E5617003020214E5627003020214E7
:1003DE00E5637003020214155FAF5F125EAE126228
:1003EE00BEE4F561F562F5637553047554047555F5
:1003FE0004E5616003020492E569D39404502FAFC3
:10040E0069125FC0125B78EF4E601D125B78C3E518
:10041E00539FF553D364809480500D125D38056060
:10042E00AF60125E4C756102056905698056125CFB
:10043E0062AF681256FDEF4E601FAF681256FDC3D5
:10044E00E5539FF553D364809480500D125D3805AB
:10045E0060AF60125E4C756102E568701DE56170FB
:10046E0019125D711567AF67125E7DD3E567648003
:10047E0094805003020F117561011568E568B4038D
:10048E00037566017FE87E03126121E5627070E5F7
:10049E005A14FFE568C39F4004E5616062AD5AAF30
:1004AE0058125C66AF5A1256FDEF4E6023AF5A12C9
:1004BE0056FDC3E5549FF554D3648094805011AD1E
:1004CE005AAF58125D3C0560AF60125E4C75620209
:1004DE00E55A7021E562701DAD5AAF58125D751563
:1004EE0067AF67125E7DD3E5676480948050030228
:1004FE000F11756201155AE55AB403037558017F41
:10050E00E87E03126121E5637070E55B14FFE55A26
:10051E00C39F4004E5626062AD5BAF59125C66AF8B
:10052E005B1256FDEF4E6023AF5B1256FDC3E555D1
:10053E009FF555D3648094805011AD5BAF59125D19
:10054E003C0560AF60125E4C756302E55B7021E5A1
:10055E0063701DAD5BAF59125D751567AF67125EA7
:10056E007DD3E567648094805003020F117563019B
:10057E00155BE55BB403037559017FE87E031261D9
:10058E0021E56164027026E562B40221E563B402DE
:10059E001C0565AF651262A0E565D395774023858E
:1005AE0065777B007A0079721257B68015E5617017
:1005BE00030203FFE56270030203FFE563700302AB
:1005CE0003FF155FAF5F125EAE1262BEE4F561F51A
:1005DE0062F563755304755404755504E561600343
:1005EE00020680E569D394045032AF69125FC012DF
:1005FE005B78EF4E6020125B78C3E5539FF553D3C3
:10060E0064809480500D125D380560AF60125E4CB0
:10061E00756102756102056905698056125C62AFEB
:10062E00681256FDEF4E601FAF681256FDC3E553BC
:10063E009FF553D364809480500D125D380560AFE2
:10064E0060125E4C756102E568701DE561701912ED
:10065E005D711567AF67125E7DD3E5676480948028
:10066E005003020F117561011568E568B403037537
:10067E0066017FF47E01126121E5627070E55A1405
:10068E00FFE568C39F4004E5616062AD5AAF581242
:10069E005C66AF5A1256FDEF4E6023AF5A1256FDEE
:1006AE00C3E5549FF554D3648094805011AD5AAF76
:1006BE0058125D3C0560AF60125E4C756202E55AE1
:1006CE007021E562701DAD5AAF58125D751567AF9A
:1006DE0067125E7DD3E567648094805003020F112C
:1006EE00756201155AE55AB403037558017FF47EFD
:1006FE0001126121E5637070E55B14FFE55AC39F3B
:10070E004004E5626062AD5BAF59125C66AF5B128E
:10071E0056FDEF4E6023AF5B1256FDC3E5559FF5B8
:10072E0055D3648094805011AD5BAF59125D3C057A
:10073E0060AF60125E4C756302E55B7021E563701D
:10074E001DAD5BAF59125D751567AF67125E7DD338
:10075E00E567648094805003020F11756301155B89
:10076E00E55BB403037559017FF47E01126121E547
:10077E006164027026E562B40221E563B4021C05D1
:10078E0065AF651262A0E565D395774023856577E1
:10079E007B007A0079721257B68015E561700302FC
:1007AE0005EAE56270030205EAE56370030205EAF5
:1007BE00155FAF5F125EAE1262BEE4F561F562F5D3
:1007CE0063755304755404755504E561600302089E
:1007DE006BE569D39404502FAF69125FC0125B783A
:1007EE00EF4E601D125B78C3E5539FF553D36480C3
:1007FE009480500D125D380560AF60125E4C7561CD
:10080E0002056905698056125C62AF681256FDEFEB
:10081E004E601FAF681256FDC3E5539FF553D36468
:10082E00809480500D125D380560AF60125E4C757D
:10083E006102E568701DE5617019125D711567AF93
:10084E0067125E7DD3E567648094805003020F11BA
:10085E007561011568E568B403037566017FF47E62
:10086E0001126121E5627070E55A14FFE568C39FBD
:10087E004004E5616062AD5AAF58125C66AF5A1221
:10088E0056FDEF4E6023AF5A1256FDC3E5549FF549
:10089E0054D3648094805011AD5AAF58125D3C050C
:1008AE0060AF60125E4C756202E55A7021E56270AF
:1008BE001DAD5AAF58125D751567AF67125E7DD3C9
:1008CE00E567648094805003020F11756201155A1A
:1008DE00E55AB403037558017FF47E01126121E5D8
:1008EE00637070E55B14FFE55AC39F4004E56260D8
:1008FE0062AD5BAF59125C66AF5B1256FDEF4E6098
:10090E0023AF5B1256FDC3E5559FF555D364809416
:10091E00805011AD5BAF59125D3C0560AF60125E49
:10092E004C756302E55B7021E563701DAD5BAF59DD
:10093E00125D751567AF67125E7DD3E567648094AF
:10094E00805003020F11756301155BE55BB4030361
:10095E007559017FF47E01126121E56164027026F2
:10096E00E562B40221E563B4021C0565AF6512624F
:10097E00A0E565D3957740238565777B007A00796E
:10098E00721257B68015E56170030207D8E56270E2
:10099E00030207D8E56370030207D8155FAF5F1235
:1009AE005EAE1262BEE4F561F562F56375530475D1
:1009BE005404755504E5616003020A56E569D39443
:1009CE0004502FAF69125FC0125B78EF4E601D129C
:1009DE005B78C3E5539FF553D364809480500D121A
:1009EE005D380560AF60125E4C7561020569056980
:1009FE008056125C62AF681256FDEF4E601FAF68F4
:100A0E001256FDC3E5539FF553D364809480500D69
:100A1E00125D380560AF60125E4C756102E568705C
:100A2E001DE5617019125D711567AF67125E7DD39A
:100A3E00E567648094805003020F1175610115689B
:100A4E00E568B403037566017FFA7E00126121E545
:100A5E00627070E55A14FFE568C39F4004E561605B
:100A6E0062AD5AAF58125C66AF5A1256FDEF4E6029
:100A7E0023AF5A1256FDC3E5549FF554D3648094A8
:100A8E00805011AD5AAF58125D3C0560AF60125EDA
:100A9E004C756202E55A7021E562701DAD5AAF5871
:100AAE00125D751567AF67125E7DD3E5676480943E
:100ABE00805003020F11756201155AE55AB40303F3
:100ACE007558017FFA7E00126121E5637070E55B57
:100ADE0014FFE55AC39F4004E5626062AD5BAF59F7
:100AEE00125C66AF5B1256FDEF4E6023AF5B125683
:100AFE00FDC3E5559FF555D3648094805011AD5BD1
:100B0E00AF59125D3C0560AF60125E4C756302E535
:100B1E005B7021E563701DAD5BAF59125D75156796
:100B2E00AF67125E7DD3E567648094805003020F39
:100B3E0011756301155BE55BB403037559017FFA0B
:100B4E007E00126121E56164027026E562B4022125
:100B5E00E563B4021C0565AF651262A0E565D39529
:100B6E007740238565777B007A0079721257B680BD
:100B7E0015E56170030209C3E56270030209C3E55E
:100B8E006370030209C3155FAF5F125EAE1262BEE1
:100B9E00E4F561F562F563755306755406755506F1
:100BAE00E5616003020C41E569D39404502FAF69EF
:100BBE00125FE9125B78EF4E601D125B78C3E5534E
:100BCE009FF553D364809480500D125D380560AF4D
:100BDE0060125E4C756102056905698056125CAD46
:100BEE00AF681256FDEF4E601FAF681256FDC3E59B
:100BFE00539FF553D364809480500D125D38056079
:100C0E00AF60125E4C756102E568701DE56170198A
:100C1E00125D711567AF67125E7DD3E567648094D0
:100C2E00805003020F117561011568E568B4030366
:100C3E007566017FE87E03126121E5627070E55AE8
:100C4E0014FFE568C39F4004E5616062AD5AAF587A
:100C5E00125CB1AF5A1256FDEF4E6023AF5A1256C8
:100C6E00FDC3E5549FF554D3648094805011AD5A62
:100C7E00AF58125D3C0560AF60125E4C756202E5C6
:100C8E005A7021E562701DAD5AAF58125D75156729
:100C9E00AF67125E7DD3E567648094805003020FC8
:100CAE0011756201155AE55AB403037558017FE8B0
:100CBE007E03126121E5637070E55B14FFE55AC394
:100CCE009F4004E5626062AD5BAF59125CB1AF5BF1
:100CDE001256FDEF4E6023AF5B1256FDC3E5559FD6
:100CEE00F555D3648094805011AD5BAF59125D3CC5
:100CFE000560AF60125E4C756302E55B7021E563C3
:100D0E00701DAD5BAF59125D751567AF67125E7DD5
:100D1E00D3E567648094805003020F11756301154B
:100D2E005BE55BB403037559017FE87E0312612115
:100D3E00E56164027026E562B40221E563B4021C2B
:100D4E000565AF651262A0E565D39577402385658D
:100D5E00777B007A0079721257B68015E5617003C1
:100D6E00020BAEE5627003020BAEE5637003020B7D
:100D7E00AE155FAF5F125EAE1262BEE4F561F56254
:100D8E00F563755306755406755506E561600302E5
:100D9E000E2CE569D39404502FAF69125FE9125BF4
:100DAE0078EF4E601D125B78C3E5539FF553D36405
:100DBE00809480500D125D380560AF60125E4C75E8
:100DCE006102056905698056125CADAF681256FD69
:100DDE00EF4E601FAF681256FDC3E5539FF553D318
:100DEE0064809480500D125D380560AF60125E4CC9
:100DFE00756102E568701DE5617019125D71156708
:100E0E00AF67125E7DD3E567648094805003020F56
:100E1E00117561011568E568B403037566017FF409
:100E2E007E01126121E562706FE55A14FFE568C319
:100E3E009F4004E5616061AD5AAF58125CB1AF5A84
:100E4E001256FDEF4E6023AF5A1256FDC3E5549F66
:100E5E00F554D3648094805011AD5AAF58125D3C56
:100E6E000560AF60125E4C756202E55A7020E56255
:100E7E00701CAD5AAF58125D751567AF67125E7D67
:100E8E00D3E5676480948050028078756201155AAC
:100E9E00E55AB403037558017FF47E01126121E512
:100EAE00637078E55B14FFE55AC39F4004E562600A
:100EBE006AAD5BAF59125CB1AF5B1256FDEF4E607F
:100ECE0023AF5B1256FDC3E5559FF555D364809451
:100EDE00805011AD5BAF59125D3C0560AF60125E84
:100EEE004C756302E55B7029E5637025AD5BAF5908
:100EFE00125D751567AF67125E7DD3E567648094EA
:100F0E0080500BE4F565AF651262A0025F3C75631D
:100F1E0001155BE55BB403037559017FF47E011285
:100F2E006121E56164027028E562B40223E563B4D1
:100F3E00021E05650565AF651262A0E565D395775E
:100F4E0040238565777B007A0079721257B680153B
:100F5E00E5617003020D99E5627003020D99E56378
:100F6E007003020D99AF651262A0D3E56764809499
:070F7E00804003125F0E2208
:045C1700AD68AF665F
:045C1B008F108D1148
:105C1F00E51104C454F0FB7515FF75164475175D37
:105C2F007D04125BC8E511C454F0FB7515FF7516A2
:105C3F004475173D7D04AF10125BC8E511B4031214
:105C4F007515FF75164475175D7B407D047F021235
:025C5F005BC820
:015C61002220
:025F97008F1069
:105F9900E51024FEFD7515FF75164475179D7B7078
:105FA9007F02125BC87515FF75164475177D7B70E6
:075FB900AD107F02025BC87E
:045C6200AD68AF6614
:045C66008F108D11FD
:105C6A00E51104C454F0FB7515FF7516447517DD6C
:105C7A007D04125BC8E511C454F0FB7515FF751657
:105C8A00447517BD7D04AF10125BC8E511B4031249
:105C9A007515FF7516447517DD7B407D047F02126A
:025CAA005BC8D5
:015CAC0022D5
:025FC0008F1040
:105FC200E51024FEFD7515FF75164575171D7B70CE
:105FD2007F02125BC87515FF7516447517FD7B703D
:075FE200AD107F02025BC855
:045CAD00AD68AF66C9
:045CB1008F108D11B2
:105CB500E51104C454F0FB7515FF75164575175DA0
:105CC5007D04125BC8E511C454F0FB7515FF75160C
:105CD5004575173D7D04AF10125BC8E511B403127D
:105CE5007515FF75164575175D7B407D047F02129E
:025CF5005BC88A
:015CF700228A
:025FE9008F1017
:105FEB00E51024FEFD7515FF75164575179D7B7025
:105FFB007F02125BC87515FF75164575177D7B7093
:07600B00AD107F02025BC82B
:045D3800AD68AF663D
:045D3C008F108D1126
:105D4000E511C454F0FB7515FF7516457517DD7D1B
:105D500004125BC87FE87E03126121E511C454F090
:105D6000FB7515FF7516457517BD7D04AF10025BF9
:015D7000C86A
:045D7100AD68AF6604
:045D75008F108D11ED
:105D7900E511C454F0FB7515FF75164675171D7DA1
:105D890004125BC87FE87E03126121E511C454F057
:105D9900FB7515FF7516457517FD7D04AF10025B80
:015DA900C831
:10630A00E556C454F0FB7515FF75164675173DAD75
:06631A0057AF52025BC800
:10632000E556C454F0FB7515FF75164675175DAD3F
:0663300057AF52025BC8EA
:10633600E556C454F0FB7515FF75164675177DAD09
:0663460057AF52025BC8D4
:10634C00E556C454F0FB7515FF75164675179DADD3
:06635C0057AF52025BC8BE
:10636200E556C454F0FB7515FF7516467517BDAD9D
:0663720057AF52025BC8A8
:035CF800755E01D5
:105CFB00E4FFEF25E025E02423F8E664637029EF49
:105D0B0025E025E02422F8A652EF25E025E0242308
:105D1B00F8A656EF25E025E02424F8A657EF25E05A
:0C5D2B0025E02425F8A664220FBF0CC65A
:015D37002249
:105E1800E4FFEF25E025E02422F8E66552701DEF47
:105E280025E025E02423F8E6B55611EF25E025E026
:105E38002424F8E6B557057E007F01220FBF0CD257
:035E4800E4FEFF76
:015E4B002234
:0256FD00A907FB
:1056FF00E4FFFEEE25E025E02423F8E6FD64637069
:10570F00030257AAED697057EE25E025E02425F82E
:10571F00E6FDB40113EE25E025E02424F8E6FC6451
:10572F00026004ECB406010FEDB40214EE25E0257F
:10573F00E02424F8E6FD64026004EDB406020F0FC6
:10574F00EE25E025E02425F8E6B40313EE25E02549
:10575F00E02424F8E6FD64026004EDB406010FEEC8
:10576F0025E025E02423F8E6FDE9146D600EE92419
:10577F0001FBE433FAED6B7001EA701FEE25E025B3
:10578F00E02425F8E6B40313EE25E025E02424F801
:10579F00E6FD64026004EDB406010F0EEE640C60CA
:0657AF00030257027E0018
:0157B50022D1
:045B7800AD69AF68FC
:105B7C00E4FEEE25E025E02424F8E6FC64636034C2
:105B8C00EC6D7030EE25E025E02423F8E6FCEF14F4
:105B9C006C7021EE25E025E02425F8E6FCB401022A
:105BAC00800DECB402057E007F0222E6B403057E74
:0B5BBC00007F01220EBE0CBAE4FEFFC9
:015BC70022BB
:105EDF00E4FFEF25E025E02422F87663EF25E025A7
:105EEF00E02423F87663EF25E025E02424F8766399
:0E5EFF00EF25E025E02425F8E4F60FBF0CD4D3
:015F0D002271
:105B2200E4FFEF25E025E02422F8E665527042EF1B
:105B320025E025E02423F8E665567035EF25E025BB
:105B4200E02424F8E665577028EF25E025E02422BA
:105B5200F87663EF25E025E02423F87663EF25E06D
:105B620025E02424F87663EF25E025E02425F8E4F7
:055B7200F60FBF0CADB1
:015B7700220B
:1062BE00756807E4F569756602755A07F55C7558D9
:0A62CE0002755B07F55D75590222A9
:10601200755202755606755702E4F52175640175CD
:106022006703AF67125E7D756002AF60125E4CE47B
:07603200F5657F0A0262A080
:07647800D288D2A8D2AF22A6
:0300030002492689
:10492600C0E0C0F0C083C082C0D075D000C000C057
:1049360001C002C003C004C005C006C007E55E7022
:104946000E125E18EF4E7007E5576003126362752C
:104956005E00126470BFFD10126470BFFEFA7FE83D
:104966007E03126121024B41126470EF64FE600304
:10497600024A4FE5576060125E18EF4E7059E564C3
:10498600B40114E560D39400400D12630A125CF87A
:104996001560AF60125E4CE564B40216E560C39420
:1049A60002400F126320125CF815601560AF6012AA
:1049B6005E4CE56464036003024B41E560C3940307
:1049C6005003024B41126336755E01125CFB74FDA7
:1049D6002560F560FF8054E564701F125E18EF6471
:1049E600014E7016E560D394005003024B41125BF2
:1049F600221263621560AF608031E557704BE52186
:104A060024FE602D14602F14603614602E2404607A
:104A160003024B41E560C394025003024B41056714
:104A2600AF67125E7D15601560AF60125E4C024B7B
:104A360041756402800D7564018008756403800306
:104A4600756400126219024B41126470EF64EF70D4
:104A56006FE557706BE52164046004E52170091267
:104A66006165752101024B41E52164017039E564F8
:104A760064016004E5647009126189752102024BC4
:104A860041E56464026004E56470091261D1752130
:104A960005024B41E56464036004E5647009126134
:104AA600AD752103024B41E5216402600BE52164EB
:104AB600036005E521B405081261F5752104807BC4
:104AC600126470BFF715E557B40208E556B406033D
:104AD600755700E557B40603755702126470BFFB9D
:104AE6000FE557B40203755706E55770037557026D
:104AF600126470BFDF15E556D39400400EE557608B
:104B06000A1556E556B40303755201126470BFBF09
:104B160015E5576011E556C39406500A0556E55645
:104B2600B404037552027F647E00126121125E187E
:104B3600EF4E7007E557600312634CD007D006D0DE
:104B460005D004D003D002D001D000D0D0D082D07E
:064B560083D0F0D0E03234
:1063D400E4F580C2A2D2A3D2A4E58020E7FBC2A444
:0163E4002296
:1063E5001263D4C2A2C2A38F80D2A4000000C2A4AB
:0163F5002285
:1063F6001263D4D2A2C2A38F80D2A4000000C2A48A
:016406002273
:066486004307B80263E5C4
:06648C004307C00263E5B6
:0964670053073F4307400263E5BF
:0664920043073E0263E532
:1062D800EF14600C14600E2402700EC2A0C2A1223A
:0A62E800C2A0D2A122D2A0C2A122BE
:106281001262D8E4FEAF06126486E4FF126467E48A
:0E629100FDE4FF1263F60DBD40F70EBE08E7F8
:01629F0022DC
:106260001263D4E4FF1262D8126492E4FF1262D87F
:106270000F126492E4FF1262D8126281E4FF02649A
:016280008C91
:025BC800AC032C
:105BCA001262D8AF05126486AF04126467E4FEABB2
:105BDA0015AA16A9178E82758300125070FF1263D8
:105BEA00F60EBE10EAED04FF126486AF0412646773
:105BFA00E4FEEE2410F582E433F583AB15AA16A968
:0C5C0A0017125070FF1263F60EBE10E679
:015C1600226B
:100F850000000000808080F0F0808080000000007C
:100F9500000000000101010F0F0101010000000028
:100FA5008080C0C0E0A090808080808080808000AC
:100FB5000000010103020400000000000000000021
:100FC500808080808080808090A0E0C0C08080008C
:100FD5000000000000000000040203010100000001
:100FE500000000003CFCF41010F4FC3C0000000084
:100FF500000030303C3D050707053D3C3030000022
:10100500000E0C1838F030F6F630F038180C0E00DB
:101015002020382E3E27393F3F39273E2E382020C5
:1010250000000C0CE030188B8B1830E00C0C000025
:101035000000203C27382021212038273C200000B3
:101045000000E010103C5C5C3C141474C48000008B
:101055000000071C3C1C040404041C3C1D07000084
:10106500000888B8EC4C7CCCCC7C4CECB8880800EB
:1010750000020B0F3F3F390909393F3F0F0B0200B3
:1010850080801C7C6C48F8CFCFF9496C7C1C808033
:10109500000302CECE6E720303726ECECE02030043
:1010A5000000000080E0F8FEF8E08000000000008D
:1010B5000020383E3F3F3F3F3F3F3F3E3820000046
:1010C50000C0C0C0C0C0FEFEFEFEC0C0C0C0C000A3
:1010D5000003030303037F7F7F7F030303030300F1
:1010E50080828282FE8282828282FE828282800069
:1010F500008040300F0000000000FF0000000000ED
:101105001010F01F10F00040E05847405060C0003C
:101115004022150816210000FE42424242FE000010
:101125001060028C0008F94EC820584F48C80800C6
:1011350004047E8140300F407F0044847F04040016
:101145000008488808C838404040FF2022AC2000ED
:101155000020100C03041880402017182641F000C9
:10116500101010FF90088888FF0000FF888808008D
:101175000242817F00080808FF0000FF08080800F8
:10118500001088C4330040424242C24242424000FD
:10119500020100FF0000000040807F000000000009
:1011A5001010D0FF9090642C34A526342CA4600038
:1011B500040300FF000182621E0A4B8A7A020000C6
:1011C5001010FF1090E02F29E909E9292FE0000010
:1011D50042827F414425150D05FE0D152545440028
:1011E500008060F80740300FF88888888808080074
:1011F500010000FF00000000FF08080808080000C3
:10120500404042CC0000F11610101814F300000005
:101215000000003F9048211907013F4141407000FF
:1012250000FC444444FC0000FE22222222FE000071
:10123500000F0404048F40300F020242827F000039
:10124500000090884C57242454548C8400000000DE
:10125500010100FE42424242424242FE01010100BA
:1012650000001011161010F01010141310000000DB
:101275008181414121110D030D11214141818100E0
:10128500404040404040FF444444444444404000C2
:10129500000000000000FF0000020408100000002C
:1012A5004040C05F5555D5555555555F40404000A8
:1012B50020603F251515FF904729112D438080009B
:1012C50004040404F49495969494F404040404002A
:1012D50000FE02027A4A4A4A4A4A7A0282FE00001F
:1012E500804020908886808080838C1020408000FC
:1012F500008040201807004080403F0000000000AB
:1013050000000000000000000000000000000000D8
:10131500000036360000000000000000000000005C
:101325008080808080808080808080808080800038
:1013350000000000000000000000000000000000A8
:101345000000080808080808080808080800000040
:101355001010101010101010101010101010100098
:1013650000048484848484848484848484040000C4
:101375002020202020202020202020202020200088
:1013850000FC040404FC040404FC040404FC000044
:10139500007F28242320202020212222227F0000D4
:1013A5000002424242C27E42424242C20202000062
:1013B50040404040784740404040407F40404000EA
:1013C50020202020202021222C2020202020200029
:1013D500004020100C03000000010204186000000A
:1013E5000000E0F03008080808080830F0E00000C8
:1013F50000000F1F18302020202020180F070000A4
:1014050000000000001010F0F800000000000000CF
:10141500000000002020203F3F2020202000000069
:101425000000307028080808080808D8F0200000D7
:1014350000003030282424222221212030180000E9
:1014450000003030280808080888887070000000FF
:101455000000181828202021212121131E0C00002E
:10146500000000008080402010F0F8F80000000027
:101475000004060504042424243F3F3F24242400BB
:10148500000000F808888888888888880800000097
:101495000000181929202020202020111F0E0000EF
:1014A5000000C0E0108888888888889810000000AF
:1014B50000000F1F11202020202020101F0F0000EA
:1014C500000030180808080808884828180800008F
:1014D5000000000000003C3E13000000000000007A
:1014E50000007070C8888888080888887020000007
:1014F500000C1E1221212021212123221E0C000077
:101505000040F0F00808080808080890F0E000001E
:1015150000001111332222222222111C0F07000084
:1015250000001011161010F0101014131000000018
:101535008181414121110D030D112141418181001D
:10154500404040404040FF444444444444404000FF
:10155500000000000000FF00000204081000000069
:1015650080808080808080808080808080808000F6
:101575000000000000000000000000000000000066
:1015850000000808080808080808080808000000FE
:101595001010101010101010101010101010100056
:1015A5000004848484848484848484848404000082
:1015B5002020202020202020202020202020200046
:1015C50000FC040404FC040404FC040404FC000002
:1015D500007F28242320202020212222227F000092
:1015E5000002424242C27E42424242C20202000020
:1015F50040404040784740404040407F40404000A8
:1016050020202020202021222C20202020202000E6
:10161500004020100C0300000001020418600000C7
:1016250000FC040404FC040404FC040404FC0000A1
:10163500007F28242320202020212222227F000031
:1016450080804020100804C30408102040808000DA
:1016550000000000000000FF000000000000000086
:101665000808080808F8898E888888880808080006
:1016750000804020180700004080403F0000000027
:1016850000F808080CCA494848C8080808F80000C6
:1016950000FF0000001F0808081F0040807F0000B1
:1016A5004030EF242480E49C105454FF547C1000F7
:1016B50001017F21512618274445455F45454400D2
:1016C5000000000000000000000000000000000015
:1016D5000000363600000000000000000000000099
:1016E500101010FF9020984828090E2848A81800C7
:1016F5000242817F0040404242427E4242424000D7
:1017050040504E4848FF48484840F80000FF000058
:1017150000003E0202FF12221E000F40807F0000E3
:101725004040424458C0407F40C050484640400079
:101735008080402018070000003F4040404078006E
:101745001010D0FF901020222222E2222222200017
:10175500040300FF00130C0340807F0001061800FE
:1017650000F80C0B0808F840308F080808F800004E
:10177500007F212121217F0000004380403F0000A0
:101785002424A4FE2322001008946724940C00004E
:10179500080601FF0106008989444A33120A06003A
:1017A5004044C4444444401010FF101010F00000A1
:1017B500103C131014B840300E014080403F00002B
:1017C5000004848484848484848484848404000060
:1017D5002020202020202020202020202020200024
:1017E50080804020100804C3040810204080800039
:1017F50000000000000000FF0000000000000000E5
:10180500080808F80808081010FF101010F000006C
:101815001030101F088848300E014080403F0000FE
:1018250008CC4A49484ACC18007F88888482E00061
:1018350000FF121252927F00007E88888482E000A9
:101845004030EF242480E49C105454FF547C100055
:1018550001017F21512618274445455F4545440030
:1018650000FE0222DA060808F8898E8888880800B2
:1018750000FF0810088740300F004080403F0000FF
:101885001088C433484744FC444400FC0404FC006D
:101895000100FF20603E201F121200FF08100F00FC
:1018A5002020FF202004844F2414244F84040000AA
:1018B50010301F080801F84949494949F801010054
:1018C5000000000000000000000000000000000013
:1018D50000000408183000000000000000000000AF
:1018E500404042CC0008E9AAB8A8A8AAE908000027
:1018F5000040201F20405F4A4A4A4A4A5F40400054
:10190500000000FE52525252525252FE0000000098
:101915000808884F291909090919294F8808080055
:101925001010FF1090E02F29E909E9292FE00000A8
:1019350042827F414425150D05FE0D1525454400C0
:10194500008060F80740300FF8888888880808000C
:10195500010000FF00000000FF080808080800005B
:1019650000FE2222FE00403C1010FF101010000067
:10197500807F0282FF00404242427F424242400055
:1019850040444444C4FE42434200F80000FF0000C6
:1019950020100C0300FF010204000F40807F0000AF
:1019A5000040301E101010FF101010101000000025
:1019B50081814121110D0301030D11214181810017
:1019C50000FE02FA02FE4020D8171010F010100099
:1019D5008047300F1067804021160816214080008F
:1019E5001060028C0008F94EC820584F48C80800FE
:1019F50004047E8140300F407F0044847F0404004E
:101A05000008488808C838404040FF2022AC200024
:101A15000020100C03041880402017182641F00000
:101A25002030AC632018084848487F4848480800DB
:101A350022672212121200FE4242424242FE00007A
:101A45000404E424242424FF24242424E40404009A
:101A550040402722120A06FF060A122227404000AC
:101A6500101010FF9020988888E98E8888A8980023
:101A75000242817F000080844B28102847800000A7
:101A85000484E45C44C42010E82724E4342CE000FA
:101A950002017F10103F80601F09093F49897F00BF
:101AA500404042CC0000000000FF000000000000A4
:101AB5000000003F904820180700071820408000CC
:101AC5004030EF242480E49C105454FF547C1000D3
:101AD50001017F21512618274445455F45454400AE
:101AE5002030AC631000FE485040FF4050480000D5
:101AF5002267221212007F4442417F414244400046
:101B05002030AC6320182024A4243FA424A4600022
:101B1500226722121212888A4C29180F1828C80029
:101B25001060028C0008F94EC820584F48C80800BC
:101B350004047E8140300F407F0044847F0404000C
:101B45000008488808C838404040FF2022AC2000E3
:101B55000020100C03041880402017182641F000BF
:101B6500404042CC0000FC24A4242222A3620000B1
:101B75000040201F205847504845424548504000E6
:101B85000000FE0202F2121212F20202FE00000032
:101B950000007F2020272424242720207F00000008
:101BA5004030EF242480E49C105454FF547C1000F2
:101BB50001017F21512618274445455F45454400CD
:101BC5000000FE0202F2121212F20202FE000000F2
:101BD50000007F2020272424242720207F000000C8
:101BE5004262524AC6425262C200F80000FF00003B
:101BF50040C444447F24242420000F40807F0000FB
:101C050000080808080809FA080808080808000074
:101C1500404041414141417F4141414141404000B6
:101C2500040444C44F4444C424242FB424040400AD
:101C350040442424150C04FE040C152424444000BF
:101C45000000F8494A4C48F8484C4A49F800000059
:101C550010101312121212FF12121212131010008A
:085AFA0006720000000000002C
:1046DD00E4FF126281E4FF12648C7515FF75160FED
:1046ED007517C5E4FBFD7F01125BC87515FF7516C7
:1046FD00107517A57B10E4FD7F01125BC87515FFC2
:10470D007516107517A57B20E4FD7F01125BC8752A
:10471D0015FF7516107517A57B30E4FD7F01125B33
:10472D00C87515FF7516107517C57B40E4FD7F0222
:10473D00125BC87515FF7516107517C57B50E4FD16
:10474D007F02125BC87515FF7516107517C57B6056
:10475D00E4FD7F02125BC87515FF75160F7517A561
:10476D007B70E4FD7F02125BC87515FF75160F7522
:10477D001785E4FB7D027F01125BC87515FF751669
:10478D000F7517E57B107D027F01125BC87515FF54
:10479D0075160F7517E57B207D027F01125BC875BD
:1047AD0015FF75160F7517E57B307D027F01125BC6
:1047BD00C87515FF7516107517457B407D027F0274
:1047CD00125BC87515FF7516107517457B507D0268
:1047DD007F02125BC87515FF7516107517457B6046
:1047ED007D027F02125BC87515FF75160F75178553
:1047FD007B707D027F02125BC87515FF75160F75F4
:10480D001785E4FB7D047F01125BC87515FF7516D6
:10481D00107517257B107D047F01125BC87515FF80
:10482D007516107517257B207D047F01125BC875E9
:10483D0015FF7516107517257B307D047F01125BF2
:10484D00C87515FF7516107517657B407D047F02C1
:10485D00125BC87515FF7516107517657B507D04B5
:10486D007F02125BC87515FF7516107517657B6095
:10487D007D047F02125BC87515FF75160F751785C0
:10488D007B707D047F02125BC87515FF75160F7561
:10489D0017C5E4FB7D067F01125BC87515FF751604
:1048AD00107517057B107D067F01125BC87515FF0E
:1048BD007516107517057B207D067F01125BC87577
:1048CD0015FF7516107517057B307D067F01125B80
:1048DD00C87515FF7516107517857B407D067F020F
:1048ED00125BC87515FF7516107517857B507D0603
:1048FD007F02125BC87515FF7516107517857B60E5
:10490D007D067F02125BC87515FF75160F7517A50D
:09491D007B707D067F02025BC87D
:10556E00E4FF126281E4FF12648C7515FF7516104C
:10557E007517E57B20E4FD7F01125BC87515FF757D
:10558E0016117517057B30E4FD7F01125BC875158A
:10559E00FF751611751725E4FBFD7F02125BC875AA
:1055AE0015FF7516117517457B10E4FD7F02125B12
:1055BE00C87515FF7516117517657B207D037F0164
:1055CE00125BC87515FF7516117517857B307D0337
:1055DE007F01125BC87515FF7516117517A5E4FBD3
:1055EE007D037F02125BC87515FF7516117517C501
:1055FE007B207D067F01125BC87515FF7516117530
:10560E0017E57B307D067F01125BC87515FF751699
:10561E0012751705E4FB7D067F02125BC87515FF38
:0F562E007516127517257B107D067F02025BC86B
:104B5C00E4FF126281E4FF12648C7B007A007972AC
:104B6C001254887515FF751612751745E4FBFD7FF9
:104B7C0001125BC87515FF7516127517657B10E46D
:104B8C00FD7F01125BC87515FF7516127517857BB5
:104B9C0020E4FD7F01125BC87515FF7516127517A1
:104BAC00A57B30E4FD7F01125BC87515FF751612ED
:104BBC007517C57B40E4FD7F02125BC87515FF7548
:104BCC0016127517E57B50E4FD7F02125BC8751554
:104BDC00FF7516137517057B60E4FD7F02125BC829
:104BEC007515FF751613751725E4FB7D027F0112F1
:104BFC005BC87515FF7516137517057B107D027F45
:104C0C0001125BC8E57275F020A424E5F974133524
:104C1C00F07515FFF51689177B207D027F01125B5D
:104C2C00C87515FF7516137517857B407D027F02BD
:104C3C00125BC87515FF7516137517057B507D0231
:104C4C007F02125BC8E57575F020A424E5F9741396
:104C5C0035F07515FFF51689177B607D027F021202
:104C6C005BC87515FF751613751745E4FB7D047F3E
:104C7C0001125BC87515FF7516137517057B107D32
:104C8C00047F01125BC8E57375F020A424E5F97468
:104C9C001335F07515FFF51689177B207D047F0100
:104CAC00125BC87515FF7516137517A57B407D042F
:104CBC007F02125BC87515FF7516137517057B50AF
:104CCC007D047F02125BC8E57675F020A424E5F91B
:104CDC00741335F07515FFF51689177B607D047F0D
:104CEC0002125BC87515FF751613751765E4FB7D0D
:104CFC00067F01125BC87515FF7516137517057BBA
:104D0C00107D067F01125BC8E57475F020A424E5C4
:104D1C00F9741335F07515FFF51689177B207D0690
:104D2C007F01125BC87515FF7516137517C57B408F
:104D3C007D067F02125BC87515FF75161375170576
:104D4C007B507D067F02125BC8E57775F020A424AA
:104D5C00E5F9741335F07515FFF51689177B607D31
:064D6C00067F02025BC895
:10525500E4FF126281E4FF12648C7515FF75161563
:10526500751725E4FBFD7F01125BC87515FF7516E3
:10527500157517457B10E4FD7F01125BC87515FF99
:105285007516157517657B20E4FD7F01125BC875E2
:1052950015FF7516157517257B50E4FD7F02125B0A
:1052A500C87515FF7516157517457B60E4FD7F02FA
:1052B500125BC87515FF7516157517C57B70E4FD6E
:1052C5007F02125BC87515FF751615751725E4FB6A
:1052D5007D037F01125BC87515FF7516157517459A
:1052E5007B107D037F01125BC87515FF751615755B
:1052F50017857B207D037F01125BC87515FF751629
:10530500157517257B507D037F02125BC87515FF48
:105315007516157517457B607D037F02125BC87591
:1053250015FF7516157517E57B707D037F02125BFA
:10533500C87515FF751615751725E4FB7D067F01E4
:10534500125BC87515FF7516157517457B107D061B
:105355007F01125BC87515FF7516157517A57B209E
:105365007D067F01125BC87515FF75161575172526
:105375007B507D067F02125BC87515FF7516157586
:1053850017457B607D067F02125BC87515FF751694
:0D539500167517057B707D067F02025BC850
:104D7200E4FF126281E4FF12648C7515FF7516164A
:104D8200751725E4FBFD7F01125BC87515FF7516CB
:104D9200167517457B10E4FD7F01125BC87515FF80
:104DA2007516167517657B20E4FD7F01125BC875C9
:104DB20015FF7516167517857B30E4FD7F01125BB2
:104DC200C87515FF7516167517A57B40E4FD7F02A1
:104DD200125BC87515FF7516167517C57B50E4FD75
:104DE2007F02125BC87515FF7516167517E5E4FB91
:104DF2007D027F01125BC87515FF751617751705C1
:104E02007B107D027F01125BC87515FF7516177541
:104E120017257B207D027F01125BC87515FF751671
:104E2200177517457B307D027F01125BC87515FF30
:104E32007516177517657B407D027F02125BC87578
:104E420015FF7516177517857B507D027F02125B61
:104E5200C87515FF7516177517A57B607D027F0251
:104E6200125BC87515FF7516177517C5E4FB7D042F
:104E72007F01125BC87515FF7516177517E57B1054
:104E82007D047F01125BC87515FF7516187517052D
:104E92007B207D047F01125BC87515FF751618759E
:104EA20017257B307D047F01125BC87515FF7516CF
:104EB200187517457B407D047F02125BC87515FF8C
:104EC2007516167517C57B507D047F02125BC87577
:104ED20015FF751618751765E4FB7D067F01125BD9
:104EE200C87515FF7516187517857B107D067F012D
:104EF200125BC87515FF7516187517A57B207D0600
:104F02007F01125BC87515FF7516187517C57B30C2
:104F12007D067F01125BC87515FF7516187517E5BA
:104F22007B407D067F02125BC87515FF75161975E9
:104F320017057B507D067F02125BC87515FF75163B
:104F4200197517257B607D067F02125BC87515FFF8
:0F4F52007516197517457B707D067F02025BC8C7
:105F0E00E4FF126281E4FF12648C7515FF75161999
:105F1E007517657B307D037F01125BC87515FF75A4
:0E5F2E0016197517857B407D037F02025BC844
:105F3C00E4FF126281E4FF12648C7515FF7516196B
:105F4C007517A57B307D037F01125BC87515FF7536
:0E5F5C0016197517C57B407D037F02025BC8D6
:1050E300E4FF126281E4FF12648C7515FF751619D3
:1050F3007517E57B20E4FD7F01125BC87515FF750D
:10510300161A7517057B30E4FD7F01125BC8751510
:10511300FF75161A7517257B40E4FD7F02125BC8E5
:105123007515FF75161A7517457B50E4FD7F02123E
:105133005BC87515FF75161A751765E4FB7D037F4C
:1051430001125BC87515FF75161A7517857B107DDF
:10515300037F01125BC87515FF75161A7517A57BBA
:10516300207D037F01125BC87515FF75161A75172D
:10517300C57B307D037F01125BC87515FF75161A59
:105183007517E57B407D037F02125BC87515FF75BC
:10519300161B7517057B507D037F02125BC87515BF
:1051A300FF75161B7517257B607D037F02125BC895
:1051B3007515FF75161B7517457B707D037F0212EE
:1051C3005BC87515FF75161B751765E4FB7D067FB8
:1051D30001125BC87515FF75161B7517857B107D4E
:1051E300067F01125BC87515FF75161B7517A57B26
:1051F300207D067F01125BC87515FF75161B751799
:10520300C57B307D067F01125BC87515FF75161BC4
:105213007517E57B407D067F02125BC87515FF7528
:10522300161C7517057B507D067F02125BC875152A
:10523300FF75161C7517257B607D067F02125BC800
:105243007515FF75161C7517457B707D067F020269
:025253005BC836
:105B0200016F01016D00016C00016A01016B01016D
:055B12006E01017100AD
:1053A200E56D75F00AA4256C14601614700302549E
:1053B200811470030254842403600302548702554B
:1053C2006E125255025479E57064FD7003025487DF
:1053D2001264708F70E56BC39404AF715005126351
:1053E2008C800312639E1264708F70E570B4FE0BA2
:1053F20012611D1264708F70025DAA1264708F7048
:10540200E57064F77028E56BD394014019E56BB43D
:105412000405757106800DE571D39400400674FD94
:105422002571F571156B12611D1264708F70126413
:10543200708F70E57064FB7028E56BC39406501999
:10544200E56BB40305E4F571800DE571C394065074
:105452000674032571F571056B12611D1264708F5C
:10546200701264708F70E56BC39404AF71500512B3
:1054720063B080031263C21264708F700253C90258
:065482004B5C124D72228A
:105DAA00E56BB407005031905DB8F8282873025D9E
:105DBA00CD025DD0025DD3025DD6025DD9025DDC03
:105DCA00025DDF02525502603902605F026085029D
:095DDA0060AB0260D11260F722F7
:1059A6001263781264708F70E570541FF50F641FD0
:1059B6006073126470EF541FFFBF1FF6E56FB401EA
:1059C60005E4F56F801DE50F24E9603A24FC6016B6
:1059D60024FE600C14704EE56C7003856A6C8003BF
:1059E600E4F56C0253A2E56C703BE56EC39403507C
:1059F60034E56AC394035002056AE56E04FDAF6E92
:105A0600125F6A056E22E56C701BE56ED394014049
:105A160014E56AD394004002156AE56E14FDAF6E74
:055A2600125F6A156E1D
:015A2B002258
:04611D007FE87E0396
:10612100E4FDFCC3ED9FEC9E5015E4FBFA0BBB00B4
:0F613100010AEB64784A70F50DBD00010C80E4A3
:01614000223C
:105A2C00020B024B029302BA0310037003DC04173F
:105A3C00049705270575062006E007B8FC8FFCEFD8
:105A4C00FD45FD6CFDB5FDF5FE2EFE48FE78FEA372
:105A5C00FEB7FEDBFEFBFF17C0F9A4B0999282F8EB
:105A6C008090FF01020301010203010304050304FA
:105A7C0005050605040301050605040301010501DE
:105A8C0001050104040404040404040404080404CB
:105A9C0008030103010404030103010404040408C2
:035AAC00040408E7
:0A5B1700C180C101011CFF011D0047
:0262A0008F105D
:1062A20078117C007D007BFF7A5A79647E007F0B37
:0B62B20012503174112510F8E6F59031
:0162BD0022BE
:10643A00D2AF758901851C8C851D8AD2A9D28C227E
:10586C00E4FBFAFDFCFFFEF9E9C394204003025966
:10587C00193001FDC201EB4A7070E9905A6F931414
:10588C00F51025E02448F582E4345AF583E493F5C9
:10589C001CE51025E02448F582E4345AF5837401A4
:1058AC0093F51DE9905A8F93FF7E00E51025E024B7
:1058BC002CF582E4345AF583E493FC740193FD12C5
:1058CC0050D1EF7802CEC313CE13D8F9FDAC0678C5
:1058DC0002CEC313CE13D8F9FFC3ED9FFFEC9EFE8F
:1058EC00D2000BBB00010A025874C3EB9DEA9C402A
:1058FC0007E4FAFB090258740BBB00010AEB6F704A
:0D590C0002EA6E6003025874C20002587473
:01591900226B
:03000B0002640785
:10640700851C8C851D8AD201300003B2A532D2A526
:016417003252
:1057B6008B108A1189121200061264187FA01262D9
:1057C6003D1262F2E4FF12623D1262F2AB10AA11C0
:1057D600A912125057FF12623D1262F27F01126245
:1057E6003D1262F2AB10AA11A9129000011250707C
:1057F600FF12623D1262F27F0212623D1262F2AB4A
:1058060010AA11A912900002125070FF12623D12E6
:1058160062F27F0312623D1262F2AB10AA11A91264
:10582600900003125070FF12623D1262F27F041262
:10583600623D1262F2AB10AA11A912900004125036
:1058460070FF12623D1262F27F0512623D1262F231
:10585600AB10AA11A912900005125070FF12623DFA
:065866001262F202642947
:105488008B108A1189121200061264187FA012620A
:105498003D1262F2E4FF12623D1262F21264187F5A
:1054A800A112623D1262F2126141AB10AA11A91257
:1054B800EF12509D7F0112623D1262F21264187F52
:1054C800A112623D1262F2126141AB10AA11A91237
:1054D800900001EF1250AF7F0212623D1262F21289
:1054E80064187FA112623D1262F2126141AB10AAE8
:1054F80011A912900002EF1250AF7F0312623D1201
:1055080062F21264187FA112623D1262F2126141C6
:10551800AB10AA11A912900003EF1250AF7F04122A
:10552800623D1262F21264187FA112623D1262F2A9
:10553800126141AB10AA11A912900004EF1250AFEA
:105548007F0512623D1262F21264187FA112623D59
:105558001262F2126141AB10AA11A912900005EF74
:065568001250AF0264299D
:07647F0000000000000022F4
:05000600D2A7D2A622E2
:10641800D2A6D2A712647FC2A712647FC2A6026462
:016428007FF4
:10642900C2A6C2A712647FD2A612647FD2A7026451
:016439007FE3
:1062F200E4FFD2A612647F30A709EFC394FF5003D4
:086302000F80F4C2A602647FC3
:10623D00C2A612647FE4FEEF25E0FF92A712647FF1
:10624D00D2A612647FC2A612647F0EBE08E9D2A741
:03625D0002647F59
:10614100E4FEC2A612647FFDD2A612647F30A704CA
:106151007F018002E4FFEE25E04FFEC2A60DBD08DF
:03616100E7AF069F
:016164002218
:10563D008080C0C0E0A090808080808080808000CD
:10564D000000010103020400000000000000000042
:10565D00000000000000000000000000000000003D
:10566D00000000000000000000000000000000002D
:10567D00000000000000000000000000000000001D
:10568D00000000000000000000000000000000000D
:10569D0000000000000000000000000000000000FD
:1056AD0000000000000000000000000000000000ED
:1056BD008080C0C0E0A0908080808080808080004D
:1056CD0000000101030204000000000000000000C2
:1056DD00808080808080808090A0E0C0C08080002D
:1056ED0000000000000000000402030101000000A2
:025F6A008D1098
:105F6C00EF25E014FD7515FF75165675175D7B3022
:105F7C007F02125BC8E51025E014FD7515FF751640
:0B5F8C005675173D7B307F02025BC89A
:02638C00AD075B
:10638E007515FF75165675177D7B307F01025BC83C
:02639E00AD0749
:1063A0007515FF75165675179D7B407F02025BC8F9
:0263B000AD0737
:1063B2007515FF7516567517BD7B307F01025BC8D8
:0263C200AD0725
:1063C4007515FF7516567517DD7B407F02025BC895
:1030D90000E01008080808F00000000000000000E7
:1030E9000003040808080C070000000000000000A5
:1030F90000001008F80000000000000000000000B7
:10310900000008080F08080800000000000000007F
:103119000000100808884870000000000000000046
