:1022110012193712235DAB31AA30AD2FAC2EAF2D81
:10222100AE2C12217EAF27EF3395E0F5188F19AB55
:1022310026AA25AD24AC23AF22AE211223BD121A4A
:032241000280FB1D
:10245200E4F580C2A2D2A3D2A4E58020E7FBC2A405
:012462002257
:10246300122452C2A2C2A38F80D2A4000000C2A42D
:012473002246
:0923D9008E82758300121AC1FF07
:1023E200122452D2A2C2A38F80D2A4000000C2A49F
:0123F20022C8
:0624A6004307B8022463A5
:0624AC004307C002246397
:0C243D00AC031223F3AF051224A6AF0479
:0924490053073F430740022463DE
:0624B20043073E02246313
:1023F300EF14600C14600E2402700EC2A0C2A1225E
:0A240300C2A0D2A122D2A0C2A122E1
:10239E001223F3E4FEAF061224A6E4FF122449E44E
:0E23AE00FDE4FF1223E20DBD40F70EBE08E76E
:0123BC0022FE
:10235D00122452E4FF1223F31224B2E4FF1223F3EA
:10236D000F1224B2E4FF1223F312239EE4FF022482
:01237D00ACB3
:1022440012243DE4FEAB1DAA1EA91F1223D90EBE03
:1022540010F3ED04FF122444E4FEEE2410F582E4AE
:1022640033F583AB1DAA1EA91F1223DE0EBE10EA8E
:012274002247
:1022750012243DE4FEAB0FAA10A9111223D90EBEFC
:1022850010F3ED04FF122444E4FEEE2410F582E47D
:1022950033F583AB0FAA10A9111223DE0EBE10EA87
:0122A5002216
:10000E0000FC848484FC001010101010FF101000EF
:10001E00003F1010103F0000010640807F000000DE
:10002E0020102CE7242400F01010FF1010F0000018
:10003E000101017F211100070202FF0202070000E9
:10004E0000F8012220222AF22222222202FE0000A1
:10005E0000FF00001F01017F09110F40807F00008B
:10006E00000000FE92929292929292FE0000000088
:10007E0040424458407F4040407F405048464000F8
:10008E0040404242424242C242424242424040000C
:10009E00201008060040807F000000020408300097
:1000AE00FF037B7B7B03FFEFEFEFEFEF00EFEFFF45
:1000BE00FFC0EFEFEFC0FFFFFEF9BF7F80FFFFFF36
:1000CE00DFEFD318DBDBFF0FEFEF00EFEF0FFFFFDC
:1000DE00FEFEFE80DEEEFFF8FDFD00FDFDF8FFFFEB
:1000EE00FF07FEDDDFDDD50DDDDDDDDDFD01FFFF13
:1000FE00FF00FFFFE0FEFE80F6EEF0BF7F80FFFF09
:10010E00FFFFFF016D6D6D6D6D6D6D01FFFFFFFFEB
:10011E00BFBDBBA7BF80BFBFBF80BFAFB7B9BFFF5B
:10012E00BFBFBDBDBDBDBD3DBDBDBDBDBDBFBFFF27
:10013E00DFEFF7F9FFBF7F80FFFFFFFDFBF7CFFF7C
:10014E0000FC848484FC001010101010FF101000AE
:10015E00003F1010103F0000010640807F0000009D
:10016E0020102CE7242400F01010FF1010F00000D7
:10017E000101017F211100070202FF0202070000A8
:10018E0000F8012220222AF22222222202FE000060
:10019E0000FF00001F01017F09110F40807F00004A
:1001AE00000000FE92929292929292FE0000000047
:1001BE0040424458407F4040407F405048464000B7
:1001CE0040404242424242C24242424242404000CB
:1001DE00201008060040807F000000020408300056
:1001EE004042CC0000FE829292FE929282FE00006D
:1001FE0000003F10887F001E1212125E807F0000EA
:10020E000474D454FF54D47414087784443C04000A
:10021E00828988E88B8888F9A8AAA9A8A98A820069
:10022E000000E0F03008080808080830F0E0000090
:10023E0000000F1F18302020202020180F0700006C
:10024E0000000000001010F0F80000000000000098
:10025E00000000002020203F3F2020202000000032
:10026E000000307028080808080808D8F0200000A0
:10027E0000003030282424222221212030180000B2
:10028E0000003030280808080888887070000000C8
:10029E000000181828202021212121131E0C0000F7
:1002AE00000000008080402010F0F8F800000000F0
:1002BE000004060504042424243F3F3F2424240084
:1002CE00000000F808888888888888880800000060
:1002DE000000181929202020202020111F0E0000B8
:1002EE000000C0E010888888888888981000000078
:1002FE0000000F1F11202020202020101F0F0000B3
:10030E000000301808080808088848281808000057
:10031E000000000000003C3E130000000000000042
:10032E0000007070C88888880808888870200000CF
:10033E00000C1E1221212021212123221E0C00003F
:10034E000040F0F00808080808080890F0E00000E7
:10035E0000001111332222222222111C0F0700004D
:10036E00000000000000001818000000000000004F
:10037E00000000000000001818000000000000003F
:10038E000000E0F03008080808080830F0E000002F
:10039E0000000F1F18302020202020180F0700000B
:1003AE0000000000001010F0F80000000000000037
:1003BE00000000002020203F3F20202020000000D1
:1003CE000000307028080808080808D8F02000003F
:1003DE000000303028242422222121203018000051
:1003EE000000303028080808088888707000000067
:1003FE000000181828202021212121131E0C000096
:10040E00000000008080402010F0F8F8000000008E
:10041E000004060504042424243F3F3F2424240022
:10042E00000000F8088888888888888808000000FE
:10043E000000181929202020202020111F0E000056
:10044E000000C0E010888888888888981000000016
:10045E0000000F1F11202020202020101F0F000051
:10046E0000003018080808080888482818080000F6
:10047E000000000000003C3E1300000000000000E1
:10048E0000007070C888888808088888702000006E
:10049E00000C1E1221212021212123221E0C0000DE
:1004AE000040F0F00808080808080890F0E0000086
:1004BE0000001111332222222222111C0F070000EC
:1004CE000000E0F03008080808080830F0E00000EE
:1004DE0000000F1F18302020202020180F070000CA
:1004EE0000000000001010F0F800000000000000F6
:1004FE00000000002020203F3F2020202000000090
:10050E000000307028080808080808D8F0200000FD
:10051E00000030302824242222212120301800000F
:10052E000000303028080808088888707000000025
:10053E000000181828202021212121131E0C000054
:10054E00000000008080402010F0F8F8000000004D
:10055E000004060504042424243F3F3F24242400E1
:10056E00000000F8088888888888888808000000BD
:10057E000000181929202020202020111F0E000015
:10058E000000C0E0108888888888889810000000D5
:10059E0000000F1F11202020202020101F0F000010
:1005AE0000003018080808080888482818080000B5
:1005BE000000000000003C3E1300000000000000A0
:1005CE0000007070C888888808088888702000002D
:1005DE00000C1E1221212021212123221E0C00009D
:1005EE000040F0F00808080808080890F0E0000045
:1005FE0000001111332222222222111C0F070000AB
:10060E00FFFF1F0FCFF7F7F7F7F7F7CF0F1FFFFF1C
:10061E00FFFFF0E0E7CFDFDFDFDFDFE7F0F8FFFF20
:10062E00FFFFFFFFFFEFEF0F07FFFFFFFFFFFFFFD4
:10063E00FFFFFFFFDFDFDFC0C0DFDFDFDFFFFFFF1A
:10064E00FFFFCF8FD7F7F7F7F7F7F7270FDFFFFF8C
:10065E00FFFFCFCFD7DBDBDDDDDEDEDFCFE7FFFF5A
:10066E00FFFFCFCFD7F7F7F7F777778F8FFFFFFF24
:10067E00FFFFE7E7D7DFDFDEDEDEDEECE1F3FFFFD5
:10068E00FFFFFFFF7F7FBFDFEF0F0707FFFFFFFFBC
:10069E00FFFBF9FAFBFBDBDBDBC0C0C0DBDBDBFF08
:1006AE00FFFFFF07F777777777777777F7FFFFFF0C
:1006BE00FFFFE7E6D6DFDFDFDFDFDFEEE0F1FFFF94
:1006CE00FFFF3F1FEF77777777777767EFFFFFFFB4
:1006DE00FFFFF0E0EEDFDFDFDFDFDFEFE0F0FFFF59
:1006EE00FFFFCFE7F7F7F7F7F777B7D7E7F7FFFF94
:1006FE00FFFFFFFFFFFFC3C1ECFFFFFFFFFFFFFF89
:10070E00FFFF8F8F37777777F7F777778FDFFFFFDB
:10071E00FFF3E1EDDEDEDFDEDEDEDCDDE1F3FFFF4B
:10072E00FFBF0F0FF7F7F7F7F7F7F76F0F1FFFFF83
:10073E00FFFFEEEECCDDDDDDDDDDEEE3F0F8FFFFFD
:10074E00FFFF1F0FCFF7F7F7F7F7F7CF0F1FFFFFDB
:10075E00FFFFF0E0E7CFDFDFDFDFDFE7F0F8FFFFDF
:10076E00FFFFFFFFFFEFEF0F07FFFFFFFFFFFFFF93
:10077E00FFFFFFFFDFDFDFC0C0DFDFDFDFFFFFFFD9
:10078E00FFFFCF8FD7F7F7F7F7F7F7270FDFFFFF4B
:10079E00FFFFCFCFD7DBDBDDDDDEDEDFCFE7FFFF19
:1007AE00FFFFCFCFD7F7F7F7F777778F8FFFFFFFE3
:1007BE00FFFFE7E7D7DFDFDEDEDEDEECE1F3FFFF94
:1007CE00FFFFFFFF7F7FBFDFEF0F0707FFFFFFFF7B
:1007DE00FFFBF9FAFBFBDBDBDBC0C0C0DBDBDBFFC7
:1007EE00FFFFFF07F777777777777777F7FFFFFFCB
:1007FE00FFFFE7E6D6DFDFDFDFDFDFEEE0F1FFFF53
:10080E00FFFF3F1FEF77777777777767EFFFFFFF72
:10081E00FFFFF0E0EEDFDFDFDFDFDFEFE0F0FFFF17
:10082E00FFFFCFE7F7F7F7F7F777B7D7E7F7FFFF52
:10083E00FFFFFFFFFFFFC3C1ECFFFFFFFFFFFFFF47
:10084E00FFFF8F8F37777777F7F777778FDFFFFF9A
:10085E00FFF3E1EDDEDEDFDEDEDEDCDDE1F3FFFF0A
:10086E00FFBF0F0FF7F7F7F7F7F7F76F0F1FFFFF42
:10087E00FFFFEEEECCDDDDDDDDDDEEE3F0F8FFFFBC
:10088E00FFFF1F0FCFF7F7F7F7F7F7CF0F1FFFFF9A
:10089E00FFFFF0E0E7CFDFDFDFDFDFE7F0F8FFFF9E
:1008AE00FFFFFFFFFFEFEF0F07FFFFFFFFFFFFFF52
:1008BE00FFFFFFFFDFDFDFC0C0DFDFDFDFFFFFFF98
:1008CE00FFFFCF8FD7F7F7F7F7F7F7270FDFFFFF0A
:1008DE00FFFFCFCFD7DBDBDDDDDEDEDFCFE7FFFFD8
:1008EE00FFFFCFCFD7F7F7F7F777778F8FFFFFFFA2
:1008FE00FFFFE7E7D7DFDFDEDEDEDEECE1F3FFFF53
:10090E00FFFFFFFF7F7FBFDFEF0F0707FFFFFFFF39
:10091E00FFFBF9FAFBFBDBDBDBC0C0C0DBDBDBFF85
:10092E00FFFFFF07F777777777777777F7FFFFFF89
:10093E00FFFFE7E6D6DFDFDFDFDFDFEEE0F1FFFF11
:10094E00FFFF3F1FEF77777777777767EFFFFFFF31
:10095E00FFFFF0E0EEDFDFDFDFDFDFEFE0F0FFFFD6
:10096E00FFFFCFE7F7F7F7F7F777B7D7E7F7FFFF11
:10097E00FFFFFFFFFFFFC3C1ECFFFFFFFFFFFFFF06
:10098E00FFFF8F8F37777777F7F777778FDFFFFF59
:10099E00FFF3E1EDDEDEDFDEDEDEDCDDE1F3FFFFC9
:1009AE00FFBF0F0FF7F7F7F7F7F7F76F0F1FFFFF01
:1009BE00FFFFEEEECCDDDDDDDDDDEEE3F0F8FFFF7B
:1009CE000000E0F03008080808080830F0E00000E9
:1009DE0000000F1F18302020202020180F070000C5
:1009EE0000000000001010F0F800000000000000F1
:1009FE00000000002020203F3F202020200000008B
:100A0E000000307028080808080808D8F0200000F8
:100A1E00000030302824242222212120301800000A
:100A2E000000303028080808088888707000000020
:100A3E000000181828202021212121131E0C00004F
:100A4E00000000008080402010F0F8F80000000048
:100A5E000004060504042424243F3F3F24242400DC
:100A6E00000000F8088888888888888808000000B8
:100A7E000000181929202020202020111F0E000010
:100A8E000000C0E0108888888888889810000000D0
:100A9E0000000F1F11202020202020101F0F00000B
:100AAE0000003018080808080888482818080000B0
:100ABE000000000000003C3E13000000000000009B
:100ACE0000007070C8888888080888887020000028
:100ADE00000C1E1221212021212123221E0C000098
:100AEE000040F0F00808080808080890F0E0000040
:100AFE0000001111332222222222111C0F070000A6
:100B0E0000000000000000181800000000000000A7
:100B1E000000000000000018180000000000000097
:100B2E000000E0F03008080808080830F0E0000087
:100B3E0000000F1F18302020202020180F07000063
:100B4E0000000000001010F0F8000000000000008F
:100B5E00000000002020203F3F2020202000000029
:100B6E000000307028080808080808D8F020000097
:100B7E0000003030282424222221212030180000A9
:100B8E0000003030280808080888887070000000BF
:100B9E000000181828202021212121131E0C0000EE
:100BAE00000000008080402010F0F8F800000000E7
:100BBE000004060504042424243F3F3F242424007B
:100BCE00000000F808888888888888880800000057
:100BDE000000181929202020202020111F0E0000AF
:100BEE000000C0E01088888888888898100000006F
:100BFE0000000F1F11202020202020101F0F0000AA
:100C0E00000030180808080808884828180800004E
:100C1E000000000000003C3E130000000000000039
:100C2E0000007070C88888880808888870200000C6
:100C3E00000C1E1221212021212123221E0C000036
:100C4E000040F0F00808080808080890F0E00000DE
:100C5E0000001111332222222222111C0F07000044
:100C6E000000E0F03008080808080830F0E0000046
:100C7E0000000F1F18302020202020180F07000022
:100C8E0000000000001010F0F8000000000000004E
:100C9E00000000002020203F3F20202020000000E8
:100CAE000000307028080808080808D8F020000056
:100CBE000000303028242422222121203018000068
:100CCE00000030302808080808888870700000007E
:100CDE000000181828202021212121131E0C0000AD
:100CEE00000000008080402010F0F8F800000000A6
:100CFE000004060504042424243F3F3F242424003A
:100D0E00000000F808888888888888880800000015
:100D1E000000181929202020202020111F0E00006D
:100D2E000000C0E01088888888888898100000002D
:100D3E0000000F1F11202020202020101F0F000068
:100D4E00000030180808080808884828180800000D
:100D5E000000000000003C3E1300000000000000F8
:100D6E0000007070C8888888080888887020000085
:100D7E00000C1E1221212021212123221E0C0000F5
:100D8E000040F0F00808080808080890F0E000009D
:100D9E0000001111332222222222111C0F07000003
:100DAE0000F8012220222AF22222222202FE000034
:100DBE0000FF00001F01017F09110F40807F00001E
:100DCE0020102CE7242400F01010FF1010F000006B
:100DDE000101017F211100070202FF02020700003C
:100DEE00404042CC0040A09E8282829EA0202000E5
:100DFE000000003F908840432C1028464180800020
:100E0E00001715D55557557D555755D51517000053
:100E1E004040407F555555555555557F40404000F3
:100E2E000000F8888888880808FF08090AC80800A2
:100E3E0080601F0010201F80402116182641F800E8
:100E4E00080808F80808081010FF101010F000002D
:100E5E001030101F088848300E014080403F0000BF
:100E6E000000000000000000000000000000000074
:100E7E000000000000000000000000000000000064
:100E8E0000FC848484FC001010101010FF10100061
:100E9E00003F1010103F0000010640807F00000050
:100EAE000000000000000018180000000000000004
:100EBE0000000000000000181800000000000000F4
:100ECE00000EE612080404F48404040812E60E0070
:100EDE000080E738102020202123221238E78000DE
:100EEE0000000000000000000000000000000000F4
:100EFE0000000000000000000000000000000000E4
:100F0E00000EE612080404F48404040812E60E002F
:100F1E000080E738102020202123221238E780009D
:100F2E0000000000000000000000000000000000B3
:100F3E0000000000000000000000000000000000A3
:100F4E00404042CC0000FF4949C949497F8000001A
:100F5E000040201F20405F48444041424558400019
:100F6E0000007C40404040FF40404040FC000000FC
:100F7E00007C40404040407F4040404040FC0000EC
:100F8E0000FC848484FC001010101010FF10100060
:100F9E00003F1010103F0000010640807F0000004F
:100FAE0000F8012220222AF22222222202FE000032
:100FBE0000FF00001F01017F09110F40807F00001C
:100FCE0020102CE7242400F01010FF1010F0000069
:100FDE000101017F211100070202FF02020700003A
:100FEE004042CC0000FE829292FE929282FE00005F
:100FFE0000003F10887F001E1212125E807F0000DC
:10100E000474D454FF54D47414087784443C0400FC
:10101E00828988E88B8888F9A8AAA9A8A98A82005B
:10102E0000000000000000000000000000000000B2
:10103E0000000000000000000000000000000000A2
:10104E000000E0F03008080808080830F0E0000062
:10105E0000000F1F18302020202020180F0700003E
:10106E0000000000001010F0F8000000000000006A
:10107E00000000002020203F3F2020202000000004
:10108E000000307028080808080808D8F020000072
:10109E000000303028242422222121203018000084
:1010AE00000030302808080808888870700000009A
:1010BE000000181828202021212121131E0C0000C9
:1010CE00000000008080402010F0F8F800000000C2
:1010DE000004060504042424243F3F3F2424240056
:1010EE00000000F808888888888888880800000032
:1010FE000000181929202020202020111F0E00008A
:10110E000000C0E010888888888888981000000049
:10111E0000000F1F11202020202020101F0F000084
:10112E000000301808080808088848281808000029
:10113E000000000000003C3E130000000000000014
:10114E0000007070C88888880808888870200000A1
:10115E00000C1E1221212021212123221E0C000011
:10116E000000000000000000000000000000000071
:10117E000000000000000000000000000000000061
:10237E00E4FDFCC3ED9FEC9E5015E4FBFA0BBB0095
:0F238E00010AEB64784A70F50DBD00010C80E484
:01239D00221D
:10157000EE6003021699EF14604E14700302162DEC
:1015800024026003021699751DFF751E01751F0E5A
:10159000E4FB7D067F01122244751DFF751E017557
:1015A0001F2E7B107D067F01122244751DFF751EC4
:1015B00000751F0E7B307D067F01122244751DFFD2
:1015C000751E00751F2E803F751DFF751E00751F4F
:1015D0006EE4FB7D067F01122244751DFF751E001F
:1015E000751F8E7B107D067F01122244751DFF75CD
:1015F0001E00751FAE7B307D067F01122244751DD3
:10160000FF751E00751FCE7B407D067F02122244AF
:10161000751DFF751E00751F4E7B607D067F0212D3
:101620002244751DFF751E00751F2E8063751DFFFA
:10163000751E00751F6EE4FB7D067F011222447546
:101640001DFF751E00751F8E7B107D067F01122207
:1016500044751DFF751E00751F0E7B307D067F01D2
:10166000122244751DFF751E00751F2E7B407D06DE
:101670007F02122244751DFF751E00751FEE7B60F0
:101680007D067F02122244751DFF751E00751FCE58
:091690007B707D067F02122244EA
:01169900222E
:10178300EE6003021861EF14604D14700302181A1F
:1017930024026003021861751DFF751E01751F4E3B
:1017A300E4FBFD7F01122244751DFF751E01751FA9
:1017B3006E7B10E4FD7F01122244751DFF751E012F
:1017C300751FAE7B20E4FD7F01122244751DFF755A
:1017D3001E01751FCE807E751DFF751E01751F4E80
:1017E300E4FBFD7F01122244751DFF751E01751F69
:1017F3006E7B10E4FD7F01122244751DFF751E01EF
:10180300751FEE7B20E4FD7F01122244751DFF75D9
:101813001E02751F0E803E751DFF751E01751F8EFE
:10182300E4FBFD7F01122244751DFF751E01751F28
:101833006E7B10E4FD7F01122244751DFF751E01AE
:10184300751FEE7B20E4FD7F01122244751DFF7599
:0E1853001E02751F0E7B30E4FD7F0112224441
:011861002264
:041DA700AB07AA06D6
:101DAB007C007D0A121AEE8F828E83AE02AF037C0B
:101DBB00007D0A121AEE8C188D19E582AE83780518
:101DCB00C333CE33CED8F9242EF974023E751DFFE2
:101DDB00F51E891FE4FB7D037F01122244E519AE3A
:101DEB00187805C333CE33CED8F9242EF974023EBE
:101DFB00751DFFF51E891F7B107D037F0102224499
:041E0B00AB07AA0671
:101E0F007C007D0A121AEE8F828E83AE02AF037CA6
:101E1F00007D0A121AEE8C188D19E582AE837805B3
:101E2F00C333CE33CED8F9248EF974033E751DFF1C
:101E3F00F51E891F7B307D037F01122244E519AE09
:101E4F00187805C333CE33CED8F9248EF974033EF8
:101E5F00751DFFF51E891F7B407D037F0202224403
:041E6F00AB07AA060D
:101E73007C007D0A121AEE8F828E83AE02AF037C42
:101E8300007D0A121AEE8C188D19E582AE8378054F
:101E9300C333CE33CED8F924CEF974043E751DFF77
:101EA300F51E891F7B607D037F02122244E519AE74
:101EB300187805C333CE33CED8F924CEF974043E53
:101EC300751DFFF51E891F7B707D037F020222446F
:041ED300AB07AA06A9
:101ED7007C007D0A121AEE8F828E83AE02AF037CDE
:101EE700007D0A121AEE8C188D19E582AE837805EB
:101EF700C333CE33CED8F9240EF974063E751DFFD1
:101F0700F51E891FE4FB7D037F01122244E519AE0C
:101F1700187805C333CE33CED8F9240EF974063EAC
:101F2700751DFFF51E891F7B107D037F010222446B
:041F3700AB07AA0644
:101F3B007C007D0A121AEE8F828E83AE02AF037C79
:101F4B00007D0A121AEE8C188D19E582AE83780586
:101F5B00C333CE33CED8F9244EF974073E751DFF2B
:101F6B00F51E891F7B307D037F01122244E519AEDC
:101F7B00187805C333CE33CED8F9244EF974073E07
:101F8B00751DFFF51E891F7B407D037F02022244D6
:041F9B00AB07AA06E0
:101F9F007C007D0A121AEE8F828E83AE02AF037C15
:101FAF00007D0A121AEE8C188D19E582AE83780522
:101FBF00C333CE33CED8F9248EF974083E751DFF86
:101FCF00F51E891F7B607D037F02122244E519AE47
:101FDF00187805C333CE33CED8F9248EF974083E62
:101FEF00751DFFF51E891F7B707D037F0202224442
:041FFF00AB07AA067C
:102003007C007D0A121AEE8F828E83AE02AF037CB0
:10201300007D0A121AEE8C088D09E582AE837805DD
:10202300C333CE33CED8F924CEF974093E750FFFEE
:10203300F5108911E4FB7D037F01122275E509AEDA
:10204300087805C333CE33CED8F924CEF974093ECC
:10205300750FFFF51089117B107D037F0102227537
:04206300AB07AA0617
:102067007C007D0A121AEE8F828E83AE02AF037C4C
:10207700007D0A121AEE8C088D09E582AE83780579
:10208700C333CE33CED8F9242EF9740B3E750FFF28
:10209700F51089117B307D037F01122275E509AEAA
:1020A700087805C333CE33CED8F9242EF9740B3E06
:1020B700750FFFF51089117B407D037F02022275A2
:0420C700AB07AA06B3
:1020CB007C007D0A121AEE8F828E83AE02AF037CE8
:1020DB00007D0A121AEE8C088D09E582AE83780515
:1020EB00C333CE33CED8F9246EF9740C3E750FFF83
:1020FB00F51089117B607D037F02122275E509AE15
:10210B00087805C333CE33CED8F9246EF9740C3E60
:10211B00750FFFF51089117B707D037F020222750D
:101B7900EF64014E701C751DFF751E0E751F6EFBFF
:101B89007D037F01122244751DFF751E0D751FAE61
:101B9900801B751DFF751E0E751F6EE4FB7D037F8F
:101BA90001122244751DFF751E0E751F8E7B107D57
:101BB900037F01122244751DFF751E0D751FCE7B13
:101BC900207D037F01122244751DFF751E0D751FAF
:101BD900EE7B307D037F01122244751DFF751E0EB9
:101BE900751F0E7B407D037F02122244751DFF7510
:101BF9001E0E751F2E7B507D037F02122244751D18
:101C0900FF751E0E751F4E7B607D037F02122244F5
:101C1900751DFF751E0E751F6E7B707D037F021289
:021C2900224453
:011C2B002296
:1022F200751DFF751E0E751FAE7B207D037F0112BB
:102302002244751DFF751E0E751FAE7B507D037F27
:04231200020222445D
:1022A600EF64014E700D751DFF751E0E751FCE7BFA
:1022B60070800C751DFF751E0E751FEE7B70E4FD9C
:0522C6007F021222441A
:0122CB0022F0
:1022CC00EF64014E700D750FFF75100F75110E7BBD
:1022DC0070800C750FFF75100F75112E7B70E4FD5F
:0522EC007F02122275C3
:0122F10022CA
:10169A00EF64014E7052751DFF751E10751F2EFBEB
:1016AA007D037F01122244751DFF751E0F751F4EA3
:1016BA007B107D037F01122244751DFF751E0F7575
:1016CA001F6E7B207D037F01122244751DFF751E4C
:1016DA000F751F8E7B307D037F01122244751DFF1B
:1016EA00751E0F751FAE8051751DFF751E10751F73
:1016FA002EE4FB7D037F01122244751DFF751E0F28
:10170A00751F4E7B107D037F01122244751DFF75E4
:10171A001E0F751F6E7B207D037F01122244751DEB
:10172A00FF751E0F751F8E7B307D037F01122244C9
:10173A00751DFF751E0F751FCE7B407D037F02123C
:10174A002244751DFF751E0F751FEE7B507D037FAA
:10175A0002122244751DFF751E10751F0E7B607DD7
:10176A00037F02122244751DFF751E10751F2E7B02
:08177A00707D037F021222447E
:011782002244
:0421CF00AB07AA06AA
:1021D3007C007D0A121AEE8E088F09AE02AF037CD3
:1021E300007D0A121AEE8C0A8D0B750FFF75101104
:1021F30075116E7B40E4FD7F02122275750FFF752A
:0E220300101175116E7B50E4FD7F02022275F2
:0B240D00022A00000228000701200145
:10217E008E128F138C148D158A168B17122496853A
:10218E00122C85132D85142E85152F851630851747
:10219E0031E4F532FF12239EE4FF1224ACAF2DAED4
:1021AE002C121DA7AF2FAE2E121E0BAF31AE30125A
:1021BE001E6FE4FFFE121783E4FFFE12157002225B
:0121CE00F21E
:1023BD008E218F228C238D248A258B26851927AF7C
:0C23CD0027EF3395E0FE1222A6D29722E3
:101862000531E53170020530E520AF31AE3060055B
:101872001220C780031221CFE531643C4530701F2E
:10188200052FE52F7002052EE4F530F531E52060D5
:101892000EAF2FAE2E122063AF31AE301220C7E54D
:1018A2002F643C452E701F052DE52D7002052CE49A
:1018B200F52EF52FE520600EAF2DAE2C121FFFAFD7
:1018C2002FAE2E122063E52D6418452C700FF52CD7
:1018D200F52DE5206007AF2DAE2C121FFFE527B4D2
:1018E2000126E522B52D21E521B52C1CE524B52FD5
:1018F20017E523B52E12E526B5310DE525B53008DD
:10190200E529152970021528C3E5299407E52894CD
:10191200005021B297E529152970021528E52945BD
:10192200287011F528752907F527AF27EF3395E0C1
:05193200FE1222CC2290
:10249600758901758C3B758AE8D2A9D2AFD28C2298
:03000B0002212BA4
:10212B00C0E0C0F0C083C082C0D075D000C000C07A
:10213B0001C002C003C004C005C006C007758C3BBC
:10214B00758AE8052BE52B7002052A6410452A7069
:10215B0007F52AF52B121862D007D006D005D0044C
:10216B00D003D002D001D000D0D0D082D083D0F019
:03217B00D0E0327F
:0C24180002330000023700030235000010
:101D39007F01EF6401704C30940F30900C309109A1
:101D490030920630930320953A7F827E0012237EDB
:101D5900121CB8E4FF209403FE0F222095057E0093
:101D69007F06222090057E007F02222091057E00B9
:101D79007F03222092057E007F04222093197E0092
:101D89007F052220941120900E20910B209208208B
:0D1D990093052095027F01121CB8E4FEFFA7
:011DA600221A
:101A0200121D398E358F36E5356003021AC0E53670
:101A120024FC6076147003021AA524046003021ADF
:101A2200C0E5336003021AC0E53414603D14604A15
:101A320024026003021AC0752001AF2DAE2C121DC4
:101A4200A7AF2FAE2E121E0BAF31AE30121E6F1289
:101A520022F2AF34AE33121570AF27EF3395E0FEAA
:101A62001222A6AF34AE33021783E4F520AF34AEB0
:101A7200331217831222F2021386E4F520AF34AE3A
:101A8200331217831222F202118ED3E5349400E549
:101A920033648094804027E534153470021533AFE7
:101AA200348016C3E5349402E53364809480500E8A
:0F1AB2000534E53470020533FFAE331215702290
:10118E008521128522138523148524158525168520
:10119E002617E5377016E53824FE600A14600A2417
:1011AE0002700902134602135602130A121D398EDB
:1011BE00358F36E53570F5E53624FE604B14700339
:1011CE000212641470030212DA14700302131A145A
:1011DE006022240570D67F017E00121B79851221B4
:1011EE0085132285142385152485162585172675C6
:1011FE002701800A7F017E0012169AE4F527AF2799
:10120E00EF3395E0FE0222A6E53770A0E53824FE06
:10121E00601B14602C240270930513E513700205F5
:10122E001264184512705EF512F51380580515E517
:10123E001570020514643C4514706CF514F5158098
:10124E00660517E51770020516643C4516707AF5AB
:10125E0016F51702137CE53760030211BAE5382440
:10126E00FE602C14604B240260030211BAE51315C4
:10127E001370021512E513B4FF0BE512B4FF0675D9
:10128E001200751317AF13AE12121ED30211BAE568
:10129E0015151570021514E515B4FF0BE514B4FF02
:1012AE000675140075153BAF15AE14121F370211DB
:1012BE00BAE517151770021516E517B4FF0BE516EC
:1012CE00B4FF0675160075173B02137CD3E53894F0
:1012DE0001E537648094804008E5381538700215B2
:1012EE0037E53760030211BAE53824FE600C14604E
:1012FE000B240260030211BA803E804CAF13AE1273
:10130E00121DA7AF15AE14121E0B8062C3E53894E2
:10131E0003E5376480948050080538E5387002057F
:10132E0037E53760030211BAE53824FE601A1460FF
:10133E002F240260030211BAAF13AE12121ED3AFE6
:10134E0015AE14121E0B800EAF13AE12121DA7AFE8
:10135E0015AE14121F37AF17AE16121E6F0211BA4A
:10136E00AF13AE12121DA7AF15AE14121E0BAF1790
:08137E00AE16121F9B0211BA0A
:10138600852C12852D13852E14852F1585301685EF
:101396003117E5377016E53824FE600A14600A2412
:1013A6000270090215300215400214F4121D398E1E
:1013B600358F36E53570F5E53624FE603D1470034D
:1013C60002144E1470030214C4147003021504149C
:1013D6006022240570D6E4FFFE121B7985122C8547
:1013E600132D85142E85152F851630851731E4F5B6
:1013F6002AF52B22E4FFFE02169AE53770AEE53891
:1014060024FE601B14602C240270A10513E51370E2
:1014160002051264184512705EF512F51380580520
:1014260015E51570020514643C4514706CF514F549
:101436001580660517E51770020516643C4516709B
:101446007AF516F517021566E53760030213B2E55D
:101456003824FE602C14604B240260030213B2E5AC
:1014660013151370021512E513B4FF0BE512B4FF42
:1014760006751200751317AF13AE12121ED30213A0
:10148600B2E515151570021514E515B4FF0BE51434
:10149600B4FF0675140075153BAF15AE14121F3751
:1014A6000213B2E517151770021516E517B4FF0BF0
:1014B600E516B4FF0675160075173B021566D3E5EB
:1014C600389401E537648094804008E53815387013
:1014D600021537E53760030213B2E53824FE600CC7
:1014E60014600B240260030213B2803E804CAF13DB
:1014F600AE12121DA7AF15AE14121E0B8062C3E505
:10150600389403E5376480948050080538E53870D0
:10151600020537E53760030213B2E53824FE601A88
:1015260014602F240260030213B2AF13AE12121E10
:10153600D3AF15AE14121E0B800EAF13AE12121DD2
:10154600A7AF15AE14121F37AF17AE16121E6F02D5
:1015560013B2AF13AE12121DA7AF15AE14121E0BA7
:0A156600AF17AE16121F9B0213B25E
:101CB8001224B81224747FA012233A122425E4FFB8
:101CC80012233A122425AF2D12233A1224257F011C
:101CD80012233A122425AF2F12233A1224257F0209
:101CE80012233A122425AF3112233A1224257F03F6
:101CF80012233A122425AF2212233A1224257F04F4
:101D080012233A122425AF2412233A1224257F05E0
:101D180012233A122425AF2612233A1224257F06CD
:101D280012233A122425AF2712233A12242502241B
:011D38008525
:101937001224B81224747FA012233A122425E4FF3C
:1019470012233A1224251224747FA112233A122457
:1019570025122316752C008F2D7F0112233A12248E
:10196700251224747FA112233A12242512231675F7
:101977002E008F2F7F0212233A1224251224747F00
:10198700A112233A1224251223167530008F317FB6
:101997000312233A1224251224747FA112233A1228
:1019A70024251223167521008F227F0412233A1251
:1019B70024251224747FA112233A122425122316F8
:1019C7007523008F247F0512233A122425122474CD
:1019D7007FA112233A1224251223167525008F267C
:1019E7007F0612233A1224251224747FA112233A68
:0B19F7001224251223168F27022485DE
:0700030000000000000022D4
:0524B800D2A7D2A6220C
:10247400D2A6D2A7120003C2A7120003C2A602006A
:012484000354
:10248500C2A6C2A7120003D2A6120003D2A7020059
:012495000343
:10242500E4FFD2A612000330A709EFC394FF5003BF
:082435000F80F4C2A6020003AF
:10233A00C2A6120003E4FEEF25E0FF92A7120003F3
:10234A00D2A6120003C2A61200030EBE08E9D2A743
:03235A000200037B
:10231600E4FEC2A6120003FDD2A612000330A704F3
:102326007F018002E4FFEE25E04FFEC2A60DBD0848
:03233600E7AF0608
:012339002281
:03000000021C2CB3
:0C1C2C00787FE4F6D8FD758138021C7347
:101AC100BB010CE58229F582E5833AF583E02250DA
:101AD10006E92582F8E622BBFE06E92582F8E22224
:0D1AE100E58229F582E5833AF583E493223E
:101AEE00C2D5EC30E709B2D5E4C39DFDE49CFCEE13
:101AFE0030E715B2D5E4C39FFFE49EFE121B24C34C
:101B0E00E49DFDE49CFC8003121B2430D507C3E446
:061B1E009FFFE49EFE2281
:101C3800022211E493A3F8E493A34003F68001F28F
:101C480008DFF48029E493A3F85407240CC8C333AD
:101C5800C4540F4420C8834004F456800146F6DF7C
:101C6800E4800B010204081020408090240DE47EDB
:101C7800019360BCA3FF543F30E509541FFEE49371
:101C8800A360010ECF54C025E060A840B8E493A338
:101C9800FAE493A3F8E493A3C8C582C8CAC583CA63
:101CA800F0A3C8C582C8CAC583CADFE9DEE780BE1B
:0124240000B7
:101B2400BC000BBE0029EF8DF084FFADF022E4CCA5
:101B3400F875F008EF2FFFEE33FEEC33FCEE9DEC6E
:101B4400984005FCEE9DFE0FD5F0E9E4CEFD22EDB4
:101B5400F8F5F0EE8420D21CFEADF075F008EF2FFE
:101B6400FFED33FD4007985006D5F0F222C398FDEF
:051B74000FD5F0EA228C
:00000001FF
