:020000040800F2
:1000000000500020B1620008AD4B0008AF4B000863
:10001000B14B0008B34B0008B54B000800000000CE
:10002000000000000000000000000000B74B0008C6
:10003000B94B000800000000BB4B0008BD4B000896
:10004000F9620008F9620008F9620008F962000824
:10005000F9620008F9620008F9620008F962000814
:10006000F9620008F9620008F9620008F962000804
:10007000F9620008F9620008F9620008F9620008F4
:10008000F9620008F9620008F9620008F9620008E4
:10009000F9620008F9620008F9620008F9620008D4
:1000A000F9620008F9620008F9620008F9620008C4
:1000B000F9620008F9620008F9620008F9620008B4
:1000C000F9620008F9620008F9620008F9620008A4
:1000D000F9620008F9620008F9620008F962000894
:1000E000F9620008F9620008F962000800000000E7
:1000F0000000000000000000000000000000000000
:0C01000000000000000000005FF808F1A3
:1001100010B5054C237833B9044B13B10448AFF341
:1001200000800123237010BDF009002000000000B2
:10013000DCCC000808B5034B1BB103490348AFF3FF
:10014000008008BD00000000F4090020DCCC00089D
:1001500081F0004102E000BF83F0004330B54FEA78
:1001600041044FEA430594EA050F08BF90EA020FE5
:100170001FBF54EA000C55EA020C7FEA645C7FEA78
:10018000655C00F0E2804FEA5454D4EB5555B8BF9B
:100190006D420CDD2C4480EA020281EA030382EA0C
:1001A000000083EA010180EA020281EA0303362D9E
:1001B00088BF30BD11F0004F4FEA01314FF4801C71
:1001C0004CEA113102D0404261EB410113F0004F83
:1001D0004FEA03334CEA133302D0524263EB43033A
:1001E00094EA050F00F0A780A4F10104D5F1200ED8
:1001F0000DDB02FA0EFC22FA05F2801841F1000133
:1002000003FA0EF2801843FA05F359410EE0A5F106
:1002100020050EF1200E012A03FA0EFC28BF4CF037
:10022000020C43FA05F3C01851EBE37101F00045ED
:1002300007D54FF0000EDCF1000C7EEB00006EEBFA
:100240000101B1F5801F1BD3B1F5001F0CD3490884
:100250005FEA30004FEA3C0C04F101044FEA4452DB
:1002600012F5800F80F09A80BCF1004F08BF5FEA62
:10027000500C50F1000041EB045141EA050130BD42
:100280005FEA4C0C404141EB0101013C28BFB1F554
:10029000801FE9D291F0000F04BF01460020B1FA9F
:1002A00081F308BF2033A3F10B03B3F120020CDA72
:1002B0000C3208DD02F1140CC2F10C0201FA0CF050
:1002C00021FA02F10CE002F11402D8BFC2F1200CB5
:1002D00001FA02F120FA0CFCDCBF41EA0C0190406B
:1002E000E41AA2BF01EB0451294330BD6FEA0404B4
:1002F0001F3C1CDA0C340EDC04F11404C4F120029F
:1003000020FA04F001FA02F340EA030021FA04F3B0
:1003100045EA030130BDC4F10C04C4F1200220FA07
:1003200002F001FA04F340EA0300294630BD21FA45
:1003300004F0294630BD94F0000F83F4801306BF0B
:1003400081F480110134013D4EE77FEA645C18BFFF
:100350007FEA655C29D094EA050F08BF90EA020F96
:1003600005D054EA000C04BF1946104630BD91EA8E
:10037000030F1EBF0021002030BD5FEA545C05D191
:100380004000494128BF41F0004130BD14F58004D0
:100390003CBF01F5801130BD01F0004545F0FE4144
:1003A00041F470014FF0000030BD7FEA645C1ABF79
:1003B000194610467FEA655C1CBF0B46024650EAB0
:1003C000013406BF52EA033591EA030F41F40021DC
:1003D00030BD00BF90F0000F04BF0021704730B562
:1003E0004FF4806404F132044FF000054FF0000137
:1003F00050E700BF90F0000F04BF0021704730B5F8
:100400004FF4806404F1320410F0004548BF4042CC
:100410004FF000013EE700BF42004FEAE2014FEA21
:1004200031014FEA02701FBF12F07F4393F07F4FFC
:1004300081F06051704732F07F4208BF704793F0FF
:100440007F4F04BF41F40021704730B54FF4607412
:1004500001F0004521F000411CE700BF50EA010215
:1004600008BF704730B54FF000050AE050EA0102BE
:1004700008BF704730B511F0004502D5404261EB2E
:1004800041014FF4806404F132045FEA915C3FF46F
:10049000D8AE4FF003025FEADC0C18BF03325FEA0C
:1004A000DC0C18BF033202EBDC02C2F1200300FABD
:1004B00003FC20FA02F001FA03FE40EA0E0021FAE2
:1004C00002F11444BDE600BF70B54FF0FF0C4CF4D0
:1004D000E06C1CEA11541DBF1CEA135594EA0C0F82
:1004E00095EA0C0F00F0DEF82C4481EA030621EABD
:1004F0004C5123EA4C5350EA013518BF52EA0335F8
:1005000041F4801143F4801338D0A0FB02CE4FF0A9
:100510000005E1FB02E506F00042E0FB03E54FF0D9
:100520000006E1FB03569CF0000F18BF4EF0010ED1
:10053000A4F1FF04B6F5007F64F5407404D25FEACD
:100540004E0E6D4146EB060642EAC62141EA555180
:100550004FEAC52040EA5E504FEACE2EB4F1FD0CC2
:1005600088BFBCF5E06F1ED8BEF1004F08BF5FEA40
:10057000500E50F1000041EB045170BD06F00046F2
:1005800046EA010140EA020081EA0301B4EB5C049F
:10059000C2BFD4EB0C0541EA045170BD41F4801197
:1005A0004FF0000E013C00F3AB8014F1360FDEBFBC
:1005B000002001F0004170BDC4F10004203C35DA98
:1005C0000C341BDC04F11404C4F1200500FA05F31B
:1005D00020FA04F001FA05F240EA020001F00042BC
:1005E00021F0004110EBD37021FA04F642EB060132
:1005F0005EEA430E08BF20EAD37070BDC4F10C045C
:10060000C4F1200500FA04F320FA05F001FA04F21F
:1006100040EA020001F0004110EBD37041F100010B
:100620005EEA430E08BF20EAD37070BDC4F1200516
:1006300000FA05F24EEA020E20FA04F301FA05F27E
:1006400043EA020321FA04F001F0004121FA04F226
:1006500020EA020000EBD3705EEA430E08BF20EAF6
:10066000D37070BD94F0000F0FD101F00046400030
:1006700041EB010111F4801F08BF013CF7D041EAB2
:10068000060195F0000F18BF704703F000465200B6
:1006900043EB030313F4801F08BF013DF7D043EA87
:1006A0000603704794EA0C0F0CEA135518BF95EA3D
:1006B0000C0F0CD050EA410618BF52EA4306D1D1C4
:1006C00081EA030101F000414FF0000070BD50EAE3
:1006D000410606BF1046194652EA430619D094EA6D
:1006E0000C0F02D150EA013613D195EA0C0F05D157
:1006F00052EA03361CBF104619460AD181EA0301AB
:1007000001F0004141F0FE4141F470014FF0000062
:1007100070BD41F0FE4141F4780170BD70B54FF0FD
:10072000FF0C4CF4E06C1CEA11541DBF1CEA13557D
:1007300094EA0C0F95EA0C0F00F0A7F8A4EB05045F
:1007400081EA030E52EA03354FEA013100F0888056
:100750004FEA03334FF0805545EA131343EA12631F
:100760004FEA022245EA111545EA10654FEA0026D4
:100770000EF000419D4208BF964244F1FD0404F58D
:10078000407402D25B084FEA3202B61A65EB0305E9
:100790005B084FEA32024FF480104FF4002CB6EBA6
:1007A000020E75EB030E22BFB61A754640EA0C0026
:1007B0005B084FEA3202B6EB020E75EB030E22BF66
:1007C000B61A754640EA5C005B084FEA3202B6EBA7
:1007D000020E75EB030E22BFB61A754640EA9C0066
:1007E0005B084FEA3202B6EB020E75EB030E22BF36
:1007F000B61A754640EADC0055EA060E18D04FEAF4
:10080000051545EA16754FEA06164FEAC30343EA93
:1008100052734FEAC2025FEA1C1CC0D111F4801F60
:100820000BD141EA00014FF000004FF0004CB6E759
:1008300011F4801F04BF01430020B4F1FD0C88BFF8
:10084000BCF5E06F3FF6AFAEB5EB030C04BFB6EB03
:10085000020C5FEA500C50F1000041EB045170BDF6
:100860000EF0004E4EEA113114EB5C04C2BFD4EB23
:100870000C0541EA045170BD41F480114FF0000EA7
:10088000013C90E645EA060E8DE60CEA135594EA23
:100890000C0F08BF95EA0C0F3FF43BAF94EA0C0F26
:1008A0000AD150EA01347FF434AF95EA0C0F7FF49B
:1008B00025AF104619462CE795EA0C0F06D152EAEF
:1008C00003353FF4FDAE1046194622E750EA4106D3
:1008D00018BF52EA43067FF4C5AE50EA41047FF4E4
:1008E0000DAF52EA43057FF4EBAE12E74FF0FF3C49
:1008F00006E000BF4FF0010C02E000BF4FF0010C1A
:100900004DF804CD4FEA410C7FEA6C5C4FEA430C92
:1009100018BF7FEA6C5C1BD001B050EA410C0CBFE1
:1009200052EA430C91EA030F02BF90EA020F002043
:10093000704710F1000F91EA030F58BF994208BFAA
:1009400090422CBFD8176FEAE37040F00100704767
:100950004FEA410C7FEA6C5C02D150EA013C07D1BE
:100960004FEA430C7FEA6C5CD6D152EA033CD3D009
:100970005DF8040B704700BF8446104662468C4603
:100980001946634600E000BF01B5FFF7B7FF002836
:1009900048BF10F1000F01BD4DF808EDFFF7F4FF5F
:1009A0000CBF012000205DF808FB00BF4DF808EDEA
:1009B000FFF7EAFF34BF012000205DF808FB00BF0D
:1009C0004DF808EDFFF7E0FF94BF012000205DF82F
:1009D00008FB00BF4DF808EDFFF7CEFF94BF0120E4
:1009E00000205DF808FB00BF4DF808EDFFF7C4FFDD
:1009F00034BF012000205DF808FB00BF4FEA410230
:100A000012F5001215D211D56FF47873B3EB625260
:100A100012D94FEAC12343F0004343EA505311F087
:100A2000004F23FA02F018BF404270474FF0000019
:100A3000704750EA013005D111F0004008BF6FF057
:100A4000004070474FF00000704700BF4A0011D2CD
:100A500012F5001211D20DD56FF47873B3EB625218
:100A60000ED44FEAC12343F0004343EA505323FA24
:100A700002F070474FF00000704750EA013002D199
:100A80004FF0FF3070474FF0000070474FEA4102CF
:100A9000B2F1E04324BFB3F5001CDCF1FE5C0DD9DC
:100AA00001F0004C4FEAC0024CEA5070B2F1004F26
:100AB00040EB830008BF20F00100704711F0804F29
:100AC00021D113F13872BCBF01F00040704741F4EE
:100AD00080114FEA5252C2F11802C2F1200C10FAF2
:100AE0000CF320FA02F018BF40F001004FEAC123D6
:100AF0004FEAD32303FA0CFC40EA0C0023FA02F37A
:100B00004FEA4303CCE77FEA625307D150EA01334F
:100B10001EBF4FF0FE4040F44000704701F000401F
:100B200040F0FE4040F40000704700BF80F00040FD
:100B300002E000BF81F0004142001FBF5FEA4103B5
:100B400092EA030F7FEA226C7FEA236C6AD04FEAB5
:100B50001262D2EB1363C1BFD218414048404140FA
:100B6000B8BF5B42192B88BF704710F0004F40F4AC
:100B7000000020F07F4018BF404211F0004F41F4C8
:100B8000000121F07F4118BF494292EA030F3FD094
:100B9000A2F1010241FA03FC10EB0C00C3F12003A7
:100BA00001FA03F100F0004302D5494260EB400036
:100BB000B0F5000F13D3B0F1807F06D340084FEAA1
:100BC000310102F10102FE2A51D2B1F1004F40EB96
:100BD000C25008BF20F0010040EA030070474900FE
:100BE00040EB0000013A28BFB0F5000FEDD2B0FA9B
:100BF00080FCACF1080CB2EB0C0200FA0CF0AABFBE
:100C000000EBC25052421843BCBFD040184370475B
:100C100092F0000F81F4000106BF80F40000013261
:100C2000013BB5E74FEA41037FEA226C18BF7FEA38
:100C3000236C21D092EA030F04D092F0000F08BF7A
:100C40000846704790EA010F1CBF0020704712F061
:100C50007F4F04D1400028BF40F00040704712F1A0
:100C600000723CBF00F50000704700F0004343F005
:100C7000FE4040F4000070477FEA226216BF08463B
:100C80007FEA23630146420206BF5FEA412390EAFE
:100C9000010F40F4800070474FF0000304E000BFF4
:100CA00010F0004348BF40425FEA000C08BF7047A5
:100CB00043F0964301464FF000001CE050EA010269
:100CC00008BF70474FF000030AE000BF50EA01027E
:100CD00008BF704711F0004302D5404261EB41016B
:100CE0005FEA010C02BF84460146002043F0B64390
:100CF00008BFA3F18053A3F50003BCFA8CF2083AB5
:100D0000A3EBC25310DB01FA02FC634400FA02FCBD
:100D1000C2F12002BCF1004F20FA02F243EB0200C4
:100D200008BF20F00100704702F1200201FA02FC26
:100D3000C2F1200250EA4C0021FA02F243EB020019
:100D400008BF20EADC7070474FF0FF0C1CEAD0525D
:100D50001EBF1CEAD15392EA0C0F93EA0C0F6FD01E
:100D60001A4480EA010C400218BF5FEA41211ED0FC
:100D70004FF0006343EA501043EA5111A0FB0131E8
:100D80000CF00040B1F5000F3EBF490041EAD371BD
:100D90005B0040EA010062F17F02FD2A1DD8B3F139
:100DA000004F40EBC25008BF20F00100704790F0A8
:100DB000000F0CF0004C08BF49024CEA502040EAFA
:100DC00051207F3AC2BFD2F1FF0340EAC2507047C0
:100DD00040F400004FF00003013A5DDC12F1190FFE
:100DE000DCBF00F000407047C2F10002410021FA70
:100DF00002F1C2F1200200FA02FC5FEA310040F188
:100E0000000053EA4C0308BF20EADC70704792F000
:100E1000000F00F0004C02BF400010F4000F013A38
:100E2000F9D040EA0C0093F0000F01F0004C02BF33
:100E3000490011F4000F013BF9D041EA0C018FE7A2
:100E40000CEAD15392EA0C0F18BF93EA0C0F0AD0A8
:100E500030F0004C18BF31F0004CD8D180EA0100CE
:100E600000F00040704790F0000F17BF90F0004F67
:100E7000084691F0000F91F0004F14D092EA0C0F49
:100E800001D142020FD193EA0C0F03D14B0218BFDC
:100E9000084608D180EA010000F0004040F0FE4022
:100EA00040F40000704740F0FE4040F440007047BE
:100EB0004FF0FF0C1CEAD0521EBF1CEAD15392EA3D
:100EC0000C0F93EA0C0F69D0A2EB030280EA010C2D
:100ED00049024FEA402037D04FF0805343EA1111C6
:100EE00043EA10130CF000408B4238BF5B0042F124
:100EF0007D024FF4000C8B4224BF5B1A40EA0C00C9
:100F0000B3EB510F24BFA3EB510340EA5C00B3EBFA
:100F1000910F24BFA3EB910340EA9C00B3EBD10FE8
:100F200024BFA3EBD10340EADC001B0118BF5FEA3A
:100F30001C1CE0D1FD2A3FF650AF8B4240EBC25063
:100F400008BF20F0010070470CF0004C4CEA502024
:100F50007F32C2BFD2F1FF0340EAC250704740F473
:100F600000004FF00003013A37E792F0000F00F065
:100F7000004C02BF400010F4000F013AF9D040EAE3
:100F80000C0093F0000F01F0004C02BF490011F477
:100F9000000F013BF9D041EA0C0195E70CEAD1536F
:100FA00092EA0C0F08D142027FF47DAF93EA0C0F56
:100FB0007FF470AF084676E793EA0C0F04D14B023A
:100FC0003FF44CAF08466EE730F0004C18BF31F0EC
:100FD000004CCAD130F000427FF45CAF31F00043E6
:100FE0007FF43CAF5FE700BF4FF0FF3C06E000BF7F
:100FF0004FF0010C02E000BF4FF0010C4DF804CDA2
:101000004FEA40024FEA41037FEA226C18BF7FEAB1
:10101000236C11D001B052EA530C18BF90EA010FB3
:1010200058BFB2EB030088BFC81738BF6FEAE17042
:1010300018BF40F0010070477FEA226C02D15FEADE
:10104000402C05D17FEA236CE4D15FEA412CE1D04A
:101050005DF8040B704700BF844608466146FFE711
:101060000FB5FFF7C9FF002848BF10F1000F0FBDF3
:101070004DF808EDFFF7F4FF0CBF012000205DF8EC
:1010800008FB00BF4DF808EDFFF7EAFF34BF012071
:1010900000205DF808FB00BF4DF808EDFFF7E0FF0A
:1010A00094BF012000205DF808FB00BF4DF808ED5B
:1010B000FFF7D2FF94BF012000205DF808FB00BFBE
:1010C0004DF808EDFFF7C8FF34BF012000205DF8A0
:1010D00008FB00BF4FEA4002B2F1FE4F0FD34FF0C2
:1010E0009E03B3EB12620DD94FEA002343F0004395
:1010F00010F0004F23FA02F018BF404270474FF043
:101100000000704712F1610F01D1420205D110F0C9
:10111000004008BF6FF0004070474FF0000070477C
:1011200042000ED2B2F1FE4F0BD34FF09E03B3EB51
:10113000126209D44FEA002343F0004323FA02F07D
:1011400070474FF00000704712F1610F01D1420269
:1011500002D14FF0FF3070474FF00000704700BFE2
:101160007BB972B90029BEBF00204FF0004106E0F4
:1011700008BF00281CBF6FF000414FF0FF3000F0A7
:10118000A9B9ADF1080C6DE904CE002909DB002BEB
:101190001ADB00F035F8DDF804E0DDE9022304B0E5
:1011A0007047404261EB4101002B1BDB00F028F847
:1011B000DDF804E0DDE9022304B0404261EB4101C7
:1011C000524263EB43037047524263EB430300F028
:1011D00017F8DDF804E0DDE9022304B0404261EBDA
:1011E00041017047524263EB430300F009F8DDF818
:1011F00004E0DDE9022304B0524263EB430370478D
:101200002DE9F047089E0D4604468846002B4DD137
:101210008A42944668D9B2FA82F252B101FA02F3D4
:10122000C2F1200120FA01F10CFA02FC41EA0308A4
:1012300094404FEA1C41B8FBF1F71FFA8CFE01FB0A
:10124000178807FB0EF0230C43EA084398420AD99B
:101250001CEB030307F1FF3580F01E81984240F23A
:101260001B81023F63441B1AB3FBF1F001FB1033F7
:1012700000FB0EFEA4B244EA0344A6450AD91CEBC7
:10128000040400F1FF3380F00981A64540F2068195
:10129000644402380021A4EB0E0440EA07401EB16A
:1012A0000023D440C6E90043BDE8F0878B4208D94B
:1012B000002E00F0EE800021C6E900050846BDE8DA
:1012C000F087B3FA83F100294AD1AB4202D38242BC
:1012D00000F2FC80841A65EB030301209846002E7F
:1012E000E2D0C6E90048DFE702B9FFDEB2FA82F2D7
:1012F000002A40F09180A1EB0C0001214FEA1C472D
:101300001FFA8CFEB0FBF7F307FB1300250C45EA30
:1013100000450EFB03F0A84208D91CEB050503F1BC
:10132000FF3802D2A84200F2CE8043462D1AB5FB08
:10133000F7F007FB10550EFB00FEA4B244EA05448B
:10134000A64508D91CEB040400F1FF3502D2A645DE
:1013500000F2B6802846A4EB0E0440EA03409EE764
:10136000C1F120078B4022FA07FC4CEA030C25FA56
:1013700007FA4FEA1C49BAFBF9F820FA07F309FB10
:1013800018AA8D401FFA8CFE1D4300FA01F308FBDA
:101390000EF02C0C44EA0A44A04202FA01F20BD9E6
:1013A0001CEB040408F1FF3A80F08880A04240F270
:1013B0008580A8F102086444241AB4FBF9F009FB03
:1013C000104400FB0EFEADB245EA0444A64508D920
:1013D0001CEB040400F1FF356CD2A6456AD9023833
:1013E000644440EA0840A0FB0295A4EB0E04AC4222
:1013F000C846AE4656D353D0002E69D0B3EB080290
:1014000064EB0E0422FA01F304FA07F71F43CC4001
:10141000C6E90074002147E70CFA02FCC2F1200182
:1014200025FA01F34FEA1C4720FA01F195400D43DC
:10143000B3FBF7F107FB11331FFA8CFE280C40EACF
:10144000034001FB0EF3834204FA02F408D91CEBBB
:10145000000001F1FF382FD283422DD902396044B8
:10146000C01AB0FBF7F307FB1300ADB245EA004525
:1014700003FB0EF0A84208D91CEB050503F1FF3869
:1014800016D2A84214D9023B6544281A43EA014106
:1014900038E73146304607E72F46E4E61846F9E6D6
:1014A0004B45A9D2B9EB020865EB0C0E0138A3E756
:1014B0004346EAE7284694E74146D1E7D0467BE732
:1014C0006444023847E7023B65442FE7084606E7D5
:1014D0003146E9E6704700BF844641EA000313F055
:1014E000030349D1403A23D30B6803604B68436040
:1014F0008B688360CB68C3600B6903614B69436190
:101500008B698361CB69C3610B6A03624B6A436277
:101510008B6A8362CB6AC3620B6B03634B6B43635F
:101520008B6B8363CB6BC36340304031403ADBD27B
:1015300030320BD30B6803604B6843608B68836069
:10154000CB68C36010301031103AF3D20C3205D39F
:1015500051F8043B40F8043B043AF9D2043208D075
:10156000D2071CBF11F8013B00F8013B01D30B88E7
:1015700003806046704700BF082A13D38B07B1D0A1
:1015800010F00303AED0C3F10403D21ADB071CBF73
:1015900011F8013B00F8013BA4D331F8023B20F8DD
:1015A000023B9FE7043AD9D3013A11F8013B00F816
:1015B000013BF9D20B7803704B7843708B788370C2
:1015C000604670474FEA410C7FEA6C5C02D150EAFA
:1015D000013C0AD14FEA430C7FEA6C5C02D152EA2B
:1015E000033C02D14FF0000070474FF001007047FC
:1015F00053B94AB9002908BF00281CBF4FF0FF317A
:101600004FF0FF30FFF766BFADF1080C6DE904CE77
:10161000FFF7F6FDDDF804E0DDE9022304B07047D2
:10162000B0F5E15F03DC10F5E15F03DB704741F6E5
:10163000BC3070470048704744E4FFFF30B583B0CA
:1016400004460DF1020101A801F006FD0028F8D1C1
:101650002246BDF90210019803F090F904460320D8
:1016600000F044F80546022000F040F80146284604
:1016700003F09EF92044FFF7D3FF014602F032FC4D
:1016800003B030BD10B50446042003F02FFD014B1C
:101690001C6010BD0C0A002010B44FF0E022546909
:1016A0000B4B1B6800FB03FC9369002104E0E01A6C
:1016B00002441144614509D21A464FF0E0239B6968
:1016C0009A42FAD0F3D9D21A1144F3E710BC70470A
:1016D0000C0A002038B50546002404E04FF47A7067
:1016E000FFF7DAFF0134A542F8D838BD022803D04D
:1016F000032808D0002070474FF08043586A00B29A
:1017000000225A627047034B586A00B240420022DE
:101710005A627047000400402DE9F04188B000246F
:101720000494059406940794344B9A6942F010028D
:101730009A619A6902F010020092009A9A6942F046
:1017400020029A619A6902F020020192019A9A6934
:1017500042F004029A619A6902F004020292029A2B
:101760009A6942F008029A619B6903F008030393A7
:10177000039BDFF88C8001224FF40051404603F0B8
:10178000D7FD204D224640F61341284603F0D0FDF8
:101790004FF40053049301270597069402260796F9
:1017A00004A9404603F0B2FC40F6134304930597A6
:1017B0000694079604A9284603F0A8FC4FF400738A
:1017C00004930596032307930F4E04A9304603F0B4
:1017D0009DFC4FF4806304930594069404A930465D
:1017E00003F094FC20230493084B0593069404A96A
:1017F000284603F08BFC08B0BDE8F08100100240E1
:1018000000100140000C01400008014000001110D0
:10181000F0B583B007462C4B586801AB04220D216C
:10182000007802F0B0FB00284BD104469DF804205C
:10183000D21002F01C029DF80710C1F301131A43E5
:101840008DF800209DF80520D21002F01C02C1F393
:1018500081031A438DF801209DF80630DB1003F058
:101860001C0301F003010B438DF8023018E007EB75
:101870008405164B47F8243004E015492868FFF723
:1018800063FA286006F108030DEB030212F8083C26
:10189000013BDBB202F8083C002BEED10134E4B28C
:1018A000022C0BD8264604F108036B4413F8083CBD
:1018B000002BDCD1002347F82430EFE7002003B0F1
:1018C000F0BD0720FBE700BF0C0000207B14AE3EFC
:1018D0001D5A843F2DE9F04385B08146884601A812
:1018E000FFF796FF00273C460DE021493046FFF701
:1018F000C9FB20B91F493046FFF7E2FB10B10123B5
:10190000A3401F430134022C2EDCA50059F824000B
:1019100058F82430C01A0028B8BF4042FFF7C0F979
:101920004FF05E51FFF710FA064605F110030DEB7C
:10193000030555F80C5C00212846FFF799FB0028A9
:10194000D3D129463046FFF7B3FA4FF07E51FFF767
:10195000F1F820F000400849FFF7B2FB0028D1D091
:101960000123A3401F43CDE7384605B0BDE8F0830F
:101970009A99993E3333733F295C0F3E2DE9F0412C
:1019800082B007468846374B586801AB03220D21C9
:10199000007802F0F8FA00285FD19DF8043003F0D7
:1019A0001F038DF804309DF8053003F01F038DF8F8
:1019B00005309DF8063003F01F038DF80630002631
:1019C000344626E02849FFF7BFF904F108030DEB80
:1019D000030212F8043C013BDBB202F8043C002B8A
:1019E000F0D101462846FFF763FA4FF07E51FFF72A
:1019F000A1F820F000401D49FFF762FB40B1012330
:101A0000A3401E4304E01A48DFE70123A3401E431E
:101A10000134022C22DC57F8240058F82430C01A74
:101A20000028B8BF4042FFF73BF94FF05E51FFF787
:101A30008BF9054604F108036B4413F8043C002BB2
:101A4000E1D10C49FFF71EFB0028DED10A492846E8
:101A5000FFF736FB0028DBD0D7E70726304602B079
:101A6000BDE8F0810C00002054E3853F295C0F3E67
:101A70000000C841000020410000D24200B583B000
:101A8000234B93F82430CBB1A0B102238DF807305B
:101A90001F4B586819680DF107030122C97B0078B4
:101AA00002F040FA48BB9DF80720194B5A7403B066
:101AB0005DF804FB00238DF80730E9E7144B9B7AAF
:101AC000F3B110B1124B5B7CEBB990B101238DF8EF
:101AD00007300F4B586819680DF107030122C97BC5
:101AE000007802F01FFA80B99DF80720084B5A745D
:101AF000DDE700238DF80730EBE74FF0FF30D6E746
:101B00004FF0FF30D3E70020D1E74FF0FF30CEE7B2
:101B10000C000020F0B589B005460C46164601239E
:101B20008DF8143000238DF81530854B58681968EE
:101B300005AB0222897C007802F0F4F9002840F01D
:101B4000CE81C820FFF7C6FD00238DF814307C4BF2
:101B50005868196805AB0122C97B007802F0E2F9E8
:101B6000002840F0BF81764B5868196805AB012208
:101B70004979007802F0D6F9002840F0B681704B20
:101B80005868196805AB0122897C007802F0CAF90F
:101B9000002840F0AD816A4B5868196805AB0122F6
:101BA000C97D007802F0BEF9002840F0A481644BA2
:101BB0005868196805AB01220979007802F0B2F97A
:101BC000002840F09B810C238DF814305C4B586842
:101BD000196805AB01220979007802F0A3F9002801
:101BE00040F08F810F20FFF775FD554B9A6A527AAE
:101BF0008DF814205868196805AB0122897800789F
:101C000002F090F9002840F07F814D4B9A6A127AD9
:101C10008DF814205868196805AB012249780078BE
:101C200002F080F9002840F07281002E79D0444BF8
:101C30009B6A9B7A63F01F038DF81430404B586801
:101C4000196805AB01228979007802F06BF9002848
:101C500040F06081002E6AD0394B9B6ADB7A63F0DA
:101C60001F038DF81430364B5868196805AB0122F4
:101C7000C979007802F056F9002840F04E81002E14
:101C800059D140238DF814302D4B5868196805AB95
:101C900001220979007802F045F9002840F04081DE
:101CA00078238DF81430264B5868196805AB01224B
:101CB0004979007802F036F9002840F0348132206A
:101CC000FFF708FD00238DF814301D4B5868196884
:101CD00005AB01224979007802F024F9002840F090
:101CE0002581174B5868196805AB0222897A00785C
:101CF00002F049F90646002840F01B819DF8143097
:101D00009DF8157047EA03270E4BA3FB0737C7F36F
:101D1000C7070023AB606B602B60A3606360236028
:101D20005CE0074B9B6A9B7A8DF8143086E718239A
:101D30008DF8143097E7C820FFF7CCFCA1E700BF6F
:101D40000C000020ABAAAAAA9DF814309DF815102B
:101D500041EA032109B2ADF804109DF816309DF850
:101D6000172042EA032212B2ADF806209DF81800AF
:101D70009DF8193043EA00231BB2ADF80830206803
:101D80000144216061680A446260A2681344A36050
:101D90009DF81A309DF81B1041EA032109B2ADF8F5
:101DA0000C109DF81C309DF81D2042EA032212B24F
:101DB000ADF80E209DF81E009DF81F3043EA002369
:101DC0001BB2ADF8103028680144296069680A44E4
:101DD0006A60AA681344AB600136F6B2BE420ED206
:101DE000554B5868196805AB0C22C97A007802F087
:101DF000CAF80028A8D04FF0FF3009B0F0BD29681C
:101E00008322002308040914FFF7AAF900263A46A2
:101E10003346FFF7A5F92860696883220023080488
:101E20000914FFF79DF93A463346FFF799F96860C0
:101E3000A9688322002308040914FFF791F93A46A0
:101E40003346FFF78DF9A860206803140004194693
:101E5000B3422DDBC00A3A46334640EA4150C9122C
:101E6000FFF77EF920606068031400041946002B18
:101E700024DBC00A3A46334640EA4150C912FFF714
:101E80006FF96060A068031400041946002B1BDB87
:101E9000C00A3A46334640EA4150C912FFF760F99A
:101EA000A060002816DDA0F58030A0600020A4E727
:101EB00040F2FF72801843F10001CBE740F2FF725D
:101EC000801843F10001D4E740F2FF72801843F11B
:101ED0000001DDE700F58030A06000208DE74FF0C5
:101EE000FF308AE74FF0FF3087E74FF0FF3084E79D
:101EF0004FF0FF3081E74FF0FF307EE74FF0FF30CB
:101F00007BE74FF0FF3078E74FF0FF3075E74FF099
:101F1000FF3072E74FF0FF306FE74FF0FF306CE7B4
:101F20004FF0FF3069E74FF0FF3066E74FF0FF30CA
:101F300063E74FF0FF3060E70C0000207C4B9B7A9A
:101F4000002B00F0D48000B583B000238DF807305B
:101F5000774B586819680DF107030122C97B007897
:101F600001F0E0FF002840F0C580714B5868196807
:101F70000DF1070301224979007801F0D3FF002811
:101F800040F0BB806A4B586819680DF107030122C5
:101F90000979007801F0C6FF002840F0B180644B59
:101FA00093F82430002B52D00C238DF80730604B6F
:101FB000586819680DF1070301220979007801F0CA
:101FC000B1FF002840F09F803220FFF783FBC02341
:101FD0008DF80730564B9B7A13F0010F02D0E023A7
:101FE0008DF80730524B586819680DF1070301222C
:101FF0000979007801F096FF002840F087804C4B6B
:102000005B7C03B302238DF80730494B586819688D
:102010000DF107030122C97B007801F083FF00283E
:1020200077D100238DF80730414B586819680DF1BE
:10203000070301224979007801F074FF00286BD171
:1020400003B05DF804FB00238DF80730DDE70423BF
:102050008DF80730364B586819680DF107030122D7
:102060000979007801F05EFF002858D1304B9B7C45
:1020700023B92F4B9B7A13F0010F30D140238DF8F9
:1020800007302B4B586819680DF1070301220979B5
:10209000007801F047FF002844D13220FFF71AFBF7
:1020A000234B5B7CFBB101238DF80730204B586834
:1020B00019680DF107030122C97B007801F032FF96
:1020C00098BB1B4B586853F8101B012249790078C4
:1020D00001F028FF0028B3D04FF0FF30B0E76023B5
:1020E0008DF80730CDE700238DF80730DEE74FF09D
:1020F000FF3070474FF0FF30A2E74FF0FF309FE70F
:102100004FF0FF309CE74FF0FF3099E74FF0FF3082
:1021100096E74FF0FF3093E74FF0FF3090E74FF036
:10212000FF308DE74FF0FF308AE74FF0FF3087E751
:102130000C0000200D4B1B7A032B13D8DFE803F0B3
:1021400002060A0EFA230380002070474FF4FA7348
:102150000380F9E74FF47A730380F5E74FF4FA63ED
:102160000380F1E700230380EEE700BF0C000020AE
:10217000244B9B7A002B3CD000B583B0B0F57A7F1E
:1021800033D00BD8FA2813D0B0F5FA7F03D1082347
:102190008DF807300FE04FF0FF3023E0B0F5FA6F15
:1021A00003D118238DF8073005E04FF0FF3019E018
:1021B00000238DF80730134B1B7A9DF80720B3EBF3
:1021C000D20F19D00F4B586819680DF1070301227F
:1021D0008979007801F0A6FE80B99DF80730DB0808
:1021E000084A137203B05DF804FB10238DF8073022
:1021F000E1E74FF0FF3070470020F3E74FF0FF308A
:10220000F0E700BF0C0000200F4B5B7A032B16D8C1
:10221000DFE803F0020C0F12022303700A4BDB7C91
:1022200083B103785B0003700020704704230370C0
:10223000F4E708230370F1E710230370EEE74FF093
:10224000FF307047002070470C000020234B9B7A22
:10225000002B35D000B583B002380E2833D8DFE824
:1022600000F0083223323232273232323232323206
:102270002B0000238DF80730184B5B7A9DF8072060
:10228000B3EBD20F24D0154B586819680DF1070332
:102290000122C979007801F045FED8B99DF80730D0
:1022A000DB080E4A537210E008238DF80730E3E78D
:1022B00010238DF80730DFE718238DF80730DBE7B0
:1022C0004FF0FF3070474FF0FF3003B05DF804FB74
:1022D0000020FAE74FF0FF30F7E700BF0C000020C6
:1022E0000F4BDB7A013B052B17D8DFE803F0030720
:1022F0000A0D1013BC230380002070476223038063
:10230000FAE72A230380F7E714230380F4E70A237C
:102310000380F1E705230380EEE700230380EBE76A
:102320000C000020234B9B7A002B3AD000B583B0E1
:10233000BB281AD901238DF807301E4BDA7A9DF895
:1023400007309A4230D01B4B586819680DF10703CB
:1023500001228978007801F0E5FD38BB9DF807205F
:10236000144BDA7203B05DF804FB612803D9022331
:102370008DF80730E1E7292803D903238DF80730CA
:10238000DBE7132803D904238DF80730D5E70928A4
:1023900003D905238DF80730CFE706238DF80730E2
:1023A000CBE74FF0FF3070470020DBE74FF0FF3006
:1023B000D8E700BF0C000020054B93F8243023B968
:1023C000034BDB890380002070474FF0FF307047DC
:1023D0000C0000200D4B1B7A032B13D8DFE803F011
:1023E00002060A0E0A4B036000207047094B036087
:1023F00000207047084B036000207047074B0360C4
:10240000002070474FF0FF30704700BF0C000020E5
:1024100000000343000083423333034233338341DC
:10242000114B5B7A032B1AD8DFE803F0020D11156C
:102430004FF4804303800C4BDB7C9BB103885B082B
:1024400003800020704741F69C730380F3E74FF44C
:1024500080530380EFE74FF400630380EBE74FF016
:10246000FF307047002070470C000020024B1B7C9F
:1024700003700020704700BF0C00002070B5174BA0
:1024800093F824302BBB00F0FE04144B9B7A13B35B
:10249000124A167C23401374A3420BD04FF0FF3531
:1024A00014B90E4B1B7D3BB10120FFF7E7FA3CB995
:1024B000284670BD0025F3E70020FFF7DFFAF6E7B6
:1024C000FFF73CFD0028F3D0044B1E744FF0FF359E
:1024D000EEE70025ECE74FF0FF35E9E70C000020C0
:1024E0002E4B93F82430002B49D0F0B583B005462D
:1024F0000F461646294B9B7A002B43D0274B586832
:10250000196801AB0222897A007801F03CFD0028AD
:102510003BD19DF804009DF8054044EA0024AC42FC
:1025200023D31E4B58684388B4EB530F0DD91B4B74
:10253000196801AB0122497C007801F024FD38BB09
:102540009DF8043013F0100F14D1144B586819681B
:102550003B46EAB2C97A007801F015FDD8B9B4FB60
:10256000F5F4013C347003B0F0BD002333704FF03C
:10257000FF30F8E7FFF7E2FC6FF00100F3E74FF000
:10258000FF3070474FF0FF30EDE74FF0FF30EAE7E4
:102590004FF0FF30E7E74FF0FF30E4E70C0000209A
:1025A000584B9B7C834200F09C8010B582B004465F
:1025B000002844D0534B586819680DF107030122D5
:1025C0000979007801F0DFFC002840F08C809DF84C
:1025D000073023F020038DF807304A4B58681968FC
:1025E0000DF1070301220979007801F09BFC002816
:1025F0007CD10320FFF76EF802238DF80730414BA2
:1026000093F8223013B182238DF807303D4B93F8B5
:1026100023302BB19DF8073043F030038DF807309D
:10262000384B586819680DF107030122097D0078BD
:1026300001F078FC002844D04FF0FF3044E0314BEB
:10264000586819680DF1070301220979007801F033
:102650009AFC00284DD12B4B9B7A13F0010F35D0FB
:102660009DF8073043F020038DF80730254B58685C
:1026700019680DF1070301220979007801F052FC75
:10268000002839D10320FFF725F81E4B93F822309C
:102690001BB380238DF807301A4B93F823302BB1EE
:1026A0009DF8073043F030038DF80730154B58681C
:1026B00019680DF107030122097D007801F032FC51
:1026C000E8B9104B9C74002002B010BD9DF8073093
:1026D00023F020038DF80730C8E700238DF807307A
:1026E000DAE7002070474FF0FF30EDE74FF0FF30A2
:1026F000EAE74FF0FF30E7E74FF0FF30E4E74FF055
:10270000FF30E1E70C0000201B4B93F8233083429D
:102710002DD010B582B0044628B330238DF8073091
:10272000154B9B7C2BB19DF8073043F002038DF8CD
:102730000730114B93F822302BB19DF8073063F02E
:102740007F038DF807300C4B586819680DF10703AB
:102750000122097D007801F0E5FB50B9064B83F8B2
:10276000234002B010BD00238DF80730D8E70020C9
:1027700070474FF0FF30F4E70C00002028285FD8A6
:1027800010B582B00446B8B90020FFF7BDFF0023A2
:102790008DF8043007238DF805302E4B58681968E2
:1027A00001AB0222897C007801F0BCFB00284AD1F1
:1027B000284B187502B010BD0120FFF7A5FF20239C
:1027C0008DF80430012C26D0052C2BD9142C30D8B0
:1027D00002238DF805300A20FFF7A4FD9DF805308F
:1027E0009B0143F007038DF805301A4B58681968B0
:1027F00001AB0222897C007801F094FB30BB154BC1
:1028000008229A7200241C7301221A752046FFF7D1
:1028100035FE2046CEE700238DF805300520FFF772
:1028200081FDDBE701238DF805300520FFF77AFDF8
:10283000D4E703238DF805301420FFF773FDCDE7AF
:102840004FF0FF3070474FF0FF30B3E74FF0FF30ED
:10285000B0E700BF0C000020264B9B7A002B40D035
:1028600010B582B00446234B93F82430002B3BD1A3
:10287000204B1B7D33B1431E9BB2272B0AD900206E
:10288000FFF77CFF032C0AD9B4F57A7F08D94FF4FF
:102890007A7405E0C0B2FFF771FF00201FE0042446
:1028A0004FF47A7090FBF4F4013C8DF80740114B23
:1028B000586819680DF1070301224978007801F082
:1028C00031FBA0B99DF80700431C4FF47A7090FBD0
:1028D000F3F0084BD8814008FFF724FD002002B038
:1028E00010BD4FF0FF3070474FF0FF30F7E74FF06B
:1028F000FF30F4E70C00002010B582B0044610F061
:10290000700F50D001238DF80730334B5868196889
:102910000DF107030122897C007801F003FB0028F8
:102920004AD19DF8073003F0BF032B4A13730023ED
:102930008DF8073014F0400F02D104238DF80730D2
:1029400014F0200F05D19DF8073043F002038DF8F5
:10295000073014F0100F05D19DF8073043F0010344
:102960008DF8073014F0080F05D19DF8073043F0BB
:1029700038038DF80730184B586819680DF10703B4
:102980000122C97C007801F0CDFAD8B90CB1082C2D
:102990001ED1114B9C7200241C753220FEF79AFE4A
:1029A000204602B010BD18B100238DF80730ACE707
:1029B00040238DF80730A8E7074B00229A724FF0AA
:1029C000FF30EEE7044B00229A724FF0FF30E8E749
:1029D0000020FFF799FEDCE70C00002010B582B064
:1029E00080238DF80030674B586819686B460122C8
:1029F000897C007801F096FA002840F0A4806420D9
:102A0000FEF768FE00238DF800305E4B58681968A9
:102A10006B460122897C007801F084FA002840F09E
:102A20009580584B586819686B460622897D007856
:102A300001F0A9FA002840F08C809DF8051089006B
:102A400001F004019DF803305B0003F00203194319
:102A50009DF9013003F00103194352D0012946D0FA
:102A6000022948D1474B0022DA74464BFF229A7262
:102A70001A725A72DA724FF6FF71D9811A749A7407
:102A800001221A7383F82220002283F823205A752A
:102A90001A75C3F81620C3F81A20C3F81E2083F84D
:102AA000242083F82520DA844FF4FA60FFF760FBD6
:102AB000002854D10220FFF7C9FB002852D12A2058
:102AC000FFF730FC002850D13220FFF7C5FE002868
:102AD0004ED1FFF7D3FC00284DD1FFF761FD04462E
:102AE00000284BD1FFF708FF204602B010BD254B50
:102AF0000122DA74B9E7244803F0B0FC4FF0FF3448
:102B0000F2E7204B586819686B460122C9780078B3
:102B100001F039FA00BB9DF8003013F00F0305D027
:102B2000042B09D0174B0022DA749EE7174803F0F4
:102B3000F7FC4FF0FF34D7E7154803F0F1FC114BD9
:102B40000122DA7491E74FF0FF34CDE74FF0FF3404
:102B5000CAE74FF0FF34C7E74FF0FF34C4E74FF048
:102B6000FF34C1E74FF0FF34BEE74FF0FF34BBE75F
:102B70004FF0FF34B8E74FF0FF34B5E74FF0FF34C4
:102B8000B2E700BF0C000020F8CC000820CD000800
:102B90006CCD00083AB370B582B00C461646194B9E
:102BA0009B7A1BB3030A8DF80430C0B28DF8050080
:102BB0000844144B5D686B8998421ADC114B196804
:102BC00001AB0222097E287801F0ACF9A0B90D4BC7
:102BD000586819683346E2B2497D007801F0A2F9DD
:102BE00068B902B070BD4FF0FF3070474FF0FF3052
:102BF000F7E74FF0FF30F4E74FF0FF30F1E74FF029
:102C0000FF30EEE70C0000203AB370B582B00C46FE
:102C10001646194B9B7A1BB3030A8DF80430C0B2D9
:102C20008DF805000844144B5D686B8998421ADCE6
:102C3000114B196801AB0222097E287801F072F964
:102C4000A0B90D4B586819683346E2B2497D007847
:102C500001F099F968B902B070BD4FF0FF307047CC
:102C60004FF0FF30F7E74FF0FF30F4E74FF0FF3061
:102C7000F1E74FF0FF30EEE70C0000202DE9F04FB8
:102C800087B09A46294B93F82530002B3CD1074654
:102C90008846914600293AD00024BC421BD23E1BF4
:102CA000102EA8BF1026B5B208EB040B5A462946D1
:102CB0002046FFF76FFF68BB02AA29462046FFF7B0
:102CC000A3FF50BB2A4602A9584603F041FB38BB7C
:102CD0002C44A4B2E1E74FEA19238DF804308DF8B3
:102CE0000590124B5868196801AB0222897E007862
:102CF00001F018F9B8B90D4B012283F82520A3F88B
:102D000026A007B0BDE8F08F4FF0FF30F9E74FF095
:102D1000FF30F6E74FF0FF30F3E74FF0FF30F0E71A
:102D20006FF00100EDE74FF0FF30EAE70C00002004
:102D3000234B93F8243083423CD030B583B018B392
:102D40001F4B93F82530002B36D00020FEF796FE5F
:102D50000020FFF725FC1A4DE88CFFF77DFD0024CD
:102D60008DF8074068680DF10703012223210078E0
:102D700001F0D8F8012085F82400FEF77FFEFFF768
:102D8000DDF8204603B030BD0020FEF777FE0C4D85
:102D90002B7C8DF8073068680DF107030122232191
:102DA000007801F0BFF8002485F82440FFF7C6F84A
:102DB0002046E7E7002070474FF0FF30E2E700BF12
:102DC0000C0000202DE9F04188B005460E463D4B31
:102DD00093F82470FFB901A8FFF7ACF90DF10700D3
:102DE000FFF712FA6846FFF77BFA0DF10200FFF7D2
:102DF000E3FA344B93F80A800DF10600FFF736FB37
:102E00000024012C0CDC002231462846FEF782FE0D
:102E100030B10134F5E70020FFF78AFF0127DAE738
:102E2000022C1FD00024012C07DC012202A905A8D6
:102E3000FEF770FE08B10134F5E7022C14D002A9A8
:102E40003046FEF747FDC6B205A92846FEF796FDB7
:102E500010F0FF0F04D000243EB944F0020404E057
:102E60000124F9E7002400E00024164BFF221A7227
:102E70005A72DA724FF6FF71D9819A721A7401226E
:102E80001A73BDF80400FFF773F99DF80700FFF708
:102E9000DDF9BDF80000FFF745FABDF80200FFF7C5
:102EA000DBFC4046FFF728FD9DF80600FFF7E6FA39
:102EB0001FB9204608B0BDE8F0810120FFF738FFB8
:102EC000F7E700BF0C00002010B588B002A905A8E4
:102ED000FFF778FF032802D0012008B010BD01A839
:102EE000FFF778FA019C0598FDF7DAFE2146FDF719
:102EF0002BFFFEF7EFF805900698FDF7D1FE21466F
:102F0000FDF722FFFEF7E6F806900798FDF7C8FEEA
:102F10002146FDF719FFFEF7DDF8079005A800F040
:102F2000D3F90DF10200FFF77BFABDF80220029BF6
:102F300002FB03F30293039B02FB03F30393049B43
:102F400002FB03F3049302A800F046FA0020C4E752
:102F500090F90030002B01DD002070470FDB90F965
:102F60000130002B01DD012070470ADB90F90230AF
:102F7000002B08DC01DB0720704706207047042087
:102F80007047052070470220704738B50546FFF7A7
:102F9000DFFF0446E81CFFF7DBFF44EAC00424B26D
:102FA000A81DFFF7D5FF44EA801080B238BD7047F6
:102FB00008B501F00DF9FFF711FDC0BB7820FFF750
:102FC0009BFC10F0FF0F01D0012031E07820FFF7CB
:102FD00055FA10F0FF0F2CD16420FFF73DFC10F0E4
:102FE000FF0F28D100F0BEF810F0FF0F25D11848D0
:102FF000FFF7CBFF00F0C2F810F0FF0F1FD140F237
:10300000731000F081FC10F0FF0F1AD1642000F063
:103010005DFA10F0FF0F16D1FFF756FFA8B9012097
:10302000FFF786FE10F0FF0002D0092000E00A2022
:1030300008BD0220FCE70320FAE70420F8E705209A
:10304000F6E70620F4E70720F2E70820F0E700BFE4
:1030500000000020000000002DE9F0418CB0054682
:103060000C460DF1190301930DF11A0300930BABFC
:1030700002AA07A909A800F053FD00284BD1BDF909
:1030800026302380BDF81A3013F4807F45D0029893
:10309000FDF706FE4FF04251FDF756FE0446039839
:1030A000FDF7FEFD4FF04251FDF74EFE80460498BD
:1030B000FDF7F6FD4FF04251FDF746FE0746059835
:1030C000FDF7EEFD4FF04251FDF73EFE06464FF094
:1030D00040414046FDF738FE3146FDF735FE0646D5
:1030E00021462046FDF728FD3946FDF72DFE014615
:1030F0003046FDF721FDFDF78FF909F0BDFA08A371
:10310000D3E90023FDF7E0F9FDF7C0FC28600020BB
:103110000CB0BDE8F0810120FAE70220F8E700BF1B
:103120006666666666A64C4038B50446C578437840
:1031300013F0010F09D005F03F00C00805F00701AA
:103140000131074B1B6803B19847637813F0080FF0
:1031500004D0034B5B680BB1A8099847002038BD29
:10316000100A002008B5C8234FF48062024940F6D7
:10317000F630FFF783FD08BD14CE000810B586B009
:1031800004464C4B1B68ADF80C301B0C8DF80E3010
:10319000494B1B68ADF808301B0C8DF80A30474BC3
:1031A0001B68ADF804301B0C8DF80630444B1B68CF
:1031B000ADF800301B0C8DF8023000F0030101F176
:1031C00018030DEB030111F80C3C8DF81430C0F31B
:1031D000C10202F118030DEB030212F80C3C8DF84A
:1031E0001530C0F3811318336B4413F80C0C8DF8B1
:1031F000160011F8101C8DF8101012F8102C8DF814
:10320000112013F8103C8DF8123005AA032140F26A
:103210002640FFF7BFFC002840D104AA032140F25A
:103220002A40FFF7B7FC00283BD1019BADF81430D2
:103230001B0C8DF81630009BADF810301B0C8DF870
:10324000123014F0040F05D037238DF814302723E3
:103250008DF8103014F0200F05D057238DF815305D
:1032600047238DF8113014F4807F05D077238DF833
:10327000163067238DF8123005AA03214FF48860B9
:10328000FFF788FC80B904AA032140F23140FFF720
:1032900081FC60B90B4B1C8106B010BD4FF0FF30B4
:1032A000FAE74FF0FF30F7E74FF0FF30F4E74FF069
:1032B000FF30F1E7DCCD0008E0CD0008E4CD0008E8
:1032C000E8CD0008100A002030B585B0404B1B89BE
:1032D00003F0030250F82220019213F0040F01D0F2
:1032E00052420192C3F3C10250F82220029213F01D
:1032F000200F01D052420292C3F3811250F82220D3
:10330000039213F4807F01D052420392019BD8179D
:10331000304AA3FB023102FB00119B0F43EA8103F9
:1033200001930299C817A1FB021502FB0055890FF2
:1033300041EA85050295039CE017A4FB024102FBCC
:103340000012A40F44EA820403941A0E8DF80020A0
:10335000C3F307428DF80120C3F307228DF8022042
:103360008DF803306A4604214FF47470FFF712FCA5
:1033700040BB2B0E8DF80030C5F307438DF80130AC
:10338000C5F307238DF802308DF803506A460421F7
:103390004FF47570FFF7FEFBB8B9230E8DF80030BF
:1033A000C4F307438DF80130C4F307238DF80230CE
:1033B0008DF803406A4604214FF47670FFF7EAFB6C
:1033C00005B030BD4FF0FF30FAE74FF0FF30F7E7C0
:1033D000100A002009E3CA0210B588B004460DF1B6
:1033E0000600FFF71DF8BDF806C04FEACC3C364B8F
:1033F0001A8902F0030354F82330059312F0040FE6
:1034000001D05B420593C2F3C10354F82330069305
:1034100012F0200F01D05B420693C2F3811354F8DF
:103420002330079312F4807F01D05B420793059904
:10343000CA17A1FB0C130CFB0233890F41EA83016D
:103440000591069AD017A2FB0C230CFB0033920FB8
:1034500042EA83020692079BDC17A3FB0C300CFBAD
:10346000040C9B0F43EA8C030793080E8DF80800A9
:10347000C1F307408DF80900C1F307208DF80A0059
:103480008DF80B10110E8DF80C10C2F307418DF85A
:103490000D10C2F307218DF80E108DF80F201A0EB3
:1034A0008DF81020C3F307428DF81120C3F30722D3
:1034B0008DF812208DF8133002AA0C214FF42570DC
:1034C000FFF768FB08B010BD100A002010B586B0E9
:1034D0000446164B93E8070006AB03E90700C82C27
:1034E0001AD8C82393FBF4F3013B1A0E8DF804207D
:1034F0008DF8053001AA022140F21620FFF74AFBA1
:1035000068B903AA0C2140F6C120FFF743FB48B974
:10351000074B9C8106B010BD4FF0FF30FAE74FF02B
:10352000FF30F7E74FF0FF30F4E700BFECCD0008C5
:10353000100A002070B582B0044610F0070F00F0AA
:10354000AC800846B1F5C86F00F2AA80FDF7A4FB75
:103550005B49FDF7ADFC05460DF10300FEF754FE97
:103560009DF80330023B0E2B00F29D80DFE803F054
:10357000089B2C9B9B9B3C9B9B9B9B9B9B9B4C00E6
:103580004FF08D412846FDF7DFFBFDF7C9FD86B200
:103590004C492846FDF7D8FBFDF7C2FD80B2330A3F
:1035A0008DF804308DF80560030A8DF806308DF82B
:1035B000070014F0010F37D114F0020F48D114F0B6
:1035C000040F58D1002070E04FF08C412846FDF7E1
:1035D000BBFBFDF7A5FD86B23B492846FDF7B4FBD2
:1035E000FDF79EFD80B2DAE74FF08B412846FDF7EC
:1035F000ABFBFDF795FD86B234492846FDF7A4FBE9
:10360000FDF78EFD80B2CAE74FF08A412846FDF7EC
:103610009BFBFDF785FD86B22D492846FDF794FBFF
:10362000FDF77EFD80B2BAE701AA02214FF4EA70ED
:10363000FFF7B0FA00283AD10DF1060202214FF44B
:103640009270FFF7A7FA0028B6D04FF0FF302CE0B9
:1036500001AA02214FF4EC70FFF79CFA50BB0DF168
:10366000060202214FF49470FFF794FA0028A6D0C6
:103670004FF0FF3019E001AA02214FF4EE70FFF77E
:1036800089FAD0B90DF1060202214FF49670FFF7C6
:1036900081FA50B14FF0FF3007E04FF0FF3004E007
:1036A0004FF0FF3001E04FF0FF3002B070BD4FF03F
:1036B000FF30FAE74FF0FF30F7E74FF0FF30F4E765
:1036C00000004843000040460000C045000040455F
:1036D0000000C04400B583B000238DF8073010F01F
:1036E000010F02D030238DF8073010F0020F05D003
:1036F0009DF8073043F00C038DF8073010F0040FED
:1037000005D09DF8073043F003038DF807300DF125
:10371000070201214FF4A470FFF73CFA03B05DF8F3
:1037200004FB00B583B020B10346042802D904236A
:1037300000E00123013B8DF807300DF10702012164
:1037400040F24F10FFF726FA03B05DF804FB0000CB
:1037500000B583B0094BA3FB0030830A8DF8043019
:10376000C0F387008DF8050001AA02214FF4EF7025
:10377000FFF710FA03B05DF804FB00BFCDCCCCCC52
:1037800000B583B0094BA3FB0030830A8DF80430E9
:10379000C0F387008DF8050001AA02214FF4ED70F7
:1037A000FFF7F8F903B05DF804FB00BFCDCCCCCC3B
:1037B00000B583B00E4B83FB0023C017C0EBA310F2
:1037C00000FB01F10B0E8DF80430C1F307438DF8B7
:1037D0000530C1F307238DF806308DF8071001AAD4
:1037E00004214FF4AE70FFF7D5F903B05DF804FB88
:1037F000D34D621000B583B0084BA3FB00308308A3
:10380000800A8DF804008DF8053001AA02214FF4DA
:10381000AD70FFF7BFF903B05DF804FBCDCCCCCCA5
:1038200000B583B0084BA3FB00308308800A8DF8F5
:1038300004008DF8053001AA02214FF4AC70FFF7A7
:10384000A9F903B05DF804FBCDCCCCCC00B585B0B4
:1038500068B10D4A01AB07CA03C31A7001AA092156
:103860004FF49760FFF796F905B05DF804FB074A3F
:1038700001AB07CA03C31A7001AA09214FF497606C
:10388000FFF788F9F0E700BFFCCD000808CE00087C
:1038900000B583B0B0B1C0238DF80430C2238DF8D9
:1038A0000530C4238DF80630C6238DF8073001AAF1
:1038B000042140F69820FFF76DF9FEF73FFB03B0B7
:1038C0005DF804FB4FF08B330193F0E700B583B054
:1038D000B0B120238DF8043028238DF80530302333
:1038E0008DF8063038238DF8073001AA042140F600
:1038F0009E20FFF74FF9FEF721FB03B05DF804FBB4
:103900004FF0A3330193F0E72DE9F04184B0044672
:1039100002238DF80430CA238DF80530E3238DF897
:10392000063009238DF8073001AA04216820FFF72B
:1039300031F9A3238DF8043014F0400800F0B08072
:10394000C0238DF80530C8238DF80630C2238DF8CA
:10395000073014F4C07500F0AB80C4238DF8083034
:10396000CC238DF80930C6238DF80A30A3238DF8B7
:103970000B308DF80C308DF80D3001AA0A2140F67D
:10398000A720FFF707F914F0030700F09980202320
:103990008DF8043001AA012140F6B620FFF7FAF8AD
:1039A00014F0200F00F090800120FFF74FFFADB121
:1039B00014F4807F00F08C80B2238DF804308B23C8
:1039C0008DF80530B6238DF806309B238DF807302F
:1039D00001AA042140F6A220FFF7DCF814F0010F41
:1039E00000F08380F8238DF8043001AA01214FF400
:1039F0000B60FFF7CFF8FA210720FFF79BFD0720A8
:103A0000FFF768FE0120FFF78CFE6420FFF7A0FEA1
:103A10004FF4FA70FFF7B4FEC8213F48FFF7C8FE25
:103A20002820FFF7E7FE0A20FFF7FAFE14F0020F46
:103A300065D0D9238DF8043001AA012140F23D70F0
:103A4000FFF7A8F814F0040F5DD00120FFF720FF66
:103A500014F0100F5BD00120FFF738FF2F4E44F019
:103A600008037381FEF76AFA0023B373B8F1000FFD
:103A700001D00622B2731DB1284A937B063393739B
:103A800014F0140F03D0254A937B103393731FB1A6
:103A9000224A937B04339373002004B0BDE8F08185
:103AA000A3238DF805308DF806308DF8073050E7E8
:103AB000A3238DF808308DF809308DF80A3055E7CA
:103AC000D8238DF8043065E70020FFF7BFFE6EE7CE
:103AD000B0238DF8043080238DF80530B4238DF8A1
:103AE000063090238DF8073072E7D8238DF8043024
:103AF00001AA01214FF40B60FFF74CF896E7D82399
:103B00008DF8043098E70020FFF7C2FEA0E7002000
:103B1000FFF7DCFEA2E700BF09E3CA02100A00209B
:103B20002DE9F0478CB006460F4692469846149D04
:103B300000232B80159A04A9754B987BFEF7D0FCC7
:103B4000002840F0E1808146714B5B8913F0140F2F
:103B500064D09DF810209DF81100000440EA026036
:103B60009DF8122040EA02209DF813201043CAF865
:103B700000009DF814109DF81520120442EA01621D
:103B80009DF8161042EA01229DF817100A43CAF860
:103B900004209DF818409DF81910090441EA0461B9
:103BA0009DF81A4041EA04219DF81B402143CAF8C0
:103BB00008109DF81CC09DF81D40240444EA0C64C4
:103BC0009DF81EC044EA0C249DF81FC044EA0C0472
:103BD000CAF80C40001400904FEA224CCDF804C003
:103BE00009140291221403920CFB0CFC00FB00C090
:103BF00001FB010102FB021202F17142B2F1007FEE
:103C000005D82A8842F480722A80102207E0FEF745
:103C100095F900232B804FF0FF396CE0002213F060
:103C2000400F2FD002F13001694411F8204C02F10D
:103C300031010DEB010010F8201C41EA042139800C
:103C400002F13201694411F8204C02F133010DEB0D
:103C5000010010F8201C41EA0421798002F13401AE
:103C6000694411F8204C02F135010DEB010010F808
:103C7000201C41EA0421B9800632D2B2298841F0E1
:103C80000801298013F4C07F2FD002F1300169446C
:103C900011F8204C02F131010DEB010010F8201C4D
:103CA00041EA0421318002F13201694411F8204CCB
:103CB00002F133010DEB010010F8201C41EA042150
:103CC000718002F13401694411F8204C02F1350190
:103CD0000DEB010010F8201C41EA0421B1800632EE
:103CE000D2B2298841F07001298013F0030F06D168
:103CF0004046FFF75CF948460CB0BDE8F08704ABDE
:103D00009818FFF711FAF3E74FF0FF39F3E700BF18
:103D1000100A002072B6FEE700B591B028220021FB
:103D200006A802F049FB0023019302930393049336
:103D30000593012206924FF4803307930A920222E0
:103D40000D920E934FF4E0130F9306A801F00CFBB5
:103D500080B90F23019302210291002303934FF4B2
:103D600080620492059301A801F03EFD20B911B0D4
:103D70005DF804FBFFF7CEFFFFF7CCFF000000006B
:103D800010B584B001F01CF94B4800F07DFE4820CE
:103D9000FDF778FC00F054FC00F03AFCFFF7BCFFA4
:103DA000FDF7BAFC00F03EFF00F072FF01F030F8C2
:103DB00001F08CF8414C0021204601F0E1FF042184
:103DC000204601F0DDFF0821204601F0D9FF0C213B
:103DD000204601F0D5FF3A4C0021204602F03EF883
:103DE0000421204602F03AF8364C0021204602F029
:103DF00035F80421204602F031F8334B0022C3F895
:103E0000B42111E00223314A0021084600F03CFCB5
:103E1000642001F0F9F802232D4A0021084600F041
:103E200033FC642001F0F0F800F066F90028E9D1D5
:103E30000223284A0021084600F026FC11E0022354
:103E4000254A1946002000F01FFC642001F0DCF830
:103E500002231F4A1946002000F016FC642001F0DE
:103E6000D3F8FFF7A5F80028E9D102231B4A194629
:103E700000F00AFC0DF10A0103A8FFF7EDF8002895
:103E8000F8D1042300930AA3D3E90023052100F00D
:103E900067FC1348FDF7D2FB052001F0B5F80A4A8C
:103EA000D2F8B431B3FA83F35B09C2F8B431F0E766
:103EB000000000A09999C9BF100B0020C80A00207B
:103EC000380A0020800A0020000022420CDA000894
:103ED00018DA000824DA000830DA00083CDA0008B2
:103EE000CDCC4CBE00280CDB0D4B1B68D8630022E8
:103EF0001A6400290CDB0A4B1B6800225A63996381
:103F00007047074B1B680022DA6340421864F0E7F1
:103F1000034B1B684942596300229A63704700BFF4
:103F2000C80A00202DE9F04104460F4615461E46FA
:103F300000F072F9600000F0FE0000F00FFA00F0EF
:103F4000A7F988B98046384600F008FA00F0A0F9D1
:103F50004446AC4214D2305D00F000FA00F098F90B
:103F600048B90134E4B2F4E700F074F94FF0010805
:103F70004046BDE8F08100F06DF94FF00108F7E729
:103F800000F068F9F4E7F8B506460F4614461D46FA
:103F900000F042F9700000F0FE0000F0DFF900F0E0
:103FA00077F978B9384600F0D9F900F071F900F0E6
:103FB00033F9700040F00100C0B200F0CFF900F01A
:103FC00067F90AE000F046F9012011E0002000F056
:103FD000EFF92870013CE4B2013534B1012CF5D081
:103FE000012000F0E5F92870F4E700F033F92046ED
:103FF000F8BD38B505460C4600F00EF9D02000F0AB
:10400000ADF900F045F978B9284600F0A7F900F0BD
:104010003FF9204600F0A2F900F03AF9044638B919
:1040200000F018F9204638BD00F014F90124F9E732
:1040300000F010F90124F5E708B5C10001F0F8011E
:104040001B20FFF7D6FF08BD08B5C10001F0F8013D
:104050001C20FFF7CEFF08BD08B5BB2809D8612892
:104060000CD829280CD813280CD809280CD90521DC
:1040700000E001211A20FFF7BCFF08BD0221F9E78B
:104080000321F7E70421F5E70621F3E710B5B0F5C2
:104090007A7F04D80446032803D8042401E04FF4AF
:1040A0007A744FF47A7191FBF4F1C9B20139C9B253
:1040B0001920FFF79EFF6008FFF7CEFF10BD10B577
:1040C000044600F0A9F8D02000F048F900F0E0F82C
:1040D000204600F043F900F0DBF800F09DF8D12015
:1040E00000F03CF900F0D4F8002000F061F904463B
:1040F00000F0B0F8204610BD30B587B02D4B9A695E
:1041000042F004029A619B6903F004030193019B4E
:104110004FF4004302930123039304930325059571
:1041200002A9254800F0F2FF244A536823F0E06317
:1041300043F0806353600024214BC3F8BC4100F07E
:1041400047F880216B20FFF754FF6420FDF7C2FA87
:1041500021466B20FFF74DFF2846FFF76DFF2046F5
:10416000FFF772FF3220FFF791FF21463820FFF75B
:1041700040FF21466A20FFF73CFF21462320FFF73E
:1041800038FF80213720FFF734FF7520FFF797FFB6
:10419000682802D0012007B030BD01216B20FFF755
:1041A00028FF21466C20FFF724FF3220FFF76EFF27
:1041B0002046F0E7001002400008014000000140E6
:1041C0000000214208B50220FDF766FA08BD000094
:1041D00010B586B00D4B9A6942F008029A619B694E
:1041E00003F008030193019B03230293012403942A
:1041F0000494059302A9064800F088FF054BC3F814
:104200008041C3F8844106B010BD00BF00100240D9
:10421000000C01400080214238B50C4B1A6822F096
:10422000F0021A601A6842F030021A60084C01234A
:10423000C4F88431C4F88031FFF7C4FF0025C4F806
:104240008451FFF7BFFFC4F8805138BD000C014016
:104250000080214210B50C4B1A6822F0F0021A605F
:104260001A6842F030021A60084C0023C4F880310A
:10427000C4F88431FFF7A6FF0123C4F88031C4F8E5
:104280008431FFF79FFF10BD000C014000802142E8
:1042900038B5124B1A6822F0F0021A601A6842F020
:1042A00080021A600E4C0125C4F88451FFF78AFF82
:1042B000C4F88051FFF786FF0023094AD2F8042191
:1042C0003AB10133DBB2FA2BF7D9FFF7C3FF012074
:1042D00003E00020024BC3F8800138BD000C014010
:1042E0000080214238B50C4C0025C4F880510B4B9E
:1042F0001A6822F0F0021A601A6842F030021A605E
:10430000C4F88451FFF75EFF0123C4F88031FFF742
:1043100059FFC4F8805138BD00802142000C014093
:1043200070B50C4C0025C4F880510B4B1A6822F074
:10433000F0021A601A6842F030021A600126C4F8CE
:104340008461FFF73FFFC4F88061FFF73BFFC4F8CB
:10435000805170BD00802142000C014070B50546BF
:10436000114B1A6822F0F0021A601A6842F030020B
:104370001A6000240D4BC3F8804111E0EB090B4E8D
:10438000C6F884316D00EDB20123C6F88031FFF725
:1043900019FF0023C6F88031FFF714FF0134E4B29F
:1043A000072CEBD970BD00BF000C014000802142FA
:1043B000F8B50746154B1A6822F0F0021A601A6821
:1043C00042F080021A600024254603E0FFF7FAFE5F
:1043D0000135EDB2072D11D80D4E0023C6F88031FE
:1043E000FFF7F0FE0123C6F880319C40E4B2D6F816
:1043F0000431002BEAD00134E4B2E7E71FB9FFF73C
:104400008FFF2046F8BDFFF76DFFFAE7000C014073
:104410000080214210B586B00E4B9A6942F0080226
:104420009A619B6903F008030193019B4FF4406379
:1044300002930124039404940323059302A90648DC
:1044400000F064FE054BC3F8AC41C3F8A84106B0C8
:1044500010BD00BF00100240000C0140008021424E
:1044600038B50D4B5A6822F470425A605A6842F4CB
:1044700040525A60094C0123C4F8AC31C4F8A83149
:104480000420FDF709F90025C4F8AC510420FDF71C
:1044900003F9C4F8A85138BD000C01400080214246
:1044A00010B50D4B5A6822F470425A605A6842F4B3
:1044B00040525A60094C0023C4F8A831C4F8AC310A
:1044C0000420FDF7E9F80123C4F8A831C4F8AC31A1
:1044D0000420FDF7E1F810BD000C014000802142EE
:1044E00038B5134B5A6822F470425A605A6842F445
:1044F00000425A600F4D0124C5F8AC412046FDF73B
:10450000CBF8C5F8A8412046FDF7C6F80023094AB4
:10451000D2F82C213AB10133DBB2FA2BF7D9FFF7ED
:10452000BFFF012003E00020024BC3F8A80138BD03
:10453000000C01400080214270B50546134B5A68BB
:1045400022F470425A605A6842F440525A60002481
:104550000F4BC3F8A84116E0EB090D4EC6F8AC317D
:104560006D00EDB20220FDF797F80123C6F8A831DF
:104570000220FDF791F80023C6F8A8310220FDF7CC
:104580008BF80134E4B2072CE6D970BD000C014071
:104590000080214210B50446FFF762FF7820FFF744
:1045A000CBFFFFF79DFF0020FFF7C6FFFFF798FF47
:1045B0002046FFF7C1FFFFF793FFFFF771FF10BD24
:1045C00010B50446FFF74CFF7820FFF7B5FFFFF763
:1045D00087FF4020FFF7B0FFFFF782FF2046FFF77D
:1045E000ABFFFFF77DFFFFF75BFF10BD10B5044683
:1045F000000940F01000FFF7CDFF04F00F00FFF7B7
:10460000C9FF10BD08B55038C0B2FFF7C3FF08BDE1
:1046100038B5002509E00020FFF7D2FF0134E4B2ED
:1046200014F0800FF7D00135EDB2072D07D82846DA
:10463000FFF7E8FF0020FFF7D9FF0024F0E738BDBF
:1046400010B5FFF7E7FE002405E0044B185DFFF707
:10465000A1FF0134E4B2182CF7D910BD60E20008C4
:1046600010B50446A1F15000C0B2FFF793FF200936
:1046700040F01000FFF78EFF04F00E0040F0010044
:10468000FFF788FF10BD00002DE9F84306460F46EE
:104690009046012B26D0022B5AD0BDE8F88305EBBB
:1046A00045032D4A02EB4303185DFFF789FF0134F0
:1046B000E4B2052CF3D90636F6B209F101095FFA26
:1046C00089F918F80950002DE7D0203DEDB27E2E73
:1046D00002D90137FFB2002639463046FFF7C0FF46
:1046E0000024E6E74FF00009EBE704EB05131B4A53
:1046F000D05CFFF765FF0134E4B2072CF5D9791CD3
:10470000C9B23046FFF7ACFF002408E004EB051304
:104710000833124AD05CFFF753FF0134E4B2072C90
:10472000F4D90836F6B209F101095FFA89F918F8E7
:104730000950002DB1D0203DEDB2782E02D90137BD
:10474000FFB2002639463046FFF78AFF0024D4E73F
:104750004FF00009EBE700BF48DA000870DC000802
:104760002DE9F04F87B006460F46154600921C46CD
:10477000019300230393049305930022002328460A
:104780002146FCF713F9B8B900980199FCF736F9FE
:1047900005462846FBF72EFE02460B460098019977
:1047A000FBF7DAFC6EA3D3E90023FBF78DFEFCF7E1
:1047B0004DF901210C460BE0284604F10041FCF7BD
:1047C0001DF90546E5E701EB810149000134E4B23A
:1047D000654B83FB0523EA17C2EBA30292FBF1F3BF
:1047E000002BF0D1614981FB051E4FEAE57CCCEB43
:1047F0002E3EDFF8749189FB0E184FEAEE71C1EB83
:10480000A80101EB8101AEEB41018DF80C10DFF83E
:10481000608188FB051ECCEBAE1E89FB0E1A4FEAA9
:10482000EE71C1EBAA0101EB8101AEEB41018DF804
:104830000D10DFF840E18EFB051ACCEB6A1A89FBFC
:104840000A1B4FEAEA71C1EBAB0101EB8101AAEB54
:1048500041018DF80E1089FB021AD117C1EBAA0194
:1048600001EB8101A2EB41018DF80F1089FB0529B5
:10487000CCEBA90C0CEB8C0CA5EB4C0C8DF810C000
:104880002E228DF81120A8FB00284FEA98183A4AEA
:10489000A2FB0851C90801EB8101A8EB41018DF889
:1048A0001210AEFB001E4FEA5E1EA2FB0E51C9089D
:1048B00001EB8101AEEB41018DF81310A2FB005119
:1048C000C908A2FB0152D20802EB8202A1EB42020C
:1048D0008DF8142001EB8101A0EB41018DF815103A
:1048E0009DF84050063505F118026A44002102F88F
:1048F0000C1C09E003F118020DEB020111F80C2C5D
:10490000303201F80C2C0133092BF3DD0022002397
:1049100000980199FCF74AF8A8B92E238DF81130B8
:1049200005F118030DEB0305002305F80C3CC4F159
:104930000502012303A90A4439463046FFF7A4FEC5
:1049400007B0BDE8F08F0134E4B2C4F105031833B9
:104950006B442D2203F80C2CDFE700BFAFF300807F
:10496000000000000088C34067666666AD8BDB68A8
:10497000D34D62101F85EB51CDCCCCCC38B50D4654
:104980001146FCF7D7F80849FCF7DEF9044628463B
:10499000FCF786F90549FCF7D7F901462046FCF7F4
:1049A000CBF8FCF797FB38BD000048C3CDCC4CBF1B
:1049B0002DE970430844FCF773F905462A4B18604B
:1049C0002A4E3068FBF728FD23A3D3E90023FBF729
:1049D0007BFDFCF75BF8044630602846FBF71CFDC6
:1049E0001FA3D3E90023FBF76FFD804689462046CD
:1049F000FBF712FD42464B46FBF7B0FBFCF746F8CF
:104A0000044630601A4D2968FCF796F82860194969
:104A1000FCF756FB08B1174A2A601749144B18686F
:104A2000FCF730FB10B1124B134A1A6013492046B1
:104A3000FCF78AF9044612490D4B1868FCF784F913
:104A400001462046FCF778F80E4B1860FCF742FB55
:104A5000BDE87083AFF30080666666666666E63F13
:104A6000333333333333D33F280A0020200A002066
:104A7000240A00200000C8420000C8C20000F04123
:104A80009A99193E2C0A002008B5054B1860054B71
:104A90001868002302221946806801F049FD08BD0C
:104AA000300A002044000020022801D8012070476D
:104AB00008B501F023FC09230360002008BD0000B5
:104AC00010B5013801280AD814464FF0FF3392B2CE
:104AD0000748006801F00DFB40B9204610BD01F009
:104AE0000DFC092303604FF0FF30F7E70520F5E7E1
:104AF000300A0020022801D80020704708B501F0D4
:104B0000FDFB092303604FF0FF3008BD08B501F03D
:104B1000F5FB092303604FF0FF3008BD08B548B925
:104B20004FF0FF3301220848006801F04EFB40B906
:104B3000012008BD01F0E2FB092303604FF0FF30C4
:104B4000F7E70520F5E700BF300A002008B5022886
:104B500004D84FF400534B60002008BD01F0CEFB99
:104B600009230360F8E7000082B00E4B9A6942F017
:104B700001029A619A6902F001020092009ADA69D0
:104B800042F08052DA61DB6903F080530193019BAC
:104B9000054A536823F0E06343F00073536002B0AA
:104BA000704700BF0010024000000140FEE7FEE732
:104BB000FEE7FEE7FEE770477047704708B500F074
:104BC00011FA08BD0120704708B501F097FB1623C4
:104BD00003604FF0FF3008BD08B54FF0FF31FFF71D
:104BE000F3FFFEE708B503460B4A126842B10A4AD2
:104BF000106803446A46934206D8074A136008BD0A
:104C0000054A06491160F2E701F078FB0C230360C6
:104C10004FF0FF30F3E700BF340A0020A00B002064
:104C20007047000000B58DB02422002103A801F0D8
:104C3000C3FB00230193029314484FF080420260AB
:104C4000436083604FF6FF72C2600361802383611B
:104C500003230393012205920F23079309920B93D9
:104C600003A900F087FF50B900230193029301A923
:104C7000064801F059F928B90DB05DF804FBFFF7BB
:104C800049F8F1E7FFF746F8F6E700BF380A0020D9
:104C900000B58DB02422002103A801F08DFB002374
:104CA000019302931348144A0260436083604FF6F5
:104CB000FF72C26003618023836103230393012297
:104CC00005920F23079309920B9303A900F052FF5B
:104CD00050B900230193029301A9064801F024F979
:104CE00028B90DB05DF804FBFFF714F8F1E7FFF702
:104CF00011F8F6E7800A00200004004000B589B0F2
:104D0000002304930593069307930368B3F1804F40
:104D100005D01D4A93421DD009B05DF804FB03F590
:104D20000433DA6942F00102DA61DA6902F0010261
:104D30000092009A9A6942F004029A619B6903F01A
:104D400004030193019B0323049304A90F4800F07B
:104D5000DDF9E1E70E4BDA6942F00202DA61DA6965
:104D600002F002020292029A9A6942F004029A61E7
:104D70009B6903F004030393039BC023049304A9DA
:104D8000024800F0C3F9C7E70004004000080140F2
:104D9000001002400268094B9A4200D0704782B06E
:104DA00003F50233DA6942F00402DA61DB6903F0E9
:104DB00004030193019B02B0704700BF000800404C
:104DC00000B587B000230293039304930593026810
:104DD0000D4B9A4202D007B05DF804FB03F5023395
:104DE0009A6942F008029A619B6903F008030193F3
:104DF000019B4FF47073029302230393059302A95E
:104E0000024800F083F9E6E700080040000C01408A
:104E100000B58BB000230893099301930293039389
:104E200004930593069307932648274A026031228C
:104E30004260836041F61F42C26003618023836148
:104E400000F06CFE58BB00230893099308A91D4885
:104E500001F06AF830BB60230193002202920392B2
:104E6000059201A9174800F013FFF0B904220DEBD9
:104E70000201144800F00CFFD0B9082201A9114822
:104E800000F006FFB8B90C2201A90E4800F000FF9F
:104E9000A0B90C48FFF794FF0BB05DF804FBFEF7D8
:104EA00039FFD0E7FEF736FFD5E7FEF733FFDDE742
:104EB000FEF730FFE1E7FEF72DFFE4E7FEF72AFFFC
:104EC000E7E700BFC80A00200008004008B50A480C
:104ED0000A4B03604FF4FA33436000238360C360DE
:104EE00003610C2242618361C36101F0D3F800B910
:104EF00008BDFEF70FFFFBE7100B00200044004049
:104F000010B586B0002302930393049305930268BF
:104F1000164B9A4201D006B010BD03F5E633DA69AC
:104F200042F40032DA61DA6902F400320092009A47
:104F30009A6942F004029A619B6903F004030193A9
:104F4000019B042302930223039303230593084C3C
:104F500002A9204600F0DAF8082302930023039305
:104F6000049302A9204600F0D1F8D4E700440040A1
:104F70000008014010B504460E4B18784FF47A73C0
:104F8000B3FBF0F30C4A1068B0FBF3F000F09AF8B2
:104F900068B90F2C01D901200AE0002221464FF008
:104FA000FF3000F057F8054B1C60002000E00120A6
:104FB00010BD00BF3C000020380000204000002051
:104FC00008B5074A136843F010031360032000F08C
:104FD0002FF80F20FFF7CEFFFFF7C6FD002008BD1A
:104FE00000200240034A1168034B1B780B441360F6
:104FF000704700BF540B00203C000020014B186894
:10500000704700BF540B002038B50446FFF7F6FF89
:105010000546B4F1FF3F02D0044B1B781C44FFF758
:10502000EDFF401BA042FAD338BD00BF3C0000207A
:10503000074AD36823F4E0631B041B0C000200F44E
:10504000E060034343F0BF6343F40033D360704731
:1050500000ED00E000B5194BDB68C3F30223C3F198
:10506000070CBCF1040F28BF4FF0040C03F1040E31
:10507000BEF1060F18D9033B4FF0FF3E0EFA0CFCB1
:1050800021EA0C0199400EFA03F322EA03031943C3
:1050900000280BDB0901C9B200F1604000F5614056
:1050A00080F800135DF804FB0023E5E700F00F0033
:1050B0000901C9B2024B1954F4E700BF00ED00E04A
:1050C00014ED00E00138B0F1807F0BD24FF0E02307
:1050D0005861054AF02182F82310002098610722C8
:1050E0001A6170470120704700ED00E0042806D0E7
:1050F0004FF0E022136923F00403136170474FF06F
:10510000E022136943F004031361704770B582B065
:105110000024A446A6E0804DAA4210D007D97F4DB6
:10512000AA420CD005F58035AA4208D013E0A5F5B7
:105130008015AA4203D005F57025AA4207D18A68D6
:10514000002A58D0012A51D04361082403E0A5F574
:105150008015AA42F3D0BEF1FF0F4ED80646BEF12D
:10516000FF0F4CD84FEA8C0233680F25954023EA95
:10517000050304FA02F2134333604B6813F0805FB7
:105180006ED0674B9A6942F001029A619B6903F005
:1051900001030193019B4FEA9C02951C614B53F85C
:1051A00025600CF003039D000F23AB4026EA0306A5
:1051B0005D4B984229D003F58063984200F08E80C1
:1051C00003F58063984200F08B8003F5806398427A
:1051D00019D004231AE0CC68BDE7CC680434BAE7E0
:1051E000CC680834B7E7CC680C34B4E70361082412
:1051F000B1E70024AFE70424ADE7061DAFE7ACF14B
:1052000008029200B0E7032300E00023AB403343E1
:105210000232444D45F822304B6813F4803F61D090
:10522000424A136843EA0E0313604B6813F4003FCD
:105230005ED03E4A536843EA0E0353604B6813F452
:10524000801F5BD0394A936843EA0E0393604B6832
:1052500013F4001F58D0354AD36843EA0E03D360D5
:105260000CF1010C0A6832FA0CF353D0012303FA53
:105270000CF302EA030E33EA0202F1D14A68122A61
:105280003FF649AF122A3FF666AF01A555F822F066
:105290003F510008D7510008E1510008F3510008C0
:1052A000575100085751000857510008575100083E
:1052B000575100085751000857510008575100082E
:1052C000575100085751000857510008575100081E
:1052D00057510008DB510008E7510008012395E70A
:1052E000022393E7114A136823EA0E0313609CE735
:1052F0000E4A536823EA0E0353609FE70B4A9368F4
:1053000023EA0E039360A2E7084AD36823EA0E0358
:10531000D360A5E702B070BD00002210000031107C
:10532000001002400000014000080140000401405C
:105330000AB10161704709040161704782B0084BEE
:105340001B68084AA2FB03235B0A00FB03F30193DB
:1053500000BF019B5A1E0192002BF9D102B0704789
:1053600038000020D34D6210002800F0F18170B5A4
:1053700082B00446036813F0010F2CD0994B5B6890
:1053800003F00C03042B1DD0964B5B6803F00C0359
:10539000082B12D06368B3F5803F41D0002B55D164
:1053A00003F1804303F504331A6822F480321A6053
:1053B0001A6822F480221A6037E08A4B5B6813F483
:1053C000803FE7D0874B1B6813F4003F03D063682E
:1053D000002B00F0BF81236813F0020F75D0814BC2
:1053E0005B6813F00C0F5FD07E4B5B6803F00C031F
:1053F000082B54D02369002B00F08A807A4B0122BD
:105400001A60FFF7FBFD0546764B1B6813F0020F91
:1054100075D1FFF7F3FD401B0228F5D903209EE16B
:10542000704A136843F480331360636843B3FFF733
:10543000E5FD05466B4B1B6813F4003FCBD1FFF72E
:10544000DDFD401B6428F5D9032088E1B3F5A02FCA
:1054500009D0644B1A6822F480321A601A6822F468
:1054600080221A60E1E703F18043A3F53C331A6818
:1054700042F480221A601A6842F480321A60D4E73B
:10548000FFF7BCFD0546574B1B6813F4003FA2D045
:10549000FFF7B4FD401B6428F5D903205FE1514BB1
:1054A0005B6813F4803FA5D14E4B1B6813F0020FCD
:1054B00003D02369012B40F04F814A4A136823F03F
:1054C000F803616943EAC1031360236813F0080F0E
:1054D00033D0A369002B5CD0434B0122C3F8802456
:1054E000FFF78CFD05463F4B5B6A13F0020F21D19D
:1054F000FFF784FD401B0228F5D903202FE1394A2C
:10550000136823F0F803616943EAC1031360DCE721
:10551000354B00221A60FFF771FD0546314B1B68C1
:1055200013F0020FD1D0FFF769FD401B0228F5D917
:10553000032014E10120FFF701FF236813F0040F9B
:1055400000F09680274BDB6913F0805F34D1254B48
:10555000DA6942F08052DA61DB6903F0805301932B
:10556000019B0125214B1B6813F4807F26D0E36843
:10557000012B3DD0002B53D103F1804303F50433BD
:105580001A6A22F001021A621A6A22F004021A62EE
:1055900033E0154B0022C3F88024FFF72FFD0546AA
:1055A000104B5B6A13F0020FC7D0FFF727FD401BBB
:1055B0000228F5D90320D2E00025D3E70B4A13686F
:1055C00043F480731360FFF719FD0646074B1B6811
:1055D00013F4807FCBD1FFF711FD801B6428F5D930
:1055E0000320BCE000100240000042420070004076
:1055F0005F4A136A43F001031362E36833B3FFF7B2
:10560000FDFC06465A4B1B6A13F0020F2FD1FFF721
:10561000F5FC801B41F288339842F3D903209EE0C9
:10562000052B09D0524B1A6A22F001021A621A6A3B
:1056300022F004021A62E0E74D4B1A6A42F00402BB
:105640001A621A6A42F001021A62D6E7FFF7D6FC24
:105650000646474B1B6A13F0020F08D0FFF7CEFC3B
:10566000801B41F288339842F3D9032077E0E5B9F3
:10567000E369002B72D03E4A526802F00C02082AFD
:1056800056D0022B17D03B4B00221A66FFF7B6FC10
:105690000446374B1B6813F0007F47D0FFF7AEFC82
:1056A000001B0228F5D9032059E0314AD36923F0C1
:1056B0008053D361DCE72F4B00221A66FFF79EFC74
:1056C00005462B4B1B6813F0007F06D0FFF796FCB6
:1056D000401B0228F5D9032041E0236AB3F5803F3F
:1056E0001AD023494B6823F47413226A606A024378
:1056F00013434B601F4B01221A66FFF77FFC0446E1
:105700001B4B1B6813F0007F0ED1FFF777FC001BCB
:105710000228F5D9032022E0154A536823F4003308
:10572000A1680B435360DCE7002018E0002016E07E
:10573000012B16D00E4B5B6803F48031226A914234
:1057400011D103F47013626A93420ED1002006E077
:1057500001207047012002E0012000E0002002B09B
:1057600070BD0120FBE70120F9E70120F7E700BF4A
:10577000001002400000424286B0174B0FCB0DF1E3
:10578000180C0CE90F0040F20123ADF80430134B64
:105790005B6803F00C02082A02D0114806B070477B
:1057A000C3F3834218326A4412F8100C13F4803F9A
:1057B0000DD00A4B5B68C3F3404318336B4413F8B6
:1057C000143C074A02FB00F0B0FBF3F0E6E7054BA0
:1057D00003FB00F0E2E700BF94E200080010024083
:1057E00000127A0000093D00002800F0A08070B58A
:1057F0000D460446524B1B6803F007038B420BD245
:105800004F4A136823F007030B431360136803F038
:1058100007038B4240F08D80236813F0020F17D0EE
:1058200013F0040F04D0474A536843F4E063536015
:10583000236813F0080F04D0424A536843F46053BE
:105840005360404A536823F0F003A1680B43536050
:10585000236813F0010F31D06368012B20D0022B95
:1058600025D0384A126812F0020F64D035494A68D0
:1058700022F0030213434B60FFF7C0FB0646314B97
:105880005B6803F00C036268B3EB820F16D0FFF77E
:10589000B5FB801B41F288339842F0D9032045E0E4
:1058A000284A126812F4003FE0D101203EE0254A68
:1058B000126812F0007FD9D1012037E0204B1B681D
:1058C00003F00703AB420AD91D4A136823F007030C
:1058D0002B431360136803F00703AB422DD12368F9
:1058E00013F0040F06D0174A536823F4E063E1680D
:1058F0000B435360236813F0080F07D0114A536815
:1059000023F46053216943EAC1035360FFF734FF76
:105910000C4B5B68C3F303130B4AD35CD8400B4BAF
:1059200018600B4B1868FFF725FB002070BD0120A5
:1059300070470120FAE70120F8E70120F6E700BFF1
:1059400000200240001002407CE2000838000020E5
:1059500040000020014B1868704700BF380000204D
:1059600008B5FFF7F7FF044B5B68C3F30223034A54
:10597000D35CD84008BD00BF001002408CE2000894
:1059800008B5FFF7E7FF044B5B68C3F3C223034A84
:10599000D35CD84008BD00BF001002408CE2000874
:1059A00070B4036A23F001030362036A46688269E4
:1059B00022F073020C6844EA020523F002028B68AD
:1059C00013430D4CA04209D00B4CA0420DD04660B1
:1059D00085614A684263036270BC704723F0080324
:1059E000CA68134323F00403EEE726F440764A69BD
:1059F00032438E691643EAE7002C014030B4036A53
:105A000023F480730362036A4568C26922F073025B
:105A10000C68224323F400738C6843EA04230F4C80
:105A2000A04209D00D4CA0420ED04560C2614A6828
:105A3000C263036230BC704723F40063CC6843EA5E
:105A4000042323F48063EDE725F440554C6945EACF
:105A500004158C6945EA0415E7E700BF002C0140F6
:105A600030B4036A23F480530362036A4468C26952
:105A700022F4E6420D6842EA052223F400538D68C1
:105A800043EA0533074DA84206D04460C2614A6824
:105A90000264036230BC704724F480444D6944EAD8
:105AA0008514F2E7002C014003681B4A90420AD09B
:105AB000B0F1804F07D0A2F59432904203D002F5A6
:105AC0008062904203D123F070034A681343124A64
:105AD00090420AD0B0F1804F07D0A2F594329042A4
